{
  "contractName": "PaperApprovalContract",
  "abi": [
    {
      "inputs": [
        {
          "internalType": "address",
          "name": "contractOwner",
          "type": "address"
        },
        {
          "internalType": "address",
          "name": "_author",
          "type": "address"
        },
        {
          "internalType": "address",
          "name": "_paperUri",
          "type": "address"
        },
        {
          "internalType": "address[]",
          "name": "_reviewers",
          "type": "address[]"
        }
      ],
      "stateMutability": "nonpayable",
      "type": "constructor"
    },
    {
      "anonymous": false,
      "inputs": [
        {
          "indexed": true,
          "internalType": "address",
          "name": "previousOwner",
          "type": "address"
        },
        {
          "indexed": true,
          "internalType": "address",
          "name": "newOwner",
          "type": "address"
        }
      ],
      "name": "OwnershipTransferred",
      "type": "event"
    },
    {
      "inputs": [],
      "name": "approvalCounts",
      "outputs": [
        {
          "internalType": "uint256",
          "name": "",
          "type": "uint256"
        }
      ],
      "stateMutability": "view",
      "type": "function"
    },
    {
      "inputs": [],
      "name": "approvalStatus",
      "outputs": [
        {
          "internalType": "bool",
          "name": "",
          "type": "bool"
        }
      ],
      "stateMutability": "view",
      "type": "function"
    },
    {
      "inputs": [],
      "name": "author",
      "outputs": [
        {
          "internalType": "address",
          "name": "",
          "type": "address"
        }
      ],
      "stateMutability": "view",
      "type": "function"
    },
    {
      "inputs": [],
      "name": "claimContractBrick",
      "outputs": [
        {
          "internalType": "bool",
          "name": "",
          "type": "bool"
        }
      ],
      "stateMutability": "view",
      "type": "function"
    },
    {
      "inputs": [],
      "name": "owner",
      "outputs": [
        {
          "internalType": "address",
          "name": "",
          "type": "address"
        }
      ],
      "stateMutability": "view",
      "type": "function"
    },
    {
      "inputs": [],
      "name": "paperUri",
      "outputs": [
        {
          "internalType": "address",
          "name": "",
          "type": "address"
        }
      ],
      "stateMutability": "view",
      "type": "function"
    },
    {
      "inputs": [],
      "name": "renounceOwnership",
      "outputs": [],
      "stateMutability": "nonpayable",
      "type": "function"
    },
    {
      "inputs": [
        {
          "internalType": "address",
          "name": "",
          "type": "address"
        }
      ],
      "name": "reviewers",
      "outputs": [
        {
          "internalType": "bool",
          "name": "",
          "type": "bool"
        }
      ],
      "stateMutability": "view",
      "type": "function"
    },
    {
      "inputs": [
        {
          "internalType": "address",
          "name": "",
          "type": "address"
        }
      ],
      "name": "reviewersVoting",
      "outputs": [
        {
          "internalType": "bool",
          "name": "",
          "type": "bool"
        }
      ],
      "stateMutability": "view",
      "type": "function"
    },
    {
      "inputs": [],
      "name": "totalVotes",
      "outputs": [
        {
          "internalType": "uint256",
          "name": "",
          "type": "uint256"
        }
      ],
      "stateMutability": "view",
      "type": "function"
    },
    {
      "inputs": [
        {
          "internalType": "address",
          "name": "newOwner",
          "type": "address"
        }
      ],
      "name": "transferOwnership",
      "outputs": [],
      "stateMutability": "nonpayable",
      "type": "function"
    },
    {
      "inputs": [
        {
          "internalType": "bool",
          "name": "vote",
          "type": "bool"
        }
      ],
      "name": "recieveVote",
      "outputs": [],
      "stateMutability": "nonpayable",
      "type": "function"
    },
    {
      "inputs": [],
      "name": "closeContract",
      "outputs": [],
      "stateMutability": "nonpayable",
      "type": "function"
    },
    {
      "inputs": [],
      "name": "checkVotingStatus",
      "outputs": [
        {
          "internalType": "uint256",
          "name": "_totalVotes",
          "type": "uint256"
        },
        {
          "internalType": "uint256",
          "name": "_approvalCounts",
          "type": "uint256"
        },
        {
          "internalType": "bool",
          "name": "_contractIsClosed",
          "type": "bool"
        }
      ],
      "stateMutability": "view",
      "type": "function"
    },
    {
      "inputs": [],
      "name": "isContractClaimable",
      "outputs": [
        {
          "internalType": "bool",
          "name": "",
          "type": "bool"
        }
      ],
      "stateMutability": "view",
      "type": "function"
    }
  ],
  "bytecode": "0x60806040523480156200001157600080fd5b5060405162001495380380620014958339818101604052810190620000379190620004a0565b620000576200004b620001dc60201b60201c565b620001e460201b60201c565b6200006884620002a860201b60201c565b82600160006101000a81548173ffffffffffffffffffffffffffffffffffffffff021916908373ffffffffffffffffffffffffffffffffffffffff16021790555081600260006101000a81548173ffffffffffffffffffffffffffffffffffffffff021916908373ffffffffffffffffffffffffffffffffffffffff1602179055506000600760006101000a81548160ff0219169083151502179055506000600681905550805160058190555060005b8151811015620001d15760016003600084848151811062000162577f4e487b7100000000000000000000000000000000000000000000000000000000600052603260045260246000fd5b602002602001015173ffffffffffffffffffffffffffffffffffffffff1673ffffffffffffffffffffffffffffffffffffffff16815260200190815260200160002060006101000a81548160ff0219169083151502179055508080620001c890620006c5565b91505062000118565b50505050506200078b565b600033905090565b60008060009054906101000a900473ffffffffffffffffffffffffffffffffffffffff169050816000806101000a81548173ffffffffffffffffffffffffffffffffffffffff021916908373ffffffffffffffffffffffffffffffffffffffff1602179055508173ffffffffffffffffffffffffffffffffffffffff168173ffffffffffffffffffffffffffffffffffffffff167f8be0079c531659141344cd1fd0a4f28419497f9722a3daafe3b4186f6b6457e060405160405180910390a35050565b620002b8620001dc60201b60201c565b73ffffffffffffffffffffffffffffffffffffffff16620002de620003be60201b60201c565b73ffffffffffffffffffffffffffffffffffffffff161462000337576040517f08c379a00000000000000000000000000000000000000000000000000000000081526004016200032e90620005f1565b60405180910390fd5b600073ffffffffffffffffffffffffffffffffffffffff168173ffffffffffffffffffffffffffffffffffffffff161415620003aa576040517f08c379a0000000000000000000000000000000000000000000000000000000008152600401620003a190620005cf565b60405180910390fd5b620003bb81620001e460201b60201c565b50565b60008060009054906101000a900473ffffffffffffffffffffffffffffffffffffffff16905090565b6000620003fe620003f88462000647565b62000613565b905080838252602082019050828560208602820111156200041e57600080fd5b60005b858110156200045257816200043788826200045c565b84526020840193506020830192505060018101905062000421565b5050509392505050565b6000815190506200046d8162000771565b92915050565b600082601f8301126200048557600080fd5b815162000497848260208601620003e7565b91505092915050565b60008060008060808587031215620004b757600080fd5b6000620004c7878288016200045c565b9450506020620004da878288016200045c565b9350506040620004ed878288016200045c565b925050606085015167ffffffffffffffff8111156200050b57600080fd5b620005198782880162000473565b91505092959194509250565b60006200053460268362000676565b91507f4f776e61626c653a206e6577206f776e657220697320746865207a65726f206160008301527f64647265737300000000000000000000000000000000000000000000000000006020830152604082019050919050565b60006200059c60208362000676565b91507f4f776e61626c653a2063616c6c6572206973206e6f7420746865206f776e65726000830152602082019050919050565b60006020820190508181036000830152620005ea8162000525565b9050919050565b600060208201905081810360008301526200060c816200058d565b9050919050565b6000604051905081810181811067ffffffffffffffff821117156200063d576200063c62000742565b5b8060405250919050565b600067ffffffffffffffff82111562000665576200066462000742565b5b602082029050602081019050919050565b600082825260208201905092915050565b600062000694826200069b565b9050919050565b600073ffffffffffffffffffffffffffffffffffffffff82169050919050565b6000819050919050565b6000620006d282620006bb565b91507fffffffffffffffffffffffffffffffffffffffffffffffffffffffffffffffff82141562000708576200070762000713565b5b600182019050919050565b7f4e487b7100000000000000000000000000000000000000000000000000000000600052601160045260246000fd5b7f4e487b7100000000000000000000000000000000000000000000000000000000600052604160045260246000fd5b6200077c8162000687565b81146200078857600080fd5b50565b610cfa806200079b6000396000f3fe608060405234801561001057600080fd5b50600436106100f55760003560e01c8063669d98b2116100975780639107c15b116100665780639107c15b1461022e578063a6c3e6b91461024c578063f2fde38b1461026a578063f7cbb1b214610286576100f5565b8063669d98b2146101cc578063715018a6146101e85780638da5cb5b146101f257806390da146214610210576100f5565b806312c56989116100d357806312c569891461015457806322ab3af914610174578063610be654146101a45780636145ca02146101ae576100f5565b806302fb0632146100fa5780630c107357146101185780630d15fd7714610136575b600080fd5b6101026102b6565b60405161010f9190610b06565b60405180910390f35b6101206102bc565b60405161012d9190610a50565b60405180910390f35b61013e6102e2565b60405161014b9190610b06565b60405180910390f35b61015c6102e8565b60405161016b93929190610b21565b60405180910390f35b61018e600480360381019061018991906108ab565b61030e565b60405161019b9190610a6b565b60405180910390f35b6101ac61032e565b005b6101b6610417565b6040516101c39190610a6b565b60405180910390f35b6101e660048036038101906101e191906108d4565b61042a565b005b6101f0610581565b005b6101fa610609565b6040516102079190610a50565b60405180910390f35b610218610632565b6040516102259190610a6b565b60405180910390f35b610236610645565b6040516102439190610a6b565b60405180910390f35b610254610677565b6040516102619190610a50565b60405180910390f35b610284600480360381019061027f91906108ab565b61069d565b005b6102a0600480360381019061029b91906108ab565b610795565b6040516102ad9190610a6b565b60405180910390f35b60065481565b600260009054906101000a900473ffffffffffffffffffffffffffffffffffffffff1681565b60055481565b6000806000600554600654600760009054906101000a900460ff16925092509250909192565b60046020528060005260406000206000915054906101000a900460ff1681565b6103366107b5565b73ffffffffffffffffffffffffffffffffffffffff16610354610609565b73ffffffffffffffffffffffffffffffffffffffff16146103aa576040517f08c379a00000000000000000000000000000000000000000000000000000000081526004016103a190610ae6565b60405180910390fd5b600760009054906101000a900460ff16156103fa576040517f08c379a00000000000000000000000000000000000000000000000000000000081526004016103f190610ac6565b60405180910390fd5b6001600760006101000a81548160ff021916908315150217905550565b600760019054906101000a900460ff1681565b600760009054906101000a900460ff161561047a576040517f08c379a000000000000000000000000000000000000000000000000000000000815260040161047190610ac6565b60405180910390fd5b600360003373ffffffffffffffffffffffffffffffffffffffff1673ffffffffffffffffffffffffffffffffffffffff16815260200190815260200160002060009054906101000a900460ff16610506576040517f08c379a00000000000000000000000000000000000000000000000000000000081526004016104fd90610aa6565b60405180910390fd5b80600360003373ffffffffffffffffffffffffffffffffffffffff1673ffffffffffffffffffffffffffffffffffffffff16815260200190815260200160002060006101000a81548160ff021916908315150217905550801561057e576001600660008282546105769190610b69565b925050819055505b50565b6105896107b5565b73ffffffffffffffffffffffffffffffffffffffff166105a7610609565b73ffffffffffffffffffffffffffffffffffffffff16146105fd576040517f08c379a00000000000000000000000000000000000000000000000000000000081526004016105f490610ae6565b60405180910390fd5b61060760006107bd565b565b60008060009054906101000a900473ffffffffffffffffffffffffffffffffffffffff16905090565b600760029054906101000a900460ff1681565b6000600760009054906101000a900460ff1680156106725750600260055461066d9190610bbf565b600654115b905090565b600160009054906101000a900473ffffffffffffffffffffffffffffffffffffffff1681565b6106a56107b5565b73ffffffffffffffffffffffffffffffffffffffff166106c3610609565b73ffffffffffffffffffffffffffffffffffffffff1614610719576040517f08c379a000000000000000000000000000000000000000000000000000000000815260040161071090610ae6565b60405180910390fd5b600073ffffffffffffffffffffffffffffffffffffffff168173ffffffffffffffffffffffffffffffffffffffff161415610789576040517f08c379a000000000000000000000000000000000000000000000000000000000815260040161078090610a86565b60405180910390fd5b610792816107bd565b50565b60036020528060005260406000206000915054906101000a900460ff1681565b600033905090565b60008060009054906101000a900473ffffffffffffffffffffffffffffffffffffffff169050816000806101000a81548173ffffffffffffffffffffffffffffffffffffffff021916908373ffffffffffffffffffffffffffffffffffffffff1602179055508173ffffffffffffffffffffffffffffffffffffffff168173ffffffffffffffffffffffffffffffffffffffff167f8be0079c531659141344cd1fd0a4f28419497f9722a3daafe3b4186f6b6457e060405160405180910390a35050565b60008135905061089081610c96565b92915050565b6000813590506108a581610cad565b92915050565b6000602082840312156108bd57600080fd5b60006108cb84828501610881565b91505092915050565b6000602082840312156108e657600080fd5b60006108f484828501610896565b91505092915050565b61090681610bf0565b82525050565b61091581610c02565b82525050565b6000610928602683610b58565b91507f4f776e61626c653a206e6577206f776e657220697320746865207a65726f206160008301527f64647265737300000000000000000000000000000000000000000000000000006020830152604082019050919050565b600061098e601883610b58565b91507f6f6e6c79207265766965776572732063616e20766f74652100000000000000006000830152602082019050919050565b60006109ce601883610b58565b91507f636f6e747261637420616c726561647920636c6f7365642100000000000000006000830152602082019050919050565b6000610a0e602083610b58565b91507f4f776e61626c653a2063616c6c6572206973206e6f7420746865206f776e65726000830152602082019050919050565b610a4a81610c2e565b82525050565b6000602082019050610a6560008301846108fd565b92915050565b6000602082019050610a80600083018461090c565b92915050565b60006020820190508181036000830152610a9f8161091b565b9050919050565b60006020820190508181036000830152610abf81610981565b9050919050565b60006020820190508181036000830152610adf816109c1565b9050919050565b60006020820190508181036000830152610aff81610a01565b9050919050565b6000602082019050610b1b6000830184610a41565b92915050565b6000606082019050610b366000830186610a41565b610b436020830185610a41565b610b50604083018461090c565b949350505050565b600082825260208201905092915050565b6000610b7482610c2e565b9150610b7f83610c2e565b9250827fffffffffffffffffffffffffffffffffffffffffffffffffffffffffffffffff03821115610bb457610bb3610c38565b5b828201905092915050565b6000610bca82610c2e565b9150610bd583610c2e565b925082610be557610be4610c67565b5b828204905092915050565b6000610bfb82610c0e565b9050919050565b60008115159050919050565b600073ffffffffffffffffffffffffffffffffffffffff82169050919050565b6000819050919050565b7f4e487b7100000000000000000000000000000000000000000000000000000000600052601160045260246000fd5b7f4e487b7100000000000000000000000000000000000000000000000000000000600052601260045260246000fd5b610c9f81610bf0565b8114610caa57600080fd5b50565b610cb681610c02565b8114610cc157600080fd5b5056fea26469706673582212208ebbd9db4d6750c0335a942263cdd1ad561df011491847884e7c7b0444c4c2df64736f6c63430008000033",
  "immutableReferences": {},
  "source": "// contracts/ScholarCoin.sol\r\n// SPDX-License-Identifier: MIT\r\npragma solidity ^0.8.0;\r\n\r\nimport \"@openzeppelin/contracts/token/ERC1155/ERC1155.sol\";\r\nimport \"@openzeppelin/contracts/access/Ownable.sol\";\r\n\r\ncontract PaperApprovalContract is Ownable{\r\n    address public author;\r\n    address public paperUri;\r\n    mapping (address => bool) public reviewers;\r\n    mapping (address => bool) public reviewersVoting;\r\n    uint public totalVotes;\r\n    uint public approvalCounts;\r\n    bool private contractIsClosed;\r\n    bool public approvalStatus;\r\n    bool public claimContractBrick;\r\n\r\n    constructor(address contractOwner, address _author, address _paperUri, address[] memory _reviewers) public {\r\n        transferOwnership(contractOwner);\r\n        author = _author;\r\n        paperUri = _paperUri;\r\n        contractIsClosed = false;\r\n        approvalCounts = 0;\r\n        totalVotes = _reviewers.length;\r\n        for (uint i = 0; i < _reviewers.length; i++){\r\n            reviewers[_reviewers[i]] = true;\r\n        }\r\n\r\n    }\r\n\r\n    function recieveVote(bool vote) public{\r\n        require(!contractIsClosed, \"contract already closed!\");\r\n        require(reviewers[msg.sender], \"only reviewers can vote!\");\r\n        reviewers[msg.sender] = vote;\r\n        if (vote){\r\n            approvalCounts += 1;\r\n        }\r\n    }\r\n\r\n    function closeContract() public onlyOwner{\r\n        require(!contractIsClosed, \"contract already closed!\");\r\n        contractIsClosed = true;\r\n    }\r\n\r\n    function checkVotingStatus() public view returns(uint _totalVotes, uint _approvalCounts, bool _contractIsClosed){\r\n        return(totalVotes, approvalCounts, contractIsClosed);\r\n    }\r\n\r\n    function isContractClaimable() public view returns(bool){\r\n        return contractIsClosed && (approvalCounts > (totalVotes / 2));\r\n    }\r\n\r\n}\r\n\r\ncontract ScholarDaoContract is ERC1155, Ownable {\r\n    mapping (uint256 => string) private _uris;\r\n    uint256 public constant SCHOLA_BRICK = 0;\r\n    uint256 public constant SCHOLA_SAND = 1;\r\n\r\n    // Mapping from token ID to account balances\r\n    mapping (uint256 => mapping(address => uint256)) private _balances;\r\n    mapping (address => bool) public scholarAddresses;\r\n\r\n    //a mapping of scholar and their papper \r\n    mapping (address => mapping(address => ScholarPaper)) public scholarPaperMap;\r\n\r\n    struct ScholarPaper {\r\n        PaperApprovalContract paperContract;\r\n        mapping(address => bool) scholarSandClaimed;\r\n        bool scholarBrickClaimed;\r\n    }\r\n\r\n    constructor() public ERC1155(\"\") {\r\n        // set up assets\r\n        _uris[SCHOLA_BRICK] = \"SCHOLA_BRICK\";\r\n        _uris[SCHOLA_SAND] = \"SCHOLA_SAND\";\r\n\r\n    }\r\n\r\n    function uri(uint256 tokenId) override public view returns (string memory){\r\n        //find out tokenId represents in this contract\r\n        return(_uris[tokenId]);\r\n    }\r\n\r\n    function setTokenUri(uint256 _tokenId, string memory _uri) public onlyOwner {\r\n        _uris[_tokenId] = _uri;\r\n    }\r\n\r\n    function mint(address recipient, uint256 tokenId, uint256 amount) public onlyOwner {\r\n        _mint(recipient, tokenId, amount, \"\");\r\n    }\r\n\r\n    function approveNewScholar(address recipient) public onlyOwner {\r\n        // add new scholar to address list, but they are not yet a dao member\r\n        scholarAddresses[recipient] = true;\r\n    }\r\n\r\n    // function joinScholarDao(address recipient) public onlyOwner {\r\n    //     // to-do //contract become payable\r\n    // }\r\n\r\n    function initReviewContract(address author, address paperUri, address[] memory _reviewers) public onlyOwner returns(address contractAddress){\r\n        scholarPaperMap[author][paperUri].paperContract =  new PaperApprovalContract(msg.sender, author, paperUri, _reviewers);\r\n        scholarPaperMap[author][paperUri].scholarBrickClaimed = false;\r\n        return address(scholarPaperMap[author][paperUri].paperContract);\r\n    }\r\n\r\n    function mintScholarBrick(address recipient, address paperUri) public {\r\n        require(address(scholarPaperMap[recipient][paperUri].paperContract) != address(0x0), \"Recipient must own this paper\");\r\n        require(scholarPaperMap[recipient][paperUri].paperContract.isContractClaimable(), \"Paper contract cannot be claimed!\");\r\n        require(msg.sender == recipient || msg.sender == owner(), \"Only the author or the owner can claim this contract!\");\r\n        _mint(recipient, SCHOLA_BRICK, 1, \"\");\r\n    }\r\n\r\n    function addPaperRefferenceAddresses(address author, address paperUri, address[] memory referenceScholarAddresses) public onlyOwner{\r\n        for(uint i = 0; i < referenceScholarAddresses.length; i ++){\r\n            scholarPaperMap[author][paperUri].scholarSandClaimed[referenceScholarAddresses[i]] = false;\r\n        }\r\n    }\r\n\r\n    function mintScholarSand(address recipient, address author, address paperUri) public{\r\n        require(address(scholarPaperMap[recipient][paperUri].paperContract) != address(0x0), \"recipient must be a scholar!\");\r\n        require(scholarPaperMap[author][paperUri].scholarSandClaimed[recipient] == false, \"recipient is unable to claim with this paper\");\r\n        _mint(recipient, SCHOLA_SAND, 5, \"\");\r\n        scholarPaperMap[author][paperUri].scholarSandClaimed[recipient] = true;\r\n\r\n    }\r\n\r\n\r\n} \r\n",
  "sourcePath": "C:/DevSpot/JueXueDAO/contract/contracts/ScholarDaoContract.sol",
  "compiler": {
    "name": "solc",
    "version": "0.8.0+commit.c7dfd78e.Emscripten.clang"
  },
  "schemaVersion": "3.3.4",
  "updatedAt": "2022-09-08T11:20:15.027Z",
  "devdoc": {
    "kind": "dev",
    "methods": {
      "owner()": {
        "details": "Returns the address of the current owner."
      },
      "renounceOwnership()": {
        "details": "Leaves the contract without owner. It will not be possible to call `onlyOwner` functions anymore. Can only be called by the current owner. NOTE: Renouncing ownership will leave the contract without an owner, thereby removing any functionality that is only available to the owner."
      },
      "transferOwnership(address)": {
        "details": "Transfers ownership of the contract to a new account (`newOwner`). Can only be called by the current owner."
      }
    },
    "version": 1
  },
  "userdoc": {
    "kind": "user",
    "methods": {},
    "version": 1
  }
}