{
  "contractName": "PaperApprovalContract",
  "abi": [
    {
      "inputs": [
        {
          "internalType": "address",
          "name": "contractOwner",
          "type": "address"
        },
        {
          "internalType": "address",
          "name": "_author",
          "type": "address"
        },
        {
          "internalType": "address",
          "name": "_paperUri",
          "type": "address"
        },
        {
          "internalType": "address[]",
          "name": "_reviewers",
          "type": "address[]"
        }
      ],
      "stateMutability": "nonpayable",
      "type": "constructor"
    },
    {
      "anonymous": false,
      "inputs": [
        {
          "indexed": true,
          "internalType": "address",
          "name": "previousOwner",
          "type": "address"
        },
        {
          "indexed": true,
          "internalType": "address",
          "name": "newOwner",
          "type": "address"
        }
      ],
      "name": "OwnershipTransferred",
      "type": "event"
    },
    {
      "inputs": [],
      "name": "approvalCounts",
      "outputs": [
        {
          "internalType": "uint256",
          "name": "",
          "type": "uint256"
        }
      ],
      "stateMutability": "view",
      "type": "function"
    },
    {
      "inputs": [],
      "name": "approvalStatus",
      "outputs": [
        {
          "internalType": "bool",
          "name": "",
          "type": "bool"
        }
      ],
      "stateMutability": "view",
      "type": "function"
    },
    {
      "inputs": [],
      "name": "author",
      "outputs": [
        {
          "internalType": "address",
          "name": "",
          "type": "address"
        }
      ],
      "stateMutability": "view",
      "type": "function"
    },
    {
      "inputs": [],
      "name": "claimContractBrick",
      "outputs": [
        {
          "internalType": "bool",
          "name": "",
          "type": "bool"
        }
      ],
      "stateMutability": "view",
      "type": "function"
    },
    {
      "inputs": [],
      "name": "owner",
      "outputs": [
        {
          "internalType": "address",
          "name": "",
          "type": "address"
        }
      ],
      "stateMutability": "view",
      "type": "function"
    },
    {
      "inputs": [],
      "name": "paperUri",
      "outputs": [
        {
          "internalType": "address",
          "name": "",
          "type": "address"
        }
      ],
      "stateMutability": "view",
      "type": "function"
    },
    {
      "inputs": [],
      "name": "renounceOwnership",
      "outputs": [],
      "stateMutability": "nonpayable",
      "type": "function"
    },
    {
      "inputs": [
        {
          "internalType": "address",
          "name": "",
          "type": "address"
        }
      ],
      "name": "reviewers",
      "outputs": [
        {
          "internalType": "bool",
          "name": "",
          "type": "bool"
        }
      ],
      "stateMutability": "view",
      "type": "function"
    },
    {
      "inputs": [
        {
          "internalType": "address",
          "name": "",
          "type": "address"
        }
      ],
      "name": "reviewersVoting",
      "outputs": [
        {
          "internalType": "bool",
          "name": "",
          "type": "bool"
        }
      ],
      "stateMutability": "view",
      "type": "function"
    },
    {
      "inputs": [],
      "name": "totalVotes",
      "outputs": [
        {
          "internalType": "uint256",
          "name": "",
          "type": "uint256"
        }
      ],
      "stateMutability": "view",
      "type": "function"
    },
    {
      "inputs": [
        {
          "internalType": "address",
          "name": "newOwner",
          "type": "address"
        }
      ],
      "name": "transferOwnership",
      "outputs": [],
      "stateMutability": "nonpayable",
      "type": "function"
    },
    {
      "inputs": [
        {
          "internalType": "bool",
          "name": "vote",
          "type": "bool"
        }
      ],
      "name": "commitVote",
      "outputs": [],
      "stateMutability": "nonpayable",
      "type": "function"
    },
    {
      "inputs": [],
      "name": "closeContract",
      "outputs": [],
      "stateMutability": "nonpayable",
      "type": "function"
    },
    {
      "inputs": [],
      "name": "checkVotingStatus",
      "outputs": [
        {
          "internalType": "uint256",
          "name": "_totalVotes",
          "type": "uint256"
        },
        {
          "internalType": "uint256",
          "name": "_approvalCounts",
          "type": "uint256"
        },
        {
          "internalType": "bool",
          "name": "_contractIsClosed",
          "type": "bool"
        }
      ],
      "stateMutability": "view",
      "type": "function"
    },
    {
      "inputs": [],
      "name": "isContractClaimable",
      "outputs": [
        {
          "internalType": "bool",
          "name": "",
          "type": "bool"
        }
      ],
      "stateMutability": "view",
      "type": "function"
    }
  ],
  "bytecode": "0x60806040523480156200001157600080fd5b5060405162001478380380620014788339818101604052810190620000379190620004b2565b620000576200004b620001dc60201b60201c565b620001e460201b60201c565b6200006884620002a860201b60201c565b82600160006101000a81548173ffffffffffffffffffffffffffffffffffffffff021916908373ffffffffffffffffffffffffffffffffffffffff16021790555081600260006101000a81548173ffffffffffffffffffffffffffffffffffffffff021916908373ffffffffffffffffffffffffffffffffffffffff1602179055506000600760006101000a81548160ff0219169083151502179055506000600681905550805160058190555060005b8151811015620001d15760016003600084848151811062000162577f4e487b7100000000000000000000000000000000000000000000000000000000600052603260045260246000fd5b602002602001015173ffffffffffffffffffffffffffffffffffffffff1673ffffffffffffffffffffffffffffffffffffffff16815260200190815260200160002060006101000a81548160ff0219169083151502179055508080620001c890620006a6565b91505062000118565b5050505050620007f5565b600033905090565b60008060009054906101000a900473ffffffffffffffffffffffffffffffffffffffff169050816000806101000a81548173ffffffffffffffffffffffffffffffffffffffff021916908373ffffffffffffffffffffffffffffffffffffffff1602179055508173ffffffffffffffffffffffffffffffffffffffff168173ffffffffffffffffffffffffffffffffffffffff167f8be0079c531659141344cd1fd0a4f28419497f9722a3daafe3b4186f6b6457e060405160405180910390a35050565b620002b86200033f60201b60201c565b600073ffffffffffffffffffffffffffffffffffffffff168173ffffffffffffffffffffffffffffffffffffffff1614156200032b576040517f08c379a0000000000000000000000000000000000000000000000000000000008152600401620003229062000585565b60405180910390fd5b6200033c81620001e460201b60201c565b50565b6200034f620001dc60201b60201c565b73ffffffffffffffffffffffffffffffffffffffff1662000375620003d060201b60201c565b73ffffffffffffffffffffffffffffffffffffffff1614620003ce576040517f08c379a0000000000000000000000000000000000000000000000000000000008152600401620003c590620005a7565b60405180910390fd5b565b60008060009054906101000a900473ffffffffffffffffffffffffffffffffffffffff16905090565b6000620004106200040a84620005f2565b620005c9565b905080838252602082019050828560208602820111156200043057600080fd5b60005b858110156200046457816200044988826200046e565b84526020840193506020830192505060018101905062000433565b5050509392505050565b6000815190506200047f81620007db565b92915050565b600082601f8301126200049757600080fd5b8151620004a9848260208601620003f9565b91505092915050565b60008060008060808587031215620004c957600080fd5b6000620004d9878288016200046e565b9450506020620004ec878288016200046e565b9350506040620004ff878288016200046e565b925050606085015167ffffffffffffffff8111156200051d57600080fd5b6200052b8782880162000485565b91505092959194509250565b60006200054660268362000621565b9150620005538262000763565b604082019050919050565b60006200056d60208362000621565b91506200057a82620007b2565b602082019050919050565b60006020820190508181036000830152620005a08162000537565b9050919050565b60006020820190508181036000830152620005c2816200055e565b9050919050565b6000620005d5620005e8565b9050620005e3828262000670565b919050565b6000604051905090565b600067ffffffffffffffff82111562000610576200060f62000723565b5b602082029050602081019050919050565b600082825260208201905092915050565b60006200063f8262000646565b9050919050565b600073ffffffffffffffffffffffffffffffffffffffff82169050919050565b6000819050919050565b6200067b8262000752565b810181811067ffffffffffffffff821117156200069d576200069c62000723565b5b80604052505050565b6000620006b38262000666565b91507fffffffffffffffffffffffffffffffffffffffffffffffffffffffffffffffff821415620006e957620006e8620006f4565b5b600182019050919050565b7f4e487b7100000000000000000000000000000000000000000000000000000000600052601160045260246000fd5b7f4e487b7100000000000000000000000000000000000000000000000000000000600052604160045260246000fd5b6000601f19601f8301169050919050565b7f4f776e61626c653a206e6577206f776e657220697320746865207a65726f206160008201527f6464726573730000000000000000000000000000000000000000000000000000602082015250565b7f4f776e61626c653a2063616c6c6572206973206e6f7420746865206f776e6572600082015250565b620007e68162000632565b8114620007f257600080fd5b50565b610c7380620008056000396000f3fe608060405234801561001057600080fd5b50600436106100f55760003560e01c8063715018a6116100975780639107c15b116100665780639107c15b1461022e578063a6c3e6b91461024c578063f2fde38b1461026a578063f7cbb1b214610286576100f5565b8063715018a6146101cc57806389f4bf09146101d65780638da5cb5b146101f257806390da146214610210576100f5565b806312c56989116100d357806312c569891461015457806322ab3af914610174578063610be654146101a45780636145ca02146101ae576100f5565b806302fb0632146100fa5780630c107357146101185780630d15fd7714610136575b600080fd5b6101026102b6565b60405161010f919061098f565b60405180910390f35b6101206102bc565b60405161012d91906108d9565b60405180910390f35b61013e6102e2565b60405161014b919061098f565b60405180910390f35b61015c6102e8565b60405161016b939291906109aa565b60405180910390f35b61018e600480360381019061018991906107ce565b61030e565b60405161019b91906108f4565b60405180910390f35b6101ac61032e565b005b6101b66103a3565b6040516101c391906108f4565b60405180910390f35b6101d46103b6565b005b6101f060048036038101906101eb91906107f7565b6103ca565b005b6101fa610522565b60405161020791906108d9565b60405180910390f35b61021861054b565b60405161022591906108f4565b60405180910390f35b61023661055e565b60405161024391906108f4565b60405180910390f35b610254610590565b60405161026191906108d9565b60405180910390f35b610284600480360381019061027f91906107ce565b6105b6565b005b6102a0600480360381019061029b91906107ce565b61063a565b6040516102ad91906108f4565b60405180910390f35b60065481565b600260009054906101000a900473ffffffffffffffffffffffffffffffffffffffff1681565b60055481565b6000806000600554600654600760009054906101000a900460ff16925092509250909192565b60046020528060005260406000206000915054906101000a900460ff1681565b61033661065a565b600760009054906101000a900460ff1615610386576040517f08c379a000000000000000000000000000000000000000000000000000000000815260040161037d9061094f565b60405180910390fd5b6001600760006101000a81548160ff021916908315150217905550565b600760019054906101000a900460ff1681565b6103be61065a565b6103c860006106d8565b565b600760009054906101000a900460ff161561041a576040517f08c379a00000000000000000000000000000000000000000000000000000000081526004016104119061094f565b60405180910390fd5b600360003373ffffffffffffffffffffffffffffffffffffffff1673ffffffffffffffffffffffffffffffffffffffff16815260200190815260200160002060009054906101000a900460ff166104a6576040517f08c379a000000000000000000000000000000000000000000000000000000000815260040161049d9061092f565b60405180910390fd5b6000600360003373ffffffffffffffffffffffffffffffffffffffff1673ffffffffffffffffffffffffffffffffffffffff16815260200190815260200160002060006101000a81548160ff021916908315150217905550801561051f5760016006600082825461051791906109f2565b925050819055505b50565b60008060009054906101000a900473ffffffffffffffffffffffffffffffffffffffff16905090565b600760029054906101000a900460ff1681565b6000600760009054906101000a900460ff16801561058b575060026005546105869190610a48565b600654115b905090565b600160009054906101000a900473ffffffffffffffffffffffffffffffffffffffff1681565b6105be61065a565b600073ffffffffffffffffffffffffffffffffffffffff168173ffffffffffffffffffffffffffffffffffffffff16141561062e576040517f08c379a00000000000000000000000000000000000000000000000000000000081526004016106259061090f565b60405180910390fd5b610637816106d8565b50565b60036020528060005260406000206000915054906101000a900460ff1681565b61066261079c565b73ffffffffffffffffffffffffffffffffffffffff16610680610522565b73ffffffffffffffffffffffffffffffffffffffff16146106d6576040517f08c379a00000000000000000000000000000000000000000000000000000000081526004016106cd9061096f565b60405180910390fd5b565b60008060009054906101000a900473ffffffffffffffffffffffffffffffffffffffff169050816000806101000a81548173ffffffffffffffffffffffffffffffffffffffff021916908373ffffffffffffffffffffffffffffffffffffffff1602179055508173ffffffffffffffffffffffffffffffffffffffff168173ffffffffffffffffffffffffffffffffffffffff167f8be0079c531659141344cd1fd0a4f28419497f9722a3daafe3b4186f6b6457e060405160405180910390a35050565b600033905090565b6000813590506107b381610c0f565b92915050565b6000813590506107c881610c26565b92915050565b6000602082840312156107e057600080fd5b60006107ee848285016107a4565b91505092915050565b60006020828403121561080957600080fd5b6000610817848285016107b9565b91505092915050565b61082981610a79565b82525050565b61083881610a8b565b82525050565b600061084b6026836109e1565b915061085682610b1f565b604082019050919050565b600061086e6022836109e1565b915061087982610b6e565b604082019050919050565b60006108916018836109e1565b915061089c82610bbd565b602082019050919050565b60006108b46020836109e1565b91506108bf82610be6565b602082019050919050565b6108d381610ab7565b82525050565b60006020820190506108ee6000830184610820565b92915050565b6000602082019050610909600083018461082f565b92915050565b600060208201905081810360008301526109288161083e565b9050919050565b6000602082019050818103600083015261094881610861565b9050919050565b6000602082019050818103600083015261096881610884565b9050919050565b60006020820190508181036000830152610988816108a7565b9050919050565b60006020820190506109a460008301846108ca565b92915050565b60006060820190506109bf60008301866108ca565b6109cc60208301856108ca565b6109d9604083018461082f565b949350505050565b600082825260208201905092915050565b60006109fd82610ab7565b9150610a0883610ab7565b9250827fffffffffffffffffffffffffffffffffffffffffffffffffffffffffffffffff03821115610a3d57610a3c610ac1565b5b828201905092915050565b6000610a5382610ab7565b9150610a5e83610ab7565b925082610a6e57610a6d610af0565b5b828204905092915050565b6000610a8482610a97565b9050919050565b60008115159050919050565b600073ffffffffffffffffffffffffffffffffffffffff82169050919050565b6000819050919050565b7f4e487b7100000000000000000000000000000000000000000000000000000000600052601160045260246000fd5b7f4e487b7100000000000000000000000000000000000000000000000000000000600052601260045260246000fd5b7f4f776e61626c653a206e6577206f776e657220697320746865207a65726f206160008201527f6464726573730000000000000000000000000000000000000000000000000000602082015250565b7f596f7520646f206e6f7420686176652074686520726967687420746f20766f7460008201527f6521000000000000000000000000000000000000000000000000000000000000602082015250565b7f636f6e747261637420616c726561647920636c6f736564210000000000000000600082015250565b7f4f776e61626c653a2063616c6c6572206973206e6f7420746865206f776e6572600082015250565b610c1881610a79565b8114610c2357600080fd5b50565b610c2f81610a8b565b8114610c3a57600080fd5b5056fea264697066735822122078d9fa64ceb22643b275000e81bee2f4d673405ff648501ccd3b68e197f5d0ed64736f6c63430008010033",
  "immutableReferences": {},
  "source": "// contracts/ScholarCoin.sol\r\n// SPDX-License-Identifier: MIT\r\npragma solidity ^0.8.1;\r\n\r\nimport \"@openzeppelin/contracts/token/ERC1155/ERC1155.sol\";\r\nimport \"@openzeppelin/contracts/access/Ownable.sol\";\r\n\r\ncontract PaperApprovalContract is Ownable{\r\n    address public author;\r\n    address public paperUri;\r\n    mapping (address => bool) public reviewers;\r\n    mapping (address => bool) public reviewersVoting;\r\n    uint public totalVotes;\r\n    uint public approvalCounts;\r\n    bool private contractIsClosed;\r\n    bool public approvalStatus;\r\n    bool public claimContractBrick;\r\n\r\n    constructor(address contractOwner, address _author, address _paperUri, address[] memory _reviewers) public {\r\n        transferOwnership(contractOwner);\r\n        author = _author;\r\n        paperUri = _paperUri;\r\n        contractIsClosed = false;\r\n        approvalCounts = 0;\r\n        totalVotes = _reviewers.length;\r\n        for (uint i = 0; i < _reviewers.length; i++){\r\n            reviewers[_reviewers[i]] = true;\r\n        }\r\n\r\n    }\r\n\r\n    function commitVote(bool vote) public{\r\n        require(!contractIsClosed, \"contract already closed!\");\r\n        require(reviewers[msg.sender], \"You do not have the right to vote!\");\r\n        reviewers[msg.sender] = false;\r\n        if (vote){\r\n            approvalCounts += 1;\r\n        }\r\n    }\r\n\r\n    function closeContract() public onlyOwner{\r\n        require(!contractIsClosed, \"contract already closed!\");\r\n        contractIsClosed = true;\r\n    }\r\n\r\n    function checkVotingStatus() public view returns(uint _totalVotes, uint _approvalCounts, bool _contractIsClosed){\r\n        return(totalVotes, approvalCounts, contractIsClosed);\r\n    }\r\n\r\n    function isContractClaimable() public view returns(bool){\r\n        return contractIsClosed && (approvalCounts > (totalVotes / 2));\r\n    }\r\n\r\n}\r\n\r\ncontract ScholarDaoContract is ERC1155, Ownable {\r\n    mapping (uint256 => string) private _uris;\r\n    uint256 public constant SCHOLAR_BRICK = 0;\r\n    uint256 public constant SCHOLAR_SAND = 1;\r\n\r\n    mapping (address => bool) public scholarAddresses;\r\n\r\n    //a mapping of scholar and their papper \r\n    mapping (address => mapping(address => ScholarPaper)) public scholarPaperMap;\r\n\r\n    struct ScholarPaper {\r\n        PaperApprovalContract paperContract;\r\n        mapping(address => bool) scholarSandClaimable;\r\n        bool scholarBrickClaimed;\r\n    }\r\n\r\n    constructor() public ERC1155(\"\") {\r\n        // set up assets\r\n        _uris[SCHOLAR_BRICK] = \"SCHOLA_BRICK\";\r\n        _uris[SCHOLAR_SAND] = \"SCHOLA_SAND\";\r\n\r\n    }\r\n\r\n    function uri(uint256 tokenId) override public view returns (string memory){\r\n        //find out tokenId represents in this contract\r\n        return(_uris[tokenId]);\r\n    }\r\n\r\n    function setTokenUri(uint256 _tokenId, string memory _uri) public onlyOwner {\r\n        _uris[_tokenId] = _uri;\r\n    }\r\n\r\n    function mint(address recipient, uint256 tokenId, uint256 amount) public onlyOwner {\r\n        _mint(recipient, tokenId, amount, \"\");\r\n    }\r\n\r\n    function approveNewScholar(address recipient) public onlyOwner {\r\n        // add new scholar to address list, but they are not yet a dao member\r\n        scholarAddresses[recipient] = true;\r\n    }\r\n\r\n    function initReviewContract(address author, address paperUri, address[] memory _reviewers) public onlyOwner returns(address contractAddress){\r\n        scholarPaperMap[author][paperUri].paperContract =  new PaperApprovalContract(msg.sender, author, paperUri, _reviewers);\r\n        scholarPaperMap[author][paperUri].scholarBrickClaimed = false;\r\n        return address(scholarPaperMap[author][paperUri].paperContract);\r\n    }\r\n\r\n    function mintScholarBrick(address recipient, address paperUri) public {\r\n        require(address(scholarPaperMap[recipient][paperUri].paperContract) != address(0x0), \"Recipient must own this paper\");\r\n        require(scholarPaperMap[recipient][paperUri].paperContract.isContractClaimable(), \"Paper contract cannot be claimed!\");\r\n        require(msg.sender == recipient || msg.sender == owner(), \"Only the author or the owner can claim this contract!\");\r\n        require(!scholarPaperMap[recipient][paperUri].scholarBrickClaimed, \"Scholar brick was claimed!\");\r\n        _mint(recipient, SCHOLAR_BRICK, 1, \"\");\r\n        scholarPaperMap[recipient][paperUri].scholarBrickClaimed = true;\r\n    }\r\n\r\n    function addPaperRefferenceAddresses(address author, address paperUri, address[] memory referenceScholarAddresses) public onlyOwner{\r\n        for(uint i = 0; i < referenceScholarAddresses.length; i ++){\r\n            scholarPaperMap[author][paperUri].scholarSandClaimable[referenceScholarAddresses[i]] = true;\r\n        }\r\n    }\r\n\r\n    function mintScholarSand(address recipient, address author, address paperUri) public{\r\n        require(address(scholarPaperMap[author][paperUri].paperContract) != address(0x0), \"Paper must exists\");\r\n        require(scholarPaperMap[author][paperUri].scholarSandClaimable[recipient], \"Recipient is unable to claim with this paper\");\r\n        _mint(recipient, SCHOLAR_SAND, 5, \"\");\r\n        scholarPaperMap[author][paperUri].scholarSandClaimable[recipient] = false;\r\n\r\n    }\r\n\r\n    function convertSandToBrick(address recipient, uint amount) public{\r\n        // convert every 1 thousand sand from msg.sender into 1 brick to recipient\r\n        require(balanceOf(msg.sender, SCHOLAR_SAND) >= amount, \"Sender must have enough sand amount\");\r\n        uint convertNum = amount / 1000;\r\n        _burn(msg.sender, SCHOLAR_SAND, convertNum * 1000);\r\n        _mint(recipient, SCHOLAR_BRICK, convertNum, \"\");\r\n    }\r\n\r\n\r\n} \r\n",
  "sourcePath": "C:/DevSpot/JueXueDAO/contract/contracts/ScholarDaoContract.sol",
  "compiler": {
    "name": "solc",
    "version": "0.8.1+commit.df193b15.Emscripten.clang"
  },
  "schemaVersion": "3.3.4",
  "updatedAt": "2022-09-09T13:55:13.614Z",
  "devdoc": {
    "kind": "dev",
    "methods": {
      "owner()": {
        "details": "Returns the address of the current owner."
      },
      "renounceOwnership()": {
        "details": "Leaves the contract without owner. It will not be possible to call `onlyOwner` functions anymore. Can only be called by the current owner. NOTE: Renouncing ownership will leave the contract without an owner, thereby removing any functionality that is only available to the owner."
      },
      "transferOwnership(address)": {
        "details": "Transfers ownership of the contract to a new account (`newOwner`). Can only be called by the current owner."
      }
    },
    "version": 1
  },
  "userdoc": {
    "kind": "user",
    "methods": {},
    "version": 1
  }
}