{
  "contractName": "ScholarDaoContract",
  "abi": [
    {
      "inputs": [],
      "stateMutability": "nonpayable",
      "type": "constructor"
    },
    {
      "anonymous": false,
      "inputs": [
        {
          "indexed": true,
          "internalType": "address",
          "name": "account",
          "type": "address"
        },
        {
          "indexed": true,
          "internalType": "address",
          "name": "operator",
          "type": "address"
        },
        {
          "indexed": false,
          "internalType": "bool",
          "name": "approved",
          "type": "bool"
        }
      ],
      "name": "ApprovalForAll",
      "type": "event"
    },
    {
      "anonymous": false,
      "inputs": [
        {
          "indexed": true,
          "internalType": "address",
          "name": "previousOwner",
          "type": "address"
        },
        {
          "indexed": true,
          "internalType": "address",
          "name": "newOwner",
          "type": "address"
        }
      ],
      "name": "OwnershipTransferred",
      "type": "event"
    },
    {
      "anonymous": false,
      "inputs": [
        {
          "indexed": true,
          "internalType": "address",
          "name": "operator",
          "type": "address"
        },
        {
          "indexed": true,
          "internalType": "address",
          "name": "from",
          "type": "address"
        },
        {
          "indexed": true,
          "internalType": "address",
          "name": "to",
          "type": "address"
        },
        {
          "indexed": false,
          "internalType": "uint256[]",
          "name": "ids",
          "type": "uint256[]"
        },
        {
          "indexed": false,
          "internalType": "uint256[]",
          "name": "values",
          "type": "uint256[]"
        }
      ],
      "name": "TransferBatch",
      "type": "event"
    },
    {
      "anonymous": false,
      "inputs": [
        {
          "indexed": true,
          "internalType": "address",
          "name": "operator",
          "type": "address"
        },
        {
          "indexed": true,
          "internalType": "address",
          "name": "from",
          "type": "address"
        },
        {
          "indexed": true,
          "internalType": "address",
          "name": "to",
          "type": "address"
        },
        {
          "indexed": false,
          "internalType": "uint256",
          "name": "id",
          "type": "uint256"
        },
        {
          "indexed": false,
          "internalType": "uint256",
          "name": "value",
          "type": "uint256"
        }
      ],
      "name": "TransferSingle",
      "type": "event"
    },
    {
      "anonymous": false,
      "inputs": [
        {
          "indexed": false,
          "internalType": "string",
          "name": "value",
          "type": "string"
        },
        {
          "indexed": true,
          "internalType": "uint256",
          "name": "id",
          "type": "uint256"
        }
      ],
      "name": "URI",
      "type": "event"
    },
    {
      "inputs": [],
      "name": "SCHOLA_BRICK",
      "outputs": [
        {
          "internalType": "uint256",
          "name": "",
          "type": "uint256"
        }
      ],
      "stateMutability": "view",
      "type": "function"
    },
    {
      "inputs": [],
      "name": "SCHOLA_SAND",
      "outputs": [
        {
          "internalType": "uint256",
          "name": "",
          "type": "uint256"
        }
      ],
      "stateMutability": "view",
      "type": "function"
    },
    {
      "inputs": [
        {
          "internalType": "address",
          "name": "account",
          "type": "address"
        },
        {
          "internalType": "uint256",
          "name": "id",
          "type": "uint256"
        }
      ],
      "name": "balanceOf",
      "outputs": [
        {
          "internalType": "uint256",
          "name": "",
          "type": "uint256"
        }
      ],
      "stateMutability": "view",
      "type": "function"
    },
    {
      "inputs": [
        {
          "internalType": "address[]",
          "name": "accounts",
          "type": "address[]"
        },
        {
          "internalType": "uint256[]",
          "name": "ids",
          "type": "uint256[]"
        }
      ],
      "name": "balanceOfBatch",
      "outputs": [
        {
          "internalType": "uint256[]",
          "name": "",
          "type": "uint256[]"
        }
      ],
      "stateMutability": "view",
      "type": "function"
    },
    {
      "inputs": [
        {
          "internalType": "address",
          "name": "account",
          "type": "address"
        },
        {
          "internalType": "address",
          "name": "operator",
          "type": "address"
        }
      ],
      "name": "isApprovedForAll",
      "outputs": [
        {
          "internalType": "bool",
          "name": "",
          "type": "bool"
        }
      ],
      "stateMutability": "view",
      "type": "function"
    },
    {
      "inputs": [],
      "name": "owner",
      "outputs": [
        {
          "internalType": "address",
          "name": "",
          "type": "address"
        }
      ],
      "stateMutability": "view",
      "type": "function"
    },
    {
      "inputs": [],
      "name": "renounceOwnership",
      "outputs": [],
      "stateMutability": "nonpayable",
      "type": "function"
    },
    {
      "inputs": [
        {
          "internalType": "address",
          "name": "from",
          "type": "address"
        },
        {
          "internalType": "address",
          "name": "to",
          "type": "address"
        },
        {
          "internalType": "uint256[]",
          "name": "ids",
          "type": "uint256[]"
        },
        {
          "internalType": "uint256[]",
          "name": "amounts",
          "type": "uint256[]"
        },
        {
          "internalType": "bytes",
          "name": "data",
          "type": "bytes"
        }
      ],
      "name": "safeBatchTransferFrom",
      "outputs": [],
      "stateMutability": "nonpayable",
      "type": "function"
    },
    {
      "inputs": [
        {
          "internalType": "address",
          "name": "from",
          "type": "address"
        },
        {
          "internalType": "address",
          "name": "to",
          "type": "address"
        },
        {
          "internalType": "uint256",
          "name": "id",
          "type": "uint256"
        },
        {
          "internalType": "uint256",
          "name": "amount",
          "type": "uint256"
        },
        {
          "internalType": "bytes",
          "name": "data",
          "type": "bytes"
        }
      ],
      "name": "safeTransferFrom",
      "outputs": [],
      "stateMutability": "nonpayable",
      "type": "function"
    },
    {
      "inputs": [
        {
          "internalType": "address",
          "name": "",
          "type": "address"
        }
      ],
      "name": "scholarAddresses",
      "outputs": [
        {
          "internalType": "bool",
          "name": "",
          "type": "bool"
        }
      ],
      "stateMutability": "view",
      "type": "function"
    },
    {
      "inputs": [
        {
          "internalType": "address",
          "name": "",
          "type": "address"
        },
        {
          "internalType": "address",
          "name": "",
          "type": "address"
        }
      ],
      "name": "scholarPaperMap",
      "outputs": [
        {
          "internalType": "contract PaperApprovalContract",
          "name": "paperContract",
          "type": "address"
        },
        {
          "internalType": "bool",
          "name": "scholarBrickClaimed",
          "type": "bool"
        }
      ],
      "stateMutability": "view",
      "type": "function"
    },
    {
      "inputs": [
        {
          "internalType": "address",
          "name": "operator",
          "type": "address"
        },
        {
          "internalType": "bool",
          "name": "approved",
          "type": "bool"
        }
      ],
      "name": "setApprovalForAll",
      "outputs": [],
      "stateMutability": "nonpayable",
      "type": "function"
    },
    {
      "inputs": [
        {
          "internalType": "bytes4",
          "name": "interfaceId",
          "type": "bytes4"
        }
      ],
      "name": "supportsInterface",
      "outputs": [
        {
          "internalType": "bool",
          "name": "",
          "type": "bool"
        }
      ],
      "stateMutability": "view",
      "type": "function"
    },
    {
      "inputs": [
        {
          "internalType": "address",
          "name": "newOwner",
          "type": "address"
        }
      ],
      "name": "transferOwnership",
      "outputs": [],
      "stateMutability": "nonpayable",
      "type": "function"
    },
    {
      "inputs": [
        {
          "internalType": "uint256",
          "name": "tokenId",
          "type": "uint256"
        }
      ],
      "name": "uri",
      "outputs": [
        {
          "internalType": "string",
          "name": "",
          "type": "string"
        }
      ],
      "stateMutability": "view",
      "type": "function"
    },
    {
      "inputs": [
        {
          "internalType": "uint256",
          "name": "_tokenId",
          "type": "uint256"
        },
        {
          "internalType": "string",
          "name": "_uri",
          "type": "string"
        }
      ],
      "name": "setTokenUri",
      "outputs": [],
      "stateMutability": "nonpayable",
      "type": "function"
    },
    {
      "inputs": [
        {
          "internalType": "address",
          "name": "recipient",
          "type": "address"
        },
        {
          "internalType": "uint256",
          "name": "tokenId",
          "type": "uint256"
        },
        {
          "internalType": "uint256",
          "name": "amount",
          "type": "uint256"
        }
      ],
      "name": "mint",
      "outputs": [],
      "stateMutability": "nonpayable",
      "type": "function"
    },
    {
      "inputs": [
        {
          "internalType": "address",
          "name": "recipient",
          "type": "address"
        }
      ],
      "name": "approveNewScholar",
      "outputs": [],
      "stateMutability": "nonpayable",
      "type": "function"
    },
    {
      "inputs": [
        {
          "internalType": "address",
          "name": "author",
          "type": "address"
        },
        {
          "internalType": "address",
          "name": "paperUri",
          "type": "address"
        },
        {
          "internalType": "address[]",
          "name": "_reviewers",
          "type": "address[]"
        }
      ],
      "name": "initReviewContract",
      "outputs": [
        {
          "internalType": "address",
          "name": "contractAddress",
          "type": "address"
        }
      ],
      "stateMutability": "nonpayable",
      "type": "function"
    },
    {
      "inputs": [
        {
          "internalType": "address",
          "name": "recipient",
          "type": "address"
        },
        {
          "internalType": "address",
          "name": "paperUri",
          "type": "address"
        }
      ],
      "name": "mintScholarBrick",
      "outputs": [],
      "stateMutability": "nonpayable",
      "type": "function"
    },
    {
      "inputs": [
        {
          "internalType": "address",
          "name": "author",
          "type": "address"
        },
        {
          "internalType": "address",
          "name": "paperUri",
          "type": "address"
        },
        {
          "internalType": "address[]",
          "name": "referenceScholarAddresses",
          "type": "address[]"
        }
      ],
      "name": "addPaperRefferenceAddresses",
      "outputs": [],
      "stateMutability": "nonpayable",
      "type": "function"
    },
    {
      "inputs": [
        {
          "internalType": "address",
          "name": "recipient",
          "type": "address"
        },
        {
          "internalType": "address",
          "name": "author",
          "type": "address"
        },
        {
          "internalType": "address",
          "name": "paperUri",
          "type": "address"
        }
      ],
      "name": "mintScholarSand",
      "outputs": [],
      "stateMutability": "nonpayable",
      "type": "function"
    }
  ],
  "bytecode": "0x60806040523480156200001157600080fd5b506040518060200160405280600081525062000033816200011960201b60201c565b5062000054620000486200013560201b60201c565b6200013d60201b60201c565b6040518060400160405280600c81526020017f5343484f4c415f425249434b0000000000000000000000000000000000000000815250600460008081526020019081526020016000209080519060200190620000b292919062000203565b506040518060400160405280600b81526020017f5343484f4c415f53414e44000000000000000000000000000000000000000000815250600460006001815260200190815260200160002090805190602001906200011292919062000203565b5062000318565b80600290805190602001906200013192919062000203565b5050565b600033905090565b6000600360009054906101000a900473ffffffffffffffffffffffffffffffffffffffff16905081600360006101000a81548173ffffffffffffffffffffffffffffffffffffffff021916908373ffffffffffffffffffffffffffffffffffffffff1602179055508173ffffffffffffffffffffffffffffffffffffffff168173ffffffffffffffffffffffffffffffffffffffff167f8be0079c531659141344cd1fd0a4f28419497f9722a3daafe3b4186f6b6457e060405160405180910390a35050565b8280546200021190620002b3565b90600052602060002090601f01602090048101928262000235576000855562000281565b82601f106200025057805160ff191683800117855562000281565b8280016001018555821562000281579182015b828111156200028057825182559160200191906001019062000263565b5b50905062000290919062000294565b5090565b5b80821115620002af57600081600090555060010162000295565b5090565b60006002820490506001821680620002cc57607f821691505b60208210811415620002e357620002e2620002e9565b5b50919050565b7f4e487b7100000000000000000000000000000000000000000000000000000000600052602260045260246000fd5b61595880620003286000396000f3fe60806040523480156200001157600080fd5b50600436106200015f5760003560e01c8063715018a611620000c9578063c145f2421162000087578063c145f24214620003ef578063d6161603146200040f578063e985e9c5146200042f578063f242432a1462000465578063f2fde38b1462000485578063f4b9ea8e14620004a5576200015f565b8063715018a6146200034a5780637340df991462000356578063778eb148146200038d5780638da5cb5b14620003ad578063a22cb46514620003cf576200015f565b80632eb2c2d611620001235780632eb2c2d6146200025c5780634a826e18146200027c5780634bedeebb146200029e5780634e1273f414620002d457806357f7789e146200030a5780635f0a42d1146200032a576200015f565b8062fdd58e146200016457806301ffc9a7146200019a5780630e89341c14620001d0578063156e29f61462000206578063239f2fa11462000226575b600080fd5b6200018260048036038101906200017c919062002fac565b620004c7565b60405162000191919062003f06565b60405180910390f35b620001b86004803603810190620001b29190620030e2565b62000593565b604051620001c7919062003c34565b60405180910390f35b620001ee6004803603810190620001e891906200313a565b62000679565b604051620001fd919062003c7e565b60405180910390f35b6200022460048036038101906200021e919062002fed565b62000726565b005b6200024460048036038101906200023e919062002cd1565b620007cb565b60405162000253919062003c34565b60405180910390f35b6200027a600480360381019062000274919062002e03565b620007eb565b005b6200028662000898565b60405162000295919062003f06565b60405180910390f35b620002bc6004803603810190620002b6919062002d94565b6200089d565b604051620002cb919062003a8e565b60405180910390f35b620002f26004803603810190620002ec919062003043565b62000b5f565b60405162000301919062003bd5565b60405180910390f35b62000328600480360381019062000322919062003166565b62000d1e565b005b62000348600480360381019062000342919062002d3e565b62000dcf565b005b62000354620010ed565b005b6200037460048036038101906200036e919062002cfd565b6200117e565b6040516200038492919062003c51565b60405180910390f35b620003ab6004803603810190620003a5919062002cfd565b620011dc565b005b620003b762001525565b604051620003c6919062003a8e565b60405180910390f35b620003ed6004803603810190620003e7919062002f6b565b6200154f565b005b6200040d600480360381019062000407919062002d94565b620016db565b005b6200042d600480360381019062000427919062002cd1565b6200189d565b005b6200044d600480360381019062000447919062002cfd565b6200197b565b6040516200045c919062003c34565b60405180910390f35b6200048360048036038101906200047d919062002ed0565b62001a0f565b005b620004a360048036038101906200049d919062002cd1565b62001abc565b005b620004af62001bc0565b604051620004be919062003f06565b60405180910390f35b60008073ffffffffffffffffffffffffffffffffffffffff168373ffffffffffffffffffffffffffffffffffffffff1614156200053b576040517f08c379a0000000000000000000000000000000000000000000000000000000008152600401620005329062003ce6565b60405180910390fd5b60008083815260200190815260200160002060008473ffffffffffffffffffffffffffffffffffffffff1673ffffffffffffffffffffffffffffffffffffffff16815260200190815260200160002054905092915050565b60007fd9b67a26000000000000000000000000000000000000000000000000000000007bffffffffffffffffffffffffffffffffffffffffffffffffffffffff1916827bffffffffffffffffffffffffffffffffffffffffffffffffffffffff191614806200065f57507f0e89341c000000000000000000000000000000000000000000000000000000007bffffffffffffffffffffffffffffffffffffffffffffffffffffffff1916827bffffffffffffffffffffffffffffffffffffffffffffffffffffffff1916145b80620006725750620006718262001bc5565b5b9050919050565b60606004600083815260200190815260200160002080546200069b9062004232565b80601f0160208091040260200160405190810160405280929190818152602001828054620006c99062004232565b80156200071a5780601f10620006ee576101008083540402835291602001916200071a565b820191906000526020600020905b815481529060010190602001808311620006fc57829003601f168201915b50505050509050919050565b6200073062001c2f565b73ffffffffffffffffffffffffffffffffffffffff166200075062001525565b73ffffffffffffffffffffffffffffffffffffffff1614620007a9576040517f08c379a0000000000000000000000000000000000000000000000000000000008152600401620007a09062003e18565b60405180910390fd5b620007c68383836040518060200160405280600081525062001c37565b505050565b60066020528060005260406000206000915054906101000a900460ff1681565b620007f562001c2f565b73ffffffffffffffffffffffffffffffffffffffff168573ffffffffffffffffffffffffffffffffffffffff1614806200084057506200083f856200083962001c2f565b6200197b565b5b62000882576040517f08c379a0000000000000000000000000000000000000000000000000000000008152600401620008799062003d90565b60405180910390fd5b62000891858585858562001dde565b5050505050565b600081565b6000620008a962001c2f565b73ffffffffffffffffffffffffffffffffffffffff16620008c962001525565b73ffffffffffffffffffffffffffffffffffffffff161462000922576040517f08c379a0000000000000000000000000000000000000000000000000000000008152600401620009199062003e18565b60405180910390fd5b33848484604051620009349062002961565b62000943949392919062003aab565b604051809103906000f08015801562000960573d6000803e3d6000fd5b50600760008673ffffffffffffffffffffffffffffffffffffffff1673ffffffffffffffffffffffffffffffffffffffff16815260200190815260200160002060008573ffffffffffffffffffffffffffffffffffffffff1673ffffffffffffffffffffffffffffffffffffffff16815260200190815260200160002060000160006101000a81548173ffffffffffffffffffffffffffffffffffffffff021916908373ffffffffffffffffffffffffffffffffffffffff1602179055506000600760008673ffffffffffffffffffffffffffffffffffffffff1673ffffffffffffffffffffffffffffffffffffffff16815260200190815260200160002060008573ffffffffffffffffffffffffffffffffffffffff1673ffffffffffffffffffffffffffffffffffffffff16815260200190815260200160002060020160006101000a81548160ff021916908315150217905550600760008573ffffffffffffffffffffffffffffffffffffffff1673ffffffffffffffffffffffffffffffffffffffff16815260200190815260200160002060008473ffffffffffffffffffffffffffffffffffffffff1673ffffffffffffffffffffffffffffffffffffffff16815260200190815260200160002060000160009054906101000a900473ffffffffffffffffffffffffffffffffffffffff1690509392505050565b6060815183511462000ba8576040517f08c379a000000000000000000000000000000000000000000000000000000000815260040162000b9f9062003ea0565b60405180910390fd5b6000835167ffffffffffffffff81111562000bec577f4e487b7100000000000000000000000000000000000000000000000000000000600052604160045260246000fd5b60405190808252806020026020018201604052801562000c1b5781602001602082028036833780820191505090505b50905060005b845181101562000d135762000cb985828151811062000c69577f4e487b7100000000000000000000000000000000000000000000000000000000600052603260045260246000fd5b602002602001015185838151811062000cab577f4e487b7100000000000000000000000000000000000000000000000000000000600052603260045260246000fd5b6020026020010151620004c7565b82828151811062000cf3577f4e487b7100000000000000000000000000000000000000000000000000000000600052603260045260246000fd5b6020026020010181815250508062000d0b9062004268565b905062000c21565b508091505092915050565b62000d2862001c2f565b73ffffffffffffffffffffffffffffffffffffffff1662000d4862001525565b73ffffffffffffffffffffffffffffffffffffffff161462000da1576040517f08c379a000000000000000000000000000000000000000000000000000000000815260040162000d989062003e18565b60405180910390fd5b8060046000848152602001908152602001600020908051906020019062000dca9291906200296f565b505050565b600073ffffffffffffffffffffffffffffffffffffffff16600760008573ffffffffffffffffffffffffffffffffffffffff1673ffffffffffffffffffffffffffffffffffffffff16815260200190815260200160002060008373ffffffffffffffffffffffffffffffffffffffff1673ffffffffffffffffffffffffffffffffffffffff16815260200190815260200160002060000160009054906101000a900473ffffffffffffffffffffffffffffffffffffffff1673ffffffffffffffffffffffffffffffffffffffff16141562000ee1576040517f08c379a000000000000000000000000000000000000000000000000000000000815260040162000ed89062003df6565b60405180910390fd5b60001515600760008473ffffffffffffffffffffffffffffffffffffffff1673ffffffffffffffffffffffffffffffffffffffff16815260200190815260200160002060008373ffffffffffffffffffffffffffffffffffffffff1673ffffffffffffffffffffffffffffffffffffffff16815260200190815260200160002060010160008573ffffffffffffffffffffffffffffffffffffffff1673ffffffffffffffffffffffffffffffffffffffff16815260200190815260200160002060009054906101000a900460ff1615151462000ff4576040517f08c379a000000000000000000000000000000000000000000000000000000000815260040162000feb9062003d4c565b60405180910390fd5b6200101383600160056040518060200160405280600081525062001c37565b6001600760008473ffffffffffffffffffffffffffffffffffffffff1673ffffffffffffffffffffffffffffffffffffffff16815260200190815260200160002060008373ffffffffffffffffffffffffffffffffffffffff1673ffffffffffffffffffffffffffffffffffffffff16815260200190815260200160002060010160008573ffffffffffffffffffffffffffffffffffffffff1673ffffffffffffffffffffffffffffffffffffffff16815260200190815260200160002060006101000a81548160ff021916908315150217905550505050565b620010f762001c2f565b73ffffffffffffffffffffffffffffffffffffffff166200111762001525565b73ffffffffffffffffffffffffffffffffffffffff161462001170576040517f08c379a0000000000000000000000000000000000000000000000000000000008152600401620011679062003e18565b60405180910390fd5b6200117c600062002157565b565b6007602052816000526040600020602052806000526040600020600091509150508060000160009054906101000a900473ffffffffffffffffffffffffffffffffffffffff16908060020160009054906101000a900460ff16905082565b600073ffffffffffffffffffffffffffffffffffffffff16600760008473ffffffffffffffffffffffffffffffffffffffff1673ffffffffffffffffffffffffffffffffffffffff16815260200190815260200160002060008373ffffffffffffffffffffffffffffffffffffffff1673ffffffffffffffffffffffffffffffffffffffff16815260200190815260200160002060000160009054906101000a900473ffffffffffffffffffffffffffffffffffffffff1673ffffffffffffffffffffffffffffffffffffffff161415620012ee576040517f08c379a0000000000000000000000000000000000000000000000000000000008152600401620012e59062003db2565b60405180910390fd5b600760008373ffffffffffffffffffffffffffffffffffffffff1673ffffffffffffffffffffffffffffffffffffffff16815260200190815260200160002060008273ffffffffffffffffffffffffffffffffffffffff1673ffffffffffffffffffffffffffffffffffffffff16815260200190815260200160002060000160009054906101000a900473ffffffffffffffffffffffffffffffffffffffff1673ffffffffffffffffffffffffffffffffffffffff16639107c15b6040518163ffffffff1660e01b815260040160206040518083038186803b158015620013d457600080fd5b505afa158015620013e9573d6000803e3d6000fd5b505050506040513d601f19601f820116820180604052508101906200140f9190620030b6565b62001451576040517f08c379a0000000000000000000000000000000000000000000000000000000008152600401620014489062003e3a565b60405180910390fd5b8173ffffffffffffffffffffffffffffffffffffffff163373ffffffffffffffffffffffffffffffffffffffff161480620014c057506200149162001525565b73ffffffffffffffffffffffffffffffffffffffff163373ffffffffffffffffffffffffffffffffffffffff16145b62001502576040517f08c379a0000000000000000000000000000000000000000000000000000000008152600401620014f99062003e5c565b60405180910390fd5b6200152182600060016040518060200160405280600081525062001c37565b5050565b6000600360009054906101000a900473ffffffffffffffffffffffffffffffffffffffff16905090565b8173ffffffffffffffffffffffffffffffffffffffff166200157062001c2f565b73ffffffffffffffffffffffffffffffffffffffff161415620015ca576040517f08c379a0000000000000000000000000000000000000000000000000000000008152600401620015c19062003e7e565b60405180910390fd5b8060016000620015d962001c2f565b73ffffffffffffffffffffffffffffffffffffffff1673ffffffffffffffffffffffffffffffffffffffff16815260200190815260200160002060008473ffffffffffffffffffffffffffffffffffffffff1673ffffffffffffffffffffffffffffffffffffffff16815260200190815260200160002060006101000a81548160ff0219169083151502179055508173ffffffffffffffffffffffffffffffffffffffff166200168862001c2f565b73ffffffffffffffffffffffffffffffffffffffff167f17307eab39ab6107e8899845ad3d59bd9653f200f220920489ca2b5937696c3183604051620016cf919062003c34565b60405180910390a35050565b620016e562001c2f565b73ffffffffffffffffffffffffffffffffffffffff166200170562001525565b73ffffffffffffffffffffffffffffffffffffffff16146200175e576040517f08c379a0000000000000000000000000000000000000000000000000000000008152600401620017559062003e18565b60405180910390fd5b60005b815181101562001897576000600760008673ffffffffffffffffffffffffffffffffffffffff1673ffffffffffffffffffffffffffffffffffffffff16815260200190815260200160002060008573ffffffffffffffffffffffffffffffffffffffff1673ffffffffffffffffffffffffffffffffffffffff168152602001908152602001600020600101600084848151811062001828577f4e487b7100000000000000000000000000000000000000000000000000000000600052603260045260246000fd5b602002602001015173ffffffffffffffffffffffffffffffffffffffff1673ffffffffffffffffffffffffffffffffffffffff16815260200190815260200160002060006101000a81548160ff02191690831515021790555080806200188e9062004268565b91505062001761565b50505050565b620018a762001c2f565b73ffffffffffffffffffffffffffffffffffffffff16620018c762001525565b73ffffffffffffffffffffffffffffffffffffffff161462001920576040517f08c379a0000000000000000000000000000000000000000000000000000000008152600401620019179062003e18565b60405180910390fd5b6001600660008373ffffffffffffffffffffffffffffffffffffffff1673ffffffffffffffffffffffffffffffffffffffff16815260200190815260200160002060006101000a81548160ff02191690831515021790555050565b6000600160008473ffffffffffffffffffffffffffffffffffffffff1673ffffffffffffffffffffffffffffffffffffffff16815260200190815260200160002060008373ffffffffffffffffffffffffffffffffffffffff1673ffffffffffffffffffffffffffffffffffffffff16815260200190815260200160002060009054906101000a900460ff16905092915050565b62001a1962001c2f565b73ffffffffffffffffffffffffffffffffffffffff168573ffffffffffffffffffffffffffffffffffffffff16148062001a64575062001a638562001a5d62001c2f565b6200197b565b5b62001aa6576040517f08c379a000000000000000000000000000000000000000000000000000000000815260040162001a9d9062003d2a565b60405180910390fd5b62001ab585858585856200221d565b5050505050565b62001ac662001c2f565b73ffffffffffffffffffffffffffffffffffffffff1662001ae662001525565b73ffffffffffffffffffffffffffffffffffffffff161462001b3f576040517f08c379a000000000000000000000000000000000000000000000000000000000815260040162001b369062003e18565b60405180910390fd5b600073ffffffffffffffffffffffffffffffffffffffff168173ffffffffffffffffffffffffffffffffffffffff16141562001bb2576040517f08c379a000000000000000000000000000000000000000000000000000000000815260040162001ba99062003d08565b60405180910390fd5b62001bbd8162002157565b50565b600181565b60007f01ffc9a7000000000000000000000000000000000000000000000000000000007bffffffffffffffffffffffffffffffffffffffffffffffffffffffff1916827bffffffffffffffffffffffffffffffffffffffffffffffffffffffff1916149050919050565b600033905090565b600073ffffffffffffffffffffffffffffffffffffffff168473ffffffffffffffffffffffffffffffffffffffff16141562001caa576040517f08c379a000000000000000000000000000000000000000000000000000000000815260040162001ca19062003ee4565b60405180910390fd5b600062001cb662001c2f565b905062001cdd8160008762001ccb88620024b3565b62001cd688620024b3565b876200257c565b8260008086815260200190815260200160002060008773ffffffffffffffffffffffffffffffffffffffff1673ffffffffffffffffffffffffffffffffffffffff168152602001908152602001600020600082825462001d3e9190620040f2565b925050819055508473ffffffffffffffffffffffffffffffffffffffff16600073ffffffffffffffffffffffffffffffffffffffff168273ffffffffffffffffffffffffffffffffffffffff167fc3d58168c5ae7397731d063d5bbf3d657854427343f4c083240f7aacaa2d0f62878760405162001dbe92919062003f23565b60405180910390a462001dd78160008787878762002584565b5050505050565b815183511462001e25576040517f08c379a000000000000000000000000000000000000000000000000000000000815260040162001e1c9062003ec2565b60405180910390fd5b600073ffffffffffffffffffffffffffffffffffffffff168473ffffffffffffffffffffffffffffffffffffffff16141562001e98576040517f08c379a000000000000000000000000000000000000000000000000000000000815260040162001e8f9062003d6e565b60405180910390fd5b600062001ea462001c2f565b905062001eb68187878787876200257c565b60005b8451811015620020be57600085828151811062001eff577f4e487b7100000000000000000000000000000000000000000000000000000000600052603260045260246000fd5b60200260200101519050600085838151811062001f45577f4e487b7100000000000000000000000000000000000000000000000000000000600052603260045260246000fd5b60200260200101519050600080600084815260200190815260200160002060008b73ffffffffffffffffffffffffffffffffffffffff1673ffffffffffffffffffffffffffffffffffffffff1681526020019081526020016000205490508181101562001fe9576040517f08c379a000000000000000000000000000000000000000000000000000000000815260040162001fe09062003dd4565b60405180910390fd5b81810360008085815260200190815260200160002060008c73ffffffffffffffffffffffffffffffffffffffff1673ffffffffffffffffffffffffffffffffffffffff168152602001908152602001600020819055508160008085815260200190815260200160002060008b73ffffffffffffffffffffffffffffffffffffffff1673ffffffffffffffffffffffffffffffffffffffff1681526020019081526020016000206000828254620020a09190620040f2565b9250508190555050505080620020b69062004268565b905062001eb9565b508473ffffffffffffffffffffffffffffffffffffffff168673ffffffffffffffffffffffffffffffffffffffff168273ffffffffffffffffffffffffffffffffffffffff167f4a39dc06d4c0dbc64b70af90fd698a233a518aa5d07e595d983b8c0526c8f7fb87876040516200213792919062003bf9565b60405180910390a46200214f81878787878762002769565b505050505050565b6000600360009054906101000a900473ffffffffffffffffffffffffffffffffffffffff16905081600360006101000a81548173ffffffffffffffffffffffffffffffffffffffff021916908373ffffffffffffffffffffffffffffffffffffffff1602179055508173ffffffffffffffffffffffffffffffffffffffff168173ffffffffffffffffffffffffffffffffffffffff167f8be0079c531659141344cd1fd0a4f28419497f9722a3daafe3b4186f6b6457e060405160405180910390a35050565b600073ffffffffffffffffffffffffffffffffffffffff168473ffffffffffffffffffffffffffffffffffffffff16141562002290576040517f08c379a0000000000000000000000000000000000000000000000000000000008152600401620022879062003d6e565b60405180910390fd5b60006200229c62001c2f565b9050620022c2818787620022b088620024b3565b620022bb88620024b3565b876200257c565b600080600086815260200190815260200160002060008873ffffffffffffffffffffffffffffffffffffffff1673ffffffffffffffffffffffffffffffffffffffff168152602001908152602001600020549050838110156200235c576040517f08c379a0000000000000000000000000000000000000000000000000000000008152600401620023539062003dd4565b60405180910390fd5b83810360008087815260200190815260200160002060008973ffffffffffffffffffffffffffffffffffffffff1673ffffffffffffffffffffffffffffffffffffffff168152602001908152602001600020819055508360008087815260200190815260200160002060008873ffffffffffffffffffffffffffffffffffffffff1673ffffffffffffffffffffffffffffffffffffffff1681526020019081526020016000206000828254620024139190620040f2565b925050819055508573ffffffffffffffffffffffffffffffffffffffff168773ffffffffffffffffffffffffffffffffffffffff168373ffffffffffffffffffffffffffffffffffffffff167fc3d58168c5ae7397731d063d5bbf3d657854427343f4c083240f7aacaa2d0f6288886040516200249292919062003f23565b60405180910390a4620024aa82888888888862002584565b50505050505050565b60606000600167ffffffffffffffff811115620024f9577f4e487b7100000000000000000000000000000000000000000000000000000000600052604160045260246000fd5b604051908082528060200260200182016040528015620025285781602001602082028036833780820191505090505b509050828160008151811062002567577f4e487b7100000000000000000000000000000000000000000000000000000000600052603260045260246000fd5b60200260200101818152505080915050919050565b505050505050565b620025a58473ffffffffffffffffffffffffffffffffffffffff166200294e565b1562002761578373ffffffffffffffffffffffffffffffffffffffff1663f23a6e6187878686866040518663ffffffff1660e01b8152600401620025ee95949392919062003b71565b602060405180830381600087803b1580156200260957600080fd5b505af19250505080156200263d57506040513d601f19601f820116820180604052508101906200263a91906200310e565b60015b620026d5576200264c62004361565b8062002659575062002698565b806040517f08c379a00000000000000000000000000000000000000000000000000000000081526004016200268f919062003c7e565b60405180910390fd5b6040517f08c379a0000000000000000000000000000000000000000000000000000000008152600401620026cc9062003ca2565b60405180910390fd5b63f23a6e6160e01b7bffffffffffffffffffffffffffffffffffffffffffffffffffffffff1916817bffffffffffffffffffffffffffffffffffffffffffffffffffffffff1916146200275f576040517f08c379a0000000000000000000000000000000000000000000000000000000008152600401620027569062003cc4565b60405180910390fd5b505b505050505050565b6200278a8473ffffffffffffffffffffffffffffffffffffffff166200294e565b1562002946578373ffffffffffffffffffffffffffffffffffffffff1663bc197c8187878686866040518663ffffffff1660e01b8152600401620027d395949392919062003aff565b602060405180830381600087803b158015620027ee57600080fd5b505af19250505080156200282257506040513d601f19601f820116820180604052508101906200281f91906200310e565b60015b620028ba576200283162004361565b806200283e57506200287d565b806040517f08c379a000000000000000000000000000000000000000000000000000000000815260040162002874919062003c7e565b60405180910390fd5b6040517f08c379a0000000000000000000000000000000000000000000000000000000008152600401620028b19062003ca2565b60405180910390fd5b63bc197c8160e01b7bffffffffffffffffffffffffffffffffffffffffffffffffffffffff1916817bffffffffffffffffffffffffffffffffffffffffffffffffffffffff19161462002944576040517f08c379a00000000000000000000000000000000000000000000000000000000081526004016200293b9062003cc4565b60405180910390fd5b505b505050505050565b600080823b905060008111915050919050565b611495806200448e83390190565b8280546200297d9062004232565b90600052602060002090601f016020900481019282620029a15760008555620029ed565b82601f10620029bc57805160ff1916838001178555620029ed565b82800160010185558215620029ed579182015b82811115620029ec578251825591602001919060010190620029cf565b5b509050620029fc919062002a00565b5090565b5b8082111562002a1b57600081600090555060010162002a01565b5090565b600062002a3662002a308462003f84565b62003f50565b9050808382526020820190508285602086028201111562002a5657600080fd5b60005b8581101562002a8a578162002a6f888262002b93565b84526020840193506020830192505060018101905062002a59565b5050509392505050565b600062002aab62002aa58462003fb3565b62003f50565b9050808382526020820190508285602086028201111562002acb57600080fd5b60005b8581101562002aff578162002ae4888262002cba565b84526020840193506020830192505060018101905062002ace565b5050509392505050565b600062002b2062002b1a8462003fe2565b62003f50565b90508281526020810184848401111562002b3957600080fd5b62002b46848285620041ed565b509392505050565b600062002b6562002b5f8462004015565b62003f50565b90508281526020810184848401111562002b7e57600080fd5b62002b8b848285620041ed565b509392505050565b60008135905062002ba48162004425565b92915050565b600082601f83011262002bbc57600080fd5b813562002bce84826020860162002a1f565b91505092915050565b600082601f83011262002be957600080fd5b813562002bfb84826020860162002a94565b91505092915050565b60008135905062002c15816200443f565b92915050565b60008151905062002c2c816200443f565b92915050565b60008135905062002c438162004459565b92915050565b60008151905062002c5a8162004459565b92915050565b600082601f83011262002c7257600080fd5b813562002c8484826020860162002b09565b91505092915050565b600082601f83011262002c9f57600080fd5b813562002cb184826020860162002b4e565b91505092915050565b60008135905062002ccb8162004473565b92915050565b60006020828403121562002ce457600080fd5b600062002cf48482850162002b93565b91505092915050565b6000806040838503121562002d1157600080fd5b600062002d218582860162002b93565b925050602062002d348582860162002b93565b9150509250929050565b60008060006060848603121562002d5457600080fd5b600062002d648682870162002b93565b935050602062002d778682870162002b93565b925050604062002d8a8682870162002b93565b9150509250925092565b60008060006060848603121562002daa57600080fd5b600062002dba8682870162002b93565b935050602062002dcd8682870162002b93565b925050604084013567ffffffffffffffff81111562002deb57600080fd5b62002df98682870162002baa565b9150509250925092565b600080600080600060a0868803121562002e1c57600080fd5b600062002e2c8882890162002b93565b955050602062002e3f8882890162002b93565b945050604086013567ffffffffffffffff81111562002e5d57600080fd5b62002e6b8882890162002bd7565b935050606086013567ffffffffffffffff81111562002e8957600080fd5b62002e978882890162002bd7565b925050608086013567ffffffffffffffff81111562002eb557600080fd5b62002ec38882890162002c60565b9150509295509295909350565b600080600080600060a0868803121562002ee957600080fd5b600062002ef98882890162002b93565b955050602062002f0c8882890162002b93565b945050604062002f1f8882890162002cba565b935050606062002f328882890162002cba565b925050608086013567ffffffffffffffff81111562002f5057600080fd5b62002f5e8882890162002c60565b9150509295509295909350565b6000806040838503121562002f7f57600080fd5b600062002f8f8582860162002b93565b925050602062002fa28582860162002c04565b9150509250929050565b6000806040838503121562002fc057600080fd5b600062002fd08582860162002b93565b925050602062002fe38582860162002cba565b9150509250929050565b6000806000606084860312156200300357600080fd5b6000620030138682870162002b93565b9350506020620030268682870162002cba565b9250506040620030398682870162002cba565b9150509250925092565b600080604083850312156200305757600080fd5b600083013567ffffffffffffffff8111156200307257600080fd5b620030808582860162002baa565b925050602083013567ffffffffffffffff8111156200309e57600080fd5b620030ac8582860162002bd7565b9150509250929050565b600060208284031215620030c957600080fd5b6000620030d98482850162002c1b565b91505092915050565b600060208284031215620030f557600080fd5b6000620031058482850162002c32565b91505092915050565b6000602082840312156200312157600080fd5b6000620031318482850162002c49565b91505092915050565b6000602082840312156200314d57600080fd5b60006200315d8482850162002cba565b91505092915050565b600080604083850312156200317a57600080fd5b60006200318a8582860162002cba565b925050602083013567ffffffffffffffff811115620031a857600080fd5b620031b68582860162002c8d565b9150509250929050565b6000620031ce8383620031f4565b60208301905092915050565b6000620031e8838362003a6c565b60208301905092915050565b620031ff816200414f565b82525050565b62003210816200414f565b82525050565b6000620032238262004068565b6200322f8185620040ae565b93506200323c8362004048565b8060005b8381101562003273578151620032578882620031c0565b9750620032648362004094565b92505060018101905062003240565b5085935050505092915050565b60006200328d8262004073565b620032998185620040bf565b9350620032a68362004058565b8060005b83811015620032dd578151620032c18882620031da565b9750620032ce83620040a1565b925050600181019050620032aa565b5085935050505092915050565b620032f58162004163565b82525050565b600062003308826200407e565b620033148185620040d0565b935062003326818560208601620041fc565b620033318162004343565b840191505092915050565b6200334781620041c5565b82525050565b60006200335a8262004089565b620033668185620040e1565b935062003378818560208601620041fc565b620033838162004343565b840191505092915050565b60006200339d603483620040e1565b91507f455243313135353a207472616e7366657220746f206e6f6e204552433131353560008301527f526563656976657220696d706c656d656e7465720000000000000000000000006020830152604082019050919050565b600062003405602883620040e1565b91507f455243313135353a204552433131353552656365697665722072656a6563746560008301527f6420746f6b656e730000000000000000000000000000000000000000000000006020830152604082019050919050565b60006200346d602b83620040e1565b91507f455243313135353a2062616c616e636520717565727920666f7220746865207a60008301527f65726f20616464726573730000000000000000000000000000000000000000006020830152604082019050919050565b6000620034d5602683620040e1565b91507f4f776e61626c653a206e6577206f776e657220697320746865207a65726f206160008301527f64647265737300000000000000000000000000000000000000000000000000006020830152604082019050919050565b60006200353d602983620040e1565b91507f455243313135353a2063616c6c6572206973206e6f74206f776e6572206e6f7260008301527f20617070726f76656400000000000000000000000000000000000000000000006020830152604082019050919050565b6000620035a5602c83620040e1565b91507f726563697069656e7420697320756e61626c6520746f20636c61696d2077697460008301527f68207468697320706170657200000000000000000000000000000000000000006020830152604082019050919050565b60006200360d602583620040e1565b91507f455243313135353a207472616e7366657220746f20746865207a65726f20616460008301527f64726573730000000000000000000000000000000000000000000000000000006020830152604082019050919050565b600062003675603283620040e1565b91507f455243313135353a207472616e736665722063616c6c6572206973206e6f742060008301527f6f776e6572206e6f7220617070726f76656400000000000000000000000000006020830152604082019050919050565b6000620036dd601d83620040e1565b91507f526563697069656e74206d757374206f776e20746869732070617065720000006000830152602082019050919050565b60006200371f602a83620040e1565b91507f455243313135353a20696e73756666696369656e742062616c616e636520666f60008301527f72207472616e73666572000000000000000000000000000000000000000000006020830152604082019050919050565b600062003787601c83620040e1565b91507f726563697069656e74206d7573742062652061207363686f6c617221000000006000830152602082019050919050565b6000620037c9602083620040e1565b91507f4f776e61626c653a2063616c6c6572206973206e6f7420746865206f776e65726000830152602082019050919050565b60006200380b602183620040e1565b91507f506170657220636f6e74726163742063616e6e6f7420626520636c61696d656460008301527f21000000000000000000000000000000000000000000000000000000000000006020830152604082019050919050565b600062003873603583620040e1565b91507f4f6e6c792074686520617574686f72206f7220746865206f776e65722063616e60008301527f20636c61696d207468697320636f6e74726163742100000000000000000000006020830152604082019050919050565b6000620038db602983620040e1565b91507f455243313135353a2073657474696e6720617070726f76616c2073746174757360008301527f20666f722073656c6600000000000000000000000000000000000000000000006020830152604082019050919050565b600062003943602983620040e1565b91507f455243313135353a206163636f756e747320616e6420696473206c656e67746860008301527f206d69736d6174636800000000000000000000000000000000000000000000006020830152604082019050919050565b6000620039ab602883620040e1565b91507f455243313135353a2069647320616e6420616d6f756e7473206c656e6774682060008301527f6d69736d617463680000000000000000000000000000000000000000000000006020830152604082019050919050565b600062003a13602183620040e1565b91507f455243313135353a206d696e7420746f20746865207a65726f2061646472657360008301527f73000000000000000000000000000000000000000000000000000000000000006020830152604082019050919050565b62003a7781620041bb565b82525050565b62003a8881620041bb565b82525050565b600060208201905062003aa5600083018462003205565b92915050565b600060808201905062003ac2600083018762003205565b62003ad1602083018662003205565b62003ae0604083018562003205565b818103606083015262003af4818462003216565b905095945050505050565b600060a08201905062003b16600083018862003205565b62003b25602083018762003205565b818103604083015262003b39818662003280565b9050818103606083015262003b4f818562003280565b9050818103608083015262003b658184620032fb565b90509695505050505050565b600060a08201905062003b88600083018862003205565b62003b97602083018762003205565b62003ba6604083018662003a7d565b62003bb5606083018562003a7d565b818103608083015262003bc98184620032fb565b90509695505050505050565b6000602082019050818103600083015262003bf1818462003280565b905092915050565b6000604082019050818103600083015262003c15818562003280565b9050818103602083015262003c2b818462003280565b90509392505050565b600060208201905062003c4b6000830184620032ea565b92915050565b600060408201905062003c6860008301856200333c565b62003c776020830184620032ea565b9392505050565b6000602082019050818103600083015262003c9a81846200334d565b905092915050565b6000602082019050818103600083015262003cbd816200338e565b9050919050565b6000602082019050818103600083015262003cdf81620033f6565b9050919050565b6000602082019050818103600083015262003d01816200345e565b9050919050565b6000602082019050818103600083015262003d2381620034c6565b9050919050565b6000602082019050818103600083015262003d45816200352e565b9050919050565b6000602082019050818103600083015262003d678162003596565b9050919050565b6000602082019050818103600083015262003d8981620035fe565b9050919050565b6000602082019050818103600083015262003dab8162003666565b9050919050565b6000602082019050818103600083015262003dcd81620036ce565b9050919050565b6000602082019050818103600083015262003def8162003710565b9050919050565b6000602082019050818103600083015262003e118162003778565b9050919050565b6000602082019050818103600083015262003e3381620037ba565b9050919050565b6000602082019050818103600083015262003e5581620037fc565b9050919050565b6000602082019050818103600083015262003e778162003864565b9050919050565b6000602082019050818103600083015262003e9981620038cc565b9050919050565b6000602082019050818103600083015262003ebb8162003934565b9050919050565b6000602082019050818103600083015262003edd816200399c565b9050919050565b6000602082019050818103600083015262003eff8162003a04565b9050919050565b600060208201905062003f1d600083018462003a7d565b92915050565b600060408201905062003f3a600083018562003a7d565b62003f49602083018462003a7d565b9392505050565b6000604051905081810181811067ffffffffffffffff8211171562003f7a5762003f7962004314565b5b8060405250919050565b600067ffffffffffffffff82111562003fa25762003fa162004314565b5b602082029050602081019050919050565b600067ffffffffffffffff82111562003fd15762003fd062004314565b5b602082029050602081019050919050565b600067ffffffffffffffff821115620040005762003fff62004314565b5b601f19601f8301169050602081019050919050565b600067ffffffffffffffff82111562004033576200403262004314565b5b601f19601f8301169050602081019050919050565b6000819050602082019050919050565b6000819050602082019050919050565b600081519050919050565b600081519050919050565b600081519050919050565b600081519050919050565b6000602082019050919050565b6000602082019050919050565b600082825260208201905092915050565b600082825260208201905092915050565b600082825260208201905092915050565b600082825260208201905092915050565b6000620040ff82620041bb565b91506200410c83620041bb565b9250827fffffffffffffffffffffffffffffffffffffffffffffffffffffffffffffffff03821115620041445762004143620042b6565b5b828201905092915050565b60006200415c826200419b565b9050919050565b60008115159050919050565b60007fffffffff0000000000000000000000000000000000000000000000000000000082169050919050565b600073ffffffffffffffffffffffffffffffffffffffff82169050919050565b6000819050919050565b6000620041d282620041d9565b9050919050565b6000620041e6826200419b565b9050919050565b82818337600083830152505050565b60005b838110156200421c578082015181840152602081019050620041ff565b838111156200422c576000848401525b50505050565b600060028204905060018216806200424b57607f821691505b60208210811415620042625762004261620042e5565b5b50919050565b60006200427582620041bb565b91507fffffffffffffffffffffffffffffffffffffffffffffffffffffffffffffffff821415620042ab57620042aa620042b6565b5b600182019050919050565b7f4e487b7100000000000000000000000000000000000000000000000000000000600052601160045260246000fd5b7f4e487b7100000000000000000000000000000000000000000000000000000000600052602260045260246000fd5b7f4e487b7100000000000000000000000000000000000000000000000000000000600052604160045260246000fd5b6000601f19601f8301169050919050565b60008160e01c9050919050565b600060443d1015620043735762004422565b60046000803e6200438660005162004354565b6308c379a0811462004399575062004422565b60405160043d036004823e80513d602482011167ffffffffffffffff82111715620043c75750505062004422565b808201805167ffffffffffffffff811115620043e857505050505062004422565b8060208301013d8501811115620044055750505050505062004422565b620044108262004343565b60208401016040528296505050505050505b90565b62004430816200414f565b81146200443c57600080fd5b50565b6200444a8162004163565b81146200445657600080fd5b50565b62004464816200416f565b81146200447057600080fd5b50565b6200447e81620041bb565b81146200448a57600080fd5b5056fe60806040523480156200001157600080fd5b5060405162001495380380620014958339818101604052810190620000379190620004a0565b620000576200004b620001dc60201b60201c565b620001e460201b60201c565b6200006884620002a860201b60201c565b82600160006101000a81548173ffffffffffffffffffffffffffffffffffffffff021916908373ffffffffffffffffffffffffffffffffffffffff16021790555081600260006101000a81548173ffffffffffffffffffffffffffffffffffffffff021916908373ffffffffffffffffffffffffffffffffffffffff1602179055506000600760006101000a81548160ff0219169083151502179055506000600681905550805160058190555060005b8151811015620001d15760016003600084848151811062000162577f4e487b7100000000000000000000000000000000000000000000000000000000600052603260045260246000fd5b602002602001015173ffffffffffffffffffffffffffffffffffffffff1673ffffffffffffffffffffffffffffffffffffffff16815260200190815260200160002060006101000a81548160ff0219169083151502179055508080620001c890620006c5565b91505062000118565b50505050506200078b565b600033905090565b60008060009054906101000a900473ffffffffffffffffffffffffffffffffffffffff169050816000806101000a81548173ffffffffffffffffffffffffffffffffffffffff021916908373ffffffffffffffffffffffffffffffffffffffff1602179055508173ffffffffffffffffffffffffffffffffffffffff168173ffffffffffffffffffffffffffffffffffffffff167f8be0079c531659141344cd1fd0a4f28419497f9722a3daafe3b4186f6b6457e060405160405180910390a35050565b620002b8620001dc60201b60201c565b73ffffffffffffffffffffffffffffffffffffffff16620002de620003be60201b60201c565b73ffffffffffffffffffffffffffffffffffffffff161462000337576040517f08c379a00000000000000000000000000000000000000000000000000000000081526004016200032e90620005f1565b60405180910390fd5b600073ffffffffffffffffffffffffffffffffffffffff168173ffffffffffffffffffffffffffffffffffffffff161415620003aa576040517f08c379a0000000000000000000000000000000000000000000000000000000008152600401620003a190620005cf565b60405180910390fd5b620003bb81620001e460201b60201c565b50565b60008060009054906101000a900473ffffffffffffffffffffffffffffffffffffffff16905090565b6000620003fe620003f88462000647565b62000613565b905080838252602082019050828560208602820111156200041e57600080fd5b60005b858110156200045257816200043788826200045c565b84526020840193506020830192505060018101905062000421565b5050509392505050565b6000815190506200046d8162000771565b92915050565b600082601f8301126200048557600080fd5b815162000497848260208601620003e7565b91505092915050565b60008060008060808587031215620004b757600080fd5b6000620004c7878288016200045c565b9450506020620004da878288016200045c565b9350506040620004ed878288016200045c565b925050606085015167ffffffffffffffff8111156200050b57600080fd5b620005198782880162000473565b91505092959194509250565b60006200053460268362000676565b91507f4f776e61626c653a206e6577206f776e657220697320746865207a65726f206160008301527f64647265737300000000000000000000000000000000000000000000000000006020830152604082019050919050565b60006200059c60208362000676565b91507f4f776e61626c653a2063616c6c6572206973206e6f7420746865206f776e65726000830152602082019050919050565b60006020820190508181036000830152620005ea8162000525565b9050919050565b600060208201905081810360008301526200060c816200058d565b9050919050565b6000604051905081810181811067ffffffffffffffff821117156200063d576200063c62000742565b5b8060405250919050565b600067ffffffffffffffff82111562000665576200066462000742565b5b602082029050602081019050919050565b600082825260208201905092915050565b600062000694826200069b565b9050919050565b600073ffffffffffffffffffffffffffffffffffffffff82169050919050565b6000819050919050565b6000620006d282620006bb565b91507fffffffffffffffffffffffffffffffffffffffffffffffffffffffffffffffff82141562000708576200070762000713565b5b600182019050919050565b7f4e487b7100000000000000000000000000000000000000000000000000000000600052601160045260246000fd5b7f4e487b7100000000000000000000000000000000000000000000000000000000600052604160045260246000fd5b6200077c8162000687565b81146200078857600080fd5b50565b610cfa806200079b6000396000f3fe608060405234801561001057600080fd5b50600436106100f55760003560e01c8063669d98b2116100975780639107c15b116100665780639107c15b1461022e578063a6c3e6b91461024c578063f2fde38b1461026a578063f7cbb1b214610286576100f5565b8063669d98b2146101cc578063715018a6146101e85780638da5cb5b146101f257806390da146214610210576100f5565b806312c56989116100d357806312c569891461015457806322ab3af914610174578063610be654146101a45780636145ca02146101ae576100f5565b806302fb0632146100fa5780630c107357146101185780630d15fd7714610136575b600080fd5b6101026102b6565b60405161010f9190610b06565b60405180910390f35b6101206102bc565b60405161012d9190610a50565b60405180910390f35b61013e6102e2565b60405161014b9190610b06565b60405180910390f35b61015c6102e8565b60405161016b93929190610b21565b60405180910390f35b61018e600480360381019061018991906108ab565b61030e565b60405161019b9190610a6b565b60405180910390f35b6101ac61032e565b005b6101b6610417565b6040516101c39190610a6b565b60405180910390f35b6101e660048036038101906101e191906108d4565b61042a565b005b6101f0610581565b005b6101fa610609565b6040516102079190610a50565b60405180910390f35b610218610632565b6040516102259190610a6b565b60405180910390f35b610236610645565b6040516102439190610a6b565b60405180910390f35b610254610677565b6040516102619190610a50565b60405180910390f35b610284600480360381019061027f91906108ab565b61069d565b005b6102a0600480360381019061029b91906108ab565b610795565b6040516102ad9190610a6b565b60405180910390f35b60065481565b600260009054906101000a900473ffffffffffffffffffffffffffffffffffffffff1681565b60055481565b6000806000600554600654600760009054906101000a900460ff16925092509250909192565b60046020528060005260406000206000915054906101000a900460ff1681565b6103366107b5565b73ffffffffffffffffffffffffffffffffffffffff16610354610609565b73ffffffffffffffffffffffffffffffffffffffff16146103aa576040517f08c379a00000000000000000000000000000000000000000000000000000000081526004016103a190610ae6565b60405180910390fd5b600760009054906101000a900460ff16156103fa576040517f08c379a00000000000000000000000000000000000000000000000000000000081526004016103f190610ac6565b60405180910390fd5b6001600760006101000a81548160ff021916908315150217905550565b600760019054906101000a900460ff1681565b600760009054906101000a900460ff161561047a576040517f08c379a000000000000000000000000000000000000000000000000000000000815260040161047190610ac6565b60405180910390fd5b600360003373ffffffffffffffffffffffffffffffffffffffff1673ffffffffffffffffffffffffffffffffffffffff16815260200190815260200160002060009054906101000a900460ff16610506576040517f08c379a00000000000000000000000000000000000000000000000000000000081526004016104fd90610aa6565b60405180910390fd5b80600360003373ffffffffffffffffffffffffffffffffffffffff1673ffffffffffffffffffffffffffffffffffffffff16815260200190815260200160002060006101000a81548160ff021916908315150217905550801561057e576001600660008282546105769190610b69565b925050819055505b50565b6105896107b5565b73ffffffffffffffffffffffffffffffffffffffff166105a7610609565b73ffffffffffffffffffffffffffffffffffffffff16146105fd576040517f08c379a00000000000000000000000000000000000000000000000000000000081526004016105f490610ae6565b60405180910390fd5b61060760006107bd565b565b60008060009054906101000a900473ffffffffffffffffffffffffffffffffffffffff16905090565b600760029054906101000a900460ff1681565b6000600760009054906101000a900460ff1680156106725750600260055461066d9190610bbf565b600654115b905090565b600160009054906101000a900473ffffffffffffffffffffffffffffffffffffffff1681565b6106a56107b5565b73ffffffffffffffffffffffffffffffffffffffff166106c3610609565b73ffffffffffffffffffffffffffffffffffffffff1614610719576040517f08c379a000000000000000000000000000000000000000000000000000000000815260040161071090610ae6565b60405180910390fd5b600073ffffffffffffffffffffffffffffffffffffffff168173ffffffffffffffffffffffffffffffffffffffff161415610789576040517f08c379a000000000000000000000000000000000000000000000000000000000815260040161078090610a86565b60405180910390fd5b610792816107bd565b50565b60036020528060005260406000206000915054906101000a900460ff1681565b600033905090565b60008060009054906101000a900473ffffffffffffffffffffffffffffffffffffffff169050816000806101000a81548173ffffffffffffffffffffffffffffffffffffffff021916908373ffffffffffffffffffffffffffffffffffffffff1602179055508173ffffffffffffffffffffffffffffffffffffffff168173ffffffffffffffffffffffffffffffffffffffff167f8be0079c531659141344cd1fd0a4f28419497f9722a3daafe3b4186f6b6457e060405160405180910390a35050565b60008135905061089081610c96565b92915050565b6000813590506108a581610cad565b92915050565b6000602082840312156108bd57600080fd5b60006108cb84828501610881565b91505092915050565b6000602082840312156108e657600080fd5b60006108f484828501610896565b91505092915050565b61090681610bf0565b82525050565b61091581610c02565b82525050565b6000610928602683610b58565b91507f4f776e61626c653a206e6577206f776e657220697320746865207a65726f206160008301527f64647265737300000000000000000000000000000000000000000000000000006020830152604082019050919050565b600061098e601883610b58565b91507f6f6e6c79207265766965776572732063616e20766f74652100000000000000006000830152602082019050919050565b60006109ce601883610b58565b91507f636f6e747261637420616c726561647920636c6f7365642100000000000000006000830152602082019050919050565b6000610a0e602083610b58565b91507f4f776e61626c653a2063616c6c6572206973206e6f7420746865206f776e65726000830152602082019050919050565b610a4a81610c2e565b82525050565b6000602082019050610a6560008301846108fd565b92915050565b6000602082019050610a80600083018461090c565b92915050565b60006020820190508181036000830152610a9f8161091b565b9050919050565b60006020820190508181036000830152610abf81610981565b9050919050565b60006020820190508181036000830152610adf816109c1565b9050919050565b60006020820190508181036000830152610aff81610a01565b9050919050565b6000602082019050610b1b6000830184610a41565b92915050565b6000606082019050610b366000830186610a41565b610b436020830185610a41565b610b50604083018461090c565b949350505050565b600082825260208201905092915050565b6000610b7482610c2e565b9150610b7f83610c2e565b9250827fffffffffffffffffffffffffffffffffffffffffffffffffffffffffffffffff03821115610bb457610bb3610c38565b5b828201905092915050565b6000610bca82610c2e565b9150610bd583610c2e565b925082610be557610be4610c67565b5b828204905092915050565b6000610bfb82610c0e565b9050919050565b60008115159050919050565b600073ffffffffffffffffffffffffffffffffffffffff82169050919050565b6000819050919050565b7f4e487b7100000000000000000000000000000000000000000000000000000000600052601160045260246000fd5b7f4e487b7100000000000000000000000000000000000000000000000000000000600052601260045260246000fd5b610c9f81610bf0565b8114610caa57600080fd5b50565b610cb681610c02565b8114610cc157600080fd5b5056fea26469706673582212208ebbd9db4d6750c0335a942263cdd1ad561df011491847884e7c7b0444c4c2df64736f6c63430008000033a2646970667358221220190682bf59371d2972e2a85f777ee91f37c3fdd3e22f1e5bf219f45a2908c68164736f6c63430008000033",
  "immutableReferences": {},
  "source": "// contracts/ScholarCoin.sol\r\n// SPDX-License-Identifier: MIT\r\npragma solidity ^0.8.0;\r\n\r\nimport \"@openzeppelin/contracts/token/ERC1155/ERC1155.sol\";\r\nimport \"@openzeppelin/contracts/access/Ownable.sol\";\r\n\r\ncontract PaperApprovalContract is Ownable{\r\n    address public author;\r\n    address public paperUri;\r\n    mapping (address => bool) public reviewers;\r\n    mapping (address => bool) public reviewersVoting;\r\n    uint public totalVotes;\r\n    uint public approvalCounts;\r\n    bool private contractIsClosed;\r\n    bool public approvalStatus;\r\n    bool public claimContractBrick;\r\n\r\n    constructor(address contractOwner, address _author, address _paperUri, address[] memory _reviewers) public {\r\n        transferOwnership(contractOwner);\r\n        author = _author;\r\n        paperUri = _paperUri;\r\n        contractIsClosed = false;\r\n        approvalCounts = 0;\r\n        totalVotes = _reviewers.length;\r\n        for (uint i = 0; i < _reviewers.length; i++){\r\n            reviewers[_reviewers[i]] = true;\r\n        }\r\n\r\n    }\r\n\r\n    function recieveVote(bool vote) public{\r\n        require(!contractIsClosed, \"contract already closed!\");\r\n        require(reviewers[msg.sender], \"only reviewers can vote!\");\r\n        reviewers[msg.sender] = vote;\r\n        if (vote){\r\n            approvalCounts += 1;\r\n        }\r\n    }\r\n\r\n    function closeContract() public onlyOwner{\r\n        require(!contractIsClosed, \"contract already closed!\");\r\n        contractIsClosed = true;\r\n    }\r\n\r\n    function checkVotingStatus() public view returns(uint _totalVotes, uint _approvalCounts, bool _contractIsClosed){\r\n        return(totalVotes, approvalCounts, contractIsClosed);\r\n    }\r\n\r\n    function isContractClaimable() public view returns(bool){\r\n        return contractIsClosed && (approvalCounts > (totalVotes / 2));\r\n    }\r\n\r\n}\r\n\r\ncontract ScholarDaoContract is ERC1155, Ownable {\r\n    mapping (uint256 => string) private _uris;\r\n    uint256 public constant SCHOLA_BRICK = 0;\r\n    uint256 public constant SCHOLA_SAND = 1;\r\n\r\n    // Mapping from token ID to account balances\r\n    mapping (uint256 => mapping(address => uint256)) private _balances;\r\n    mapping (address => bool) public scholarAddresses;\r\n\r\n    //a mapping of scholar and their papper \r\n    mapping (address => mapping(address => ScholarPaper)) public scholarPaperMap;\r\n\r\n    struct ScholarPaper {\r\n        PaperApprovalContract paperContract;\r\n        mapping(address => bool) scholarSandClaimed;\r\n        bool scholarBrickClaimed;\r\n    }\r\n\r\n    constructor() public ERC1155(\"\") {\r\n        // set up assets\r\n        _uris[SCHOLA_BRICK] = \"SCHOLA_BRICK\";\r\n        _uris[SCHOLA_SAND] = \"SCHOLA_SAND\";\r\n\r\n    }\r\n\r\n    function uri(uint256 tokenId) override public view returns (string memory){\r\n        //find out tokenId represents in this contract\r\n        return(_uris[tokenId]);\r\n    }\r\n\r\n    function setTokenUri(uint256 _tokenId, string memory _uri) public onlyOwner {\r\n        _uris[_tokenId] = _uri;\r\n    }\r\n\r\n    function mint(address recipient, uint256 tokenId, uint256 amount) public onlyOwner {\r\n        _mint(recipient, tokenId, amount, \"\");\r\n    }\r\n\r\n    function approveNewScholar(address recipient) public onlyOwner {\r\n        // add new scholar to address list, but they are not yet a dao member\r\n        scholarAddresses[recipient] = true;\r\n    }\r\n\r\n    // function joinScholarDao(address recipient) public onlyOwner {\r\n    //     // to-do //contract become payable\r\n    // }\r\n\r\n    function initReviewContract(address author, address paperUri, address[] memory _reviewers) public onlyOwner returns(address contractAddress){\r\n        scholarPaperMap[author][paperUri].paperContract =  new PaperApprovalContract(msg.sender, author, paperUri, _reviewers);\r\n        scholarPaperMap[author][paperUri].scholarBrickClaimed = false;\r\n        return address(scholarPaperMap[author][paperUri].paperContract);\r\n    }\r\n\r\n    function mintScholarBrick(address recipient, address paperUri) public {\r\n        require(address(scholarPaperMap[recipient][paperUri].paperContract) != address(0x0), \"Recipient must own this paper\");\r\n        require(scholarPaperMap[recipient][paperUri].paperContract.isContractClaimable(), \"Paper contract cannot be claimed!\");\r\n        require(msg.sender == recipient || msg.sender == owner(), \"Only the author or the owner can claim this contract!\");\r\n        _mint(recipient, SCHOLA_BRICK, 1, \"\");\r\n    }\r\n\r\n    function addPaperRefferenceAddresses(address author, address paperUri, address[] memory referenceScholarAddresses) public onlyOwner{\r\n        for(uint i = 0; i < referenceScholarAddresses.length; i ++){\r\n            scholarPaperMap[author][paperUri].scholarSandClaimed[referenceScholarAddresses[i]] = false;\r\n        }\r\n    }\r\n\r\n    function mintScholarSand(address recipient, address author, address paperUri) public{\r\n        require(address(scholarPaperMap[recipient][paperUri].paperContract) != address(0x0), \"recipient must be a scholar!\");\r\n        require(scholarPaperMap[author][paperUri].scholarSandClaimed[recipient] == false, \"recipient is unable to claim with this paper\");\r\n        _mint(recipient, SCHOLA_SAND, 5, \"\");\r\n        scholarPaperMap[author][paperUri].scholarSandClaimed[recipient] = true;\r\n\r\n    }\r\n\r\n\r\n} \r\n",
  "sourcePath": "C:/DevSpot/JueXueDAO/contract/contracts/ScholarDaoContract.sol",
  "compiler": {
    "name": "solc",
    "version": "0.8.0+commit.c7dfd78e.Emscripten.clang"
  },
  "schemaVersion": "3.3.4",
  "updatedAt": "2022-09-08T11:20:15.047Z",
  "devdoc": {
    "kind": "dev",
    "methods": {
      "balanceOf(address,uint256)": {
        "details": "See {IERC1155-balanceOf}. Requirements: - `account` cannot be the zero address."
      },
      "balanceOfBatch(address[],uint256[])": {
        "details": "See {IERC1155-balanceOfBatch}. Requirements: - `accounts` and `ids` must have the same length."
      },
      "isApprovedForAll(address,address)": {
        "details": "See {IERC1155-isApprovedForAll}."
      },
      "owner()": {
        "details": "Returns the address of the current owner."
      },
      "renounceOwnership()": {
        "details": "Leaves the contract without owner. It will not be possible to call `onlyOwner` functions anymore. Can only be called by the current owner. NOTE: Renouncing ownership will leave the contract without an owner, thereby removing any functionality that is only available to the owner."
      },
      "safeBatchTransferFrom(address,address,uint256[],uint256[],bytes)": {
        "details": "See {IERC1155-safeBatchTransferFrom}."
      },
      "safeTransferFrom(address,address,uint256,uint256,bytes)": {
        "details": "See {IERC1155-safeTransferFrom}."
      },
      "setApprovalForAll(address,bool)": {
        "details": "See {IERC1155-setApprovalForAll}."
      },
      "supportsInterface(bytes4)": {
        "details": "See {IERC165-supportsInterface}."
      },
      "transferOwnership(address)": {
        "details": "Transfers ownership of the contract to a new account (`newOwner`). Can only be called by the current owner."
      }
    },
    "version": 1
  },
  "userdoc": {
    "kind": "user",
    "methods": {},
    "version": 1
  }
}