{
  "contractName": "ScholarDaoContract",
  "abi": [
    {
      "inputs": [],
      "stateMutability": "nonpayable",
      "type": "constructor"
    },
    {
      "anonymous": false,
      "inputs": [
        {
          "indexed": true,
          "internalType": "address",
          "name": "account",
          "type": "address"
        },
        {
          "indexed": true,
          "internalType": "address",
          "name": "operator",
          "type": "address"
        },
        {
          "indexed": false,
          "internalType": "bool",
          "name": "approved",
          "type": "bool"
        }
      ],
      "name": "ApprovalForAll",
      "type": "event"
    },
    {
      "anonymous": false,
      "inputs": [
        {
          "indexed": true,
          "internalType": "address",
          "name": "previousOwner",
          "type": "address"
        },
        {
          "indexed": true,
          "internalType": "address",
          "name": "newOwner",
          "type": "address"
        }
      ],
      "name": "OwnershipTransferred",
      "type": "event"
    },
    {
      "anonymous": false,
      "inputs": [
        {
          "indexed": true,
          "internalType": "address",
          "name": "operator",
          "type": "address"
        },
        {
          "indexed": true,
          "internalType": "address",
          "name": "from",
          "type": "address"
        },
        {
          "indexed": true,
          "internalType": "address",
          "name": "to",
          "type": "address"
        },
        {
          "indexed": false,
          "internalType": "uint256[]",
          "name": "ids",
          "type": "uint256[]"
        },
        {
          "indexed": false,
          "internalType": "uint256[]",
          "name": "values",
          "type": "uint256[]"
        }
      ],
      "name": "TransferBatch",
      "type": "event"
    },
    {
      "anonymous": false,
      "inputs": [
        {
          "indexed": true,
          "internalType": "address",
          "name": "operator",
          "type": "address"
        },
        {
          "indexed": true,
          "internalType": "address",
          "name": "from",
          "type": "address"
        },
        {
          "indexed": true,
          "internalType": "address",
          "name": "to",
          "type": "address"
        },
        {
          "indexed": false,
          "internalType": "uint256",
          "name": "id",
          "type": "uint256"
        },
        {
          "indexed": false,
          "internalType": "uint256",
          "name": "value",
          "type": "uint256"
        }
      ],
      "name": "TransferSingle",
      "type": "event"
    },
    {
      "anonymous": false,
      "inputs": [
        {
          "indexed": false,
          "internalType": "string",
          "name": "value",
          "type": "string"
        },
        {
          "indexed": true,
          "internalType": "uint256",
          "name": "id",
          "type": "uint256"
        }
      ],
      "name": "URI",
      "type": "event"
    },
    {
      "inputs": [],
      "name": "SCHOLAR_BRICK",
      "outputs": [
        {
          "internalType": "uint256",
          "name": "",
          "type": "uint256"
        }
      ],
      "stateMutability": "view",
      "type": "function"
    },
    {
      "inputs": [],
      "name": "SCHOLAR_SAND",
      "outputs": [
        {
          "internalType": "uint256",
          "name": "",
          "type": "uint256"
        }
      ],
      "stateMutability": "view",
      "type": "function"
    },
    {
      "inputs": [
        {
          "internalType": "address",
          "name": "account",
          "type": "address"
        },
        {
          "internalType": "uint256",
          "name": "id",
          "type": "uint256"
        }
      ],
      "name": "balanceOf",
      "outputs": [
        {
          "internalType": "uint256",
          "name": "",
          "type": "uint256"
        }
      ],
      "stateMutability": "view",
      "type": "function"
    },
    {
      "inputs": [
        {
          "internalType": "address[]",
          "name": "accounts",
          "type": "address[]"
        },
        {
          "internalType": "uint256[]",
          "name": "ids",
          "type": "uint256[]"
        }
      ],
      "name": "balanceOfBatch",
      "outputs": [
        {
          "internalType": "uint256[]",
          "name": "",
          "type": "uint256[]"
        }
      ],
      "stateMutability": "view",
      "type": "function"
    },
    {
      "inputs": [
        {
          "internalType": "address",
          "name": "account",
          "type": "address"
        },
        {
          "internalType": "address",
          "name": "operator",
          "type": "address"
        }
      ],
      "name": "isApprovedForAll",
      "outputs": [
        {
          "internalType": "bool",
          "name": "",
          "type": "bool"
        }
      ],
      "stateMutability": "view",
      "type": "function"
    },
    {
      "inputs": [],
      "name": "owner",
      "outputs": [
        {
          "internalType": "address",
          "name": "",
          "type": "address"
        }
      ],
      "stateMutability": "view",
      "type": "function"
    },
    {
      "inputs": [],
      "name": "renounceOwnership",
      "outputs": [],
      "stateMutability": "nonpayable",
      "type": "function"
    },
    {
      "inputs": [
        {
          "internalType": "address",
          "name": "from",
          "type": "address"
        },
        {
          "internalType": "address",
          "name": "to",
          "type": "address"
        },
        {
          "internalType": "uint256[]",
          "name": "ids",
          "type": "uint256[]"
        },
        {
          "internalType": "uint256[]",
          "name": "amounts",
          "type": "uint256[]"
        },
        {
          "internalType": "bytes",
          "name": "data",
          "type": "bytes"
        }
      ],
      "name": "safeBatchTransferFrom",
      "outputs": [],
      "stateMutability": "nonpayable",
      "type": "function"
    },
    {
      "inputs": [
        {
          "internalType": "address",
          "name": "from",
          "type": "address"
        },
        {
          "internalType": "address",
          "name": "to",
          "type": "address"
        },
        {
          "internalType": "uint256",
          "name": "id",
          "type": "uint256"
        },
        {
          "internalType": "uint256",
          "name": "amount",
          "type": "uint256"
        },
        {
          "internalType": "bytes",
          "name": "data",
          "type": "bytes"
        }
      ],
      "name": "safeTransferFrom",
      "outputs": [],
      "stateMutability": "nonpayable",
      "type": "function"
    },
    {
      "inputs": [
        {
          "internalType": "address",
          "name": "",
          "type": "address"
        }
      ],
      "name": "scholarAddresses",
      "outputs": [
        {
          "internalType": "bool",
          "name": "",
          "type": "bool"
        }
      ],
      "stateMutability": "view",
      "type": "function"
    },
    {
      "inputs": [
        {
          "internalType": "address",
          "name": "",
          "type": "address"
        },
        {
          "internalType": "address",
          "name": "",
          "type": "address"
        }
      ],
      "name": "scholarPaperMap",
      "outputs": [
        {
          "internalType": "contract PaperApprovalContract",
          "name": "paperContract",
          "type": "address"
        },
        {
          "internalType": "bool",
          "name": "scholarBrickClaimed",
          "type": "bool"
        }
      ],
      "stateMutability": "view",
      "type": "function"
    },
    {
      "inputs": [
        {
          "internalType": "address",
          "name": "operator",
          "type": "address"
        },
        {
          "internalType": "bool",
          "name": "approved",
          "type": "bool"
        }
      ],
      "name": "setApprovalForAll",
      "outputs": [],
      "stateMutability": "nonpayable",
      "type": "function"
    },
    {
      "inputs": [
        {
          "internalType": "bytes4",
          "name": "interfaceId",
          "type": "bytes4"
        }
      ],
      "name": "supportsInterface",
      "outputs": [
        {
          "internalType": "bool",
          "name": "",
          "type": "bool"
        }
      ],
      "stateMutability": "view",
      "type": "function"
    },
    {
      "inputs": [
        {
          "internalType": "address",
          "name": "newOwner",
          "type": "address"
        }
      ],
      "name": "transferOwnership",
      "outputs": [],
      "stateMutability": "nonpayable",
      "type": "function"
    },
    {
      "inputs": [
        {
          "internalType": "uint256",
          "name": "tokenId",
          "type": "uint256"
        }
      ],
      "name": "uri",
      "outputs": [
        {
          "internalType": "string",
          "name": "",
          "type": "string"
        }
      ],
      "stateMutability": "view",
      "type": "function"
    },
    {
      "inputs": [
        {
          "internalType": "uint256",
          "name": "_tokenId",
          "type": "uint256"
        },
        {
          "internalType": "string",
          "name": "_uri",
          "type": "string"
        }
      ],
      "name": "setTokenUri",
      "outputs": [],
      "stateMutability": "nonpayable",
      "type": "function"
    },
    {
      "inputs": [
        {
          "internalType": "address",
          "name": "recipient",
          "type": "address"
        },
        {
          "internalType": "uint256",
          "name": "tokenId",
          "type": "uint256"
        },
        {
          "internalType": "uint256",
          "name": "amount",
          "type": "uint256"
        }
      ],
      "name": "mint",
      "outputs": [],
      "stateMutability": "nonpayable",
      "type": "function"
    },
    {
      "inputs": [
        {
          "internalType": "address",
          "name": "recipient",
          "type": "address"
        }
      ],
      "name": "approveNewScholar",
      "outputs": [],
      "stateMutability": "nonpayable",
      "type": "function"
    },
    {
      "inputs": [
        {
          "internalType": "address",
          "name": "author",
          "type": "address"
        },
        {
          "internalType": "address",
          "name": "paperUri",
          "type": "address"
        },
        {
          "internalType": "address[]",
          "name": "_reviewers",
          "type": "address[]"
        }
      ],
      "name": "initReviewContract",
      "outputs": [
        {
          "internalType": "address",
          "name": "contractAddress",
          "type": "address"
        }
      ],
      "stateMutability": "nonpayable",
      "type": "function"
    },
    {
      "inputs": [
        {
          "internalType": "address",
          "name": "recipient",
          "type": "address"
        },
        {
          "internalType": "address",
          "name": "paperUri",
          "type": "address"
        }
      ],
      "name": "mintScholarBrick",
      "outputs": [],
      "stateMutability": "nonpayable",
      "type": "function"
    },
    {
      "inputs": [
        {
          "internalType": "address",
          "name": "author",
          "type": "address"
        },
        {
          "internalType": "address",
          "name": "paperUri",
          "type": "address"
        },
        {
          "internalType": "address[]",
          "name": "referenceScholarAddresses",
          "type": "address[]"
        }
      ],
      "name": "addPaperRefferenceAddresses",
      "outputs": [],
      "stateMutability": "nonpayable",
      "type": "function"
    },
    {
      "inputs": [
        {
          "internalType": "address",
          "name": "recipient",
          "type": "address"
        },
        {
          "internalType": "address",
          "name": "author",
          "type": "address"
        },
        {
          "internalType": "address",
          "name": "paperUri",
          "type": "address"
        }
      ],
      "name": "mintScholarSand",
      "outputs": [],
      "stateMutability": "nonpayable",
      "type": "function"
    },
    {
      "inputs": [
        {
          "internalType": "address",
          "name": "recipient",
          "type": "address"
        },
        {
          "internalType": "uint256",
          "name": "amount",
          "type": "uint256"
        }
      ],
      "name": "convertSandToBrick",
      "outputs": [],
      "stateMutability": "nonpayable",
      "type": "function"
    }
  ],
  "bytecode": "0x60806040523480156200001157600080fd5b506040518060800160405280605a815260200162006e47605a91396200003d816200013760201b60201c565b506200005e620000526200015360201b60201c565b6200015b60201b60201c565b60405180608001604052806059815260200162006dee6059913960046000600181526020019081526020016000209080519060200190620000a19291906200070f565b5060405180608001604052806059815260200162006d956059913960046000600281526020019081526020016000209080519060200190620000e59291906200070f565b506200010b336001600a604051806020016040528060008152506200022160201b60201c565b62000131336002612710604051806020016040528060008152506200022160201b60201c565b62000e5a565b80600290805190602001906200014f9291906200070f565b5050565b600033905090565b6000600360009054906101000a900473ffffffffffffffffffffffffffffffffffffffff16905081600360006101000a81548173ffffffffffffffffffffffffffffffffffffffff021916908373ffffffffffffffffffffffffffffffffffffffff1602179055508173ffffffffffffffffffffffffffffffffffffffff168173ffffffffffffffffffffffffffffffffffffffff167f8be0079c531659141344cd1fd0a4f28419497f9722a3daafe3b4186f6b6457e060405160405180910390a35050565b600073ffffffffffffffffffffffffffffffffffffffff168473ffffffffffffffffffffffffffffffffffffffff16141562000294576040517f08c379a00000000000000000000000000000000000000000000000000000000081526004016200028b90620009e7565b60405180910390fd5b6000620002a66200015360201b60201c565b90506000620002bb856200040960201b60201c565b90506000620002d0856200040960201b60201c565b9050620002e983600089858589620004d260201b60201c565b8460008088815260200190815260200160002060008973ffffffffffffffffffffffffffffffffffffffff1673ffffffffffffffffffffffffffffffffffffffff16815260200190815260200160002060008282546200034a919062000a78565b925050819055508673ffffffffffffffffffffffffffffffffffffffff16600073ffffffffffffffffffffffffffffffffffffffff168473ffffffffffffffffffffffffffffffffffffffff167fc3d58168c5ae7397731d063d5bbf3d657854427343f4c083240f7aacaa2d0f628989604051620003ca92919062000a09565b60405180910390a4620003e983600089858589620004da60201b60201c565b6200040083600089898989620004e260201b60201c565b50505050505050565b60606000600167ffffffffffffffff8111156200044f577f4e487b7100000000000000000000000000000000000000000000000000000000600052604160045260246000fd5b6040519080825280602002602001820160405280156200047e5781602001602082028036833780820191505090505b5090508281600081518110620004bd577f4e487b7100000000000000000000000000000000000000000000000000000000600052603260045260246000fd5b60200260200101818152505080915050919050565b505050505050565b505050505050565b6200050e8473ffffffffffffffffffffffffffffffffffffffff16620006ec60201b620019361760201c565b15620006e4578373ffffffffffffffffffffffffffffffffffffffff1663f23a6e6187878686866040518663ffffffff1660e01b8152600401620005579594939291906200091b565b602060405180830381600087803b1580156200057257600080fd5b505af1925050508015620005a657506040513d601f19601f82011682018060405250810190620005a39190620007d6565b60015b6200065857620005b562000c6e565b806308c379a01415620006195750620005cd62000d9e565b80620005da57506200061b565b806040517f08c379a00000000000000000000000000000000000000000000000000000000081526004016200061091906200097f565b60405180910390fd5b505b6040517f08c379a00000000000000000000000000000000000000000000000000000000081526004016200064f90620009a3565b60405180910390fd5b63f23a6e6160e01b7bffffffffffffffffffffffffffffffffffffffffffffffffffffffff1916817bffffffffffffffffffffffffffffffffffffffffffffffffffffffff191614620006e2576040517f08c379a0000000000000000000000000000000000000000000000000000000008152600401620006d990620009c5565b60405180910390fd5b505b505050505050565b6000808273ffffffffffffffffffffffffffffffffffffffff163b119050919050565b8280546200071d9062000b75565b90600052602060002090601f0160209004810192826200074157600085556200078d565b82601f106200075c57805160ff19168380011785556200078d565b828001600101855582156200078d579182015b828111156200078c5782518255916020019190600101906200076f565b5b5090506200079c9190620007a0565b5090565b5b80821115620007bb576000816000905550600101620007a1565b5090565b600081519050620007d08162000e40565b92915050565b600060208284031215620007e957600080fd5b6000620007f984828501620007bf565b91505092915050565b6200080d8162000ad5565b82525050565b6000620008208262000a40565b6200082c818562000a56565b93506200083e81856020860162000b3f565b620008498162000c93565b840191505092915050565b6000620008618262000a4b565b6200086d818562000a67565b93506200087f81856020860162000b3f565b6200088a8162000c93565b840191505092915050565b6000620008a460348362000a67565b9150620008b18262000cb1565b604082019050919050565b6000620008cb60288362000a67565b9150620008d88262000d00565b604082019050919050565b6000620008f260218362000a67565b9150620008ff8262000d4f565b604082019050919050565b620009158162000b35565b82525050565b600060a08201905062000932600083018862000802565b62000941602083018762000802565b6200095060408301866200090a565b6200095f60608301856200090a565b818103608083015262000973818462000813565b90509695505050505050565b600060208201905081810360008301526200099b818462000854565b905092915050565b60006020820190508181036000830152620009be8162000895565b9050919050565b60006020820190508181036000830152620009e081620008bc565b9050919050565b6000602082019050818103600083015262000a0281620008e3565b9050919050565b600060408201905062000a2060008301856200090a565b62000a2f60208301846200090a565b9392505050565b6000604051905090565b600081519050919050565b600081519050919050565b600082825260208201905092915050565b600082825260208201905092915050565b600062000a858262000b35565b915062000a928362000b35565b9250827fffffffffffffffffffffffffffffffffffffffffffffffffffffffffffffffff0382111562000aca5762000ac962000be1565b5b828201905092915050565b600062000ae28262000b15565b9050919050565b60007fffffffff0000000000000000000000000000000000000000000000000000000082169050919050565b600073ffffffffffffffffffffffffffffffffffffffff82169050919050565b6000819050919050565b60005b8381101562000b5f57808201518184015260208101905062000b42565b8381111562000b6f576000848401525b50505050565b6000600282049050600182168062000b8e57607f821691505b6020821081141562000ba55762000ba462000c10565b5b50919050565b62000bb68262000c93565b810181811067ffffffffffffffff8211171562000bd85762000bd762000c3f565b5b80604052505050565b7f4e487b7100000000000000000000000000000000000000000000000000000000600052601160045260246000fd5b7f4e487b7100000000000000000000000000000000000000000000000000000000600052602260045260246000fd5b7f4e487b7100000000000000000000000000000000000000000000000000000000600052604160045260246000fd5b600060033d111562000c905760046000803e62000c8d60005162000ca4565b90505b90565b6000601f19601f8301169050919050565b60008160e01c9050919050565b7f455243313135353a207472616e7366657220746f206e6f6e204552433131353560008201527f526563656976657220696d706c656d656e746572000000000000000000000000602082015250565b7f455243313135353a204552433131353552656365697665722072656a6563746560008201527f6420746f6b656e73000000000000000000000000000000000000000000000000602082015250565b7f455243313135353a206d696e7420746f20746865207a65726f2061646472657360008201527f7300000000000000000000000000000000000000000000000000000000000000602082015250565b600060443d101562000db05762000e3d565b62000dba62000a36565b60043d036004823e80513d602482011167ffffffffffffffff8211171562000de457505062000e3d565b808201805167ffffffffffffffff81111562000e04575050505062000e3d565b80602083010160043d03850181111562000e2357505050505062000e3d565b62000e348260200185018662000bab565b82955050505050505b90565b62000e4b8162000ae9565b811462000e5757600080fd5b50565b615f2b8062000e6a6000396000f3fe60806040523480156200001157600080fd5b50600436106200016b5760003560e01c8063715018a611620000d5578063c145f2421162000087578063c145f242146200041b578063c656ffbd146200043b578063d6161603146200045d578063e985e9c5146200047d578063f242432a14620004b3578063f2fde38b14620004d3576200016b565b8063715018a614620003565780637340df991462000362578063778eb14814620003995780638da5cb5b14620003b9578063a22cb46514620003db578063b9893ce314620003fb576200016b565b8063239f2fa1116200012f578063239f2fa114620002545780632eb2c2d6146200028a5780634bedeebb14620002aa5780634e1273f414620002e057806357f7789e14620003165780635f0a42d11462000336576200016b565b8062fdd58e146200017057806301ffc9a714620001a6578063025cb65014620001dc5780630e89341c14620001fe578063156e29f61462000234575b600080fd5b6200018e600480360381019062000188919062003202565b620004f3565b6040516200019d919062003e17565b60405180910390f35b620001c46004803603810190620001be919062003338565b620005bf565b604051620001d3919062003adf565b60405180910390f35b620001e6620006a5565b604051620001f5919062003e17565b60405180910390f35b6200021c600480360381019062000216919062003390565b620006aa565b6040516200022b919062003b29565b60405180910390f35b6200025260048036038101906200024c919062003243565b62000757565b005b6200027260048036038101906200026c919062002f27565b62000783565b60405162000281919062003adf565b60405180910390f35b620002a86004803603810190620002a2919062003059565b620007a3565b005b620002c86004803603810190620002c2919062002fea565b62000850565b604051620002d7919062003939565b60405180910390f35b620002fe6004803603810190620002f8919062003299565b62000a99565b6040516200030d919062003a80565b60405180910390f35b6200033460048036038101906200032e9190620033bc565b62000c58565b005b6200035460048036038101906200034e919062002f94565b62000c90565b005b6200036062000fa7565b005b6200038060048036038101906200037a919062002f53565b62000fbf565b6040516200039092919062003afc565b60405180910390f35b620003b76004803603810190620003b1919062002f53565b6200101d565b005b620003c3620014cd565b604051620003d2919062003939565b60405180910390f35b620003f96004803603810190620003f39190620031c1565b620014f7565b005b62000419600480360381019062000413919062003202565b62001511565b005b62000439600480360381019062000433919062002fea565b620015b7565b005b6200044562001700565b60405162000454919062003e17565b60405180910390f35b6200047b600480360381019062000475919062002f27565b62001705565b005b6200049b600480360381019062000495919062002f53565b6200176a565b604051620004aa919062003adf565b60405180910390f35b620004d16004803603810190620004cb919062003126565b620017fe565b005b620004f16004803603810190620004eb919062002f27565b620018ab565b005b60008073ffffffffffffffffffffffffffffffffffffffff168373ffffffffffffffffffffffffffffffffffffffff16141562000567576040517f08c379a00000000000000000000000000000000000000000000000000000000081526004016200055e9062003c5d565b60405180910390fd5b60008083815260200190815260200160002060008473ffffffffffffffffffffffffffffffffffffffff1673ffffffffffffffffffffffffffffffffffffffff16815260200190815260200160002054905092915050565b60007fd9b67a26000000000000000000000000000000000000000000000000000000007bffffffffffffffffffffffffffffffffffffffffffffffffffffffff1916827bffffffffffffffffffffffffffffffffffffffffffffffffffffffff191614806200068b57507f0e89341c000000000000000000000000000000000000000000000000000000007bffffffffffffffffffffffffffffffffffffffffffffffffffffffff1916827bffffffffffffffffffffffffffffffffffffffffffffffffffffffff1916145b806200069e57506200069d8262001959565b5b9050919050565b600181565b6060600460008381526020019081526020016000208054620006cc90620041d7565b80601f0160208091040260200160405190810160405280929190818152602001828054620006fa90620041d7565b80156200074b5780601f106200071f576101008083540402835291602001916200074b565b820191906000526020600020905b8154815290600101906020018083116200072d57829003601f168201915b50505050509050919050565b62000761620019c3565b6200077e8383836040518060200160405280600081525062001a48565b505050565b60056020528060005260406000206000915054906101000a900460ff1681565b620007ad62001c0c565b73ffffffffffffffffffffffffffffffffffffffff168573ffffffffffffffffffffffffffffffffffffffff161480620007f85750620007f785620007f162001c0c565b6200176a565b5b6200083a576040517f08c379a0000000000000000000000000000000000000000000000000000000008152600401620008319062003b6f565b60405180910390fd5b62000849858585858562001c14565b5050505050565b60006200085c620019c3565b338484846040516200086e9062002bb7565b6200087d949392919062003956565b604051809103906000f0801580156200089a573d6000803e3d6000fd5b50600660008673ffffffffffffffffffffffffffffffffffffffff1673ffffffffffffffffffffffffffffffffffffffff16815260200190815260200160002060008573ffffffffffffffffffffffffffffffffffffffff1673ffffffffffffffffffffffffffffffffffffffff16815260200190815260200160002060000160006101000a81548173ffffffffffffffffffffffffffffffffffffffff021916908373ffffffffffffffffffffffffffffffffffffffff1602179055506000600660008673ffffffffffffffffffffffffffffffffffffffff1673ffffffffffffffffffffffffffffffffffffffff16815260200190815260200160002060008573ffffffffffffffffffffffffffffffffffffffff1673ffffffffffffffffffffffffffffffffffffffff16815260200190815260200160002060020160006101000a81548160ff021916908315150217905550600660008573ffffffffffffffffffffffffffffffffffffffff1673ffffffffffffffffffffffffffffffffffffffff16815260200190815260200160002060008473ffffffffffffffffffffffffffffffffffffffff1673ffffffffffffffffffffffffffffffffffffffff16815260200190815260200160002060000160009054906101000a900473ffffffffffffffffffffffffffffffffffffffff1690509392505050565b6060815183511462000ae2576040517f08c379a000000000000000000000000000000000000000000000000000000000815260040162000ad99062003db1565b60405180910390fd5b6000835167ffffffffffffffff81111562000b26577f4e487b7100000000000000000000000000000000000000000000000000000000600052604160045260246000fd5b60405190808252806020026020018201604052801562000b555781602001602082028036833780820191505090505b50905060005b845181101562000c4d5762000bf385828151811062000ba3577f4e487b7100000000000000000000000000000000000000000000000000000000600052603260045260246000fd5b602002602001015185838151811062000be5577f4e487b7100000000000000000000000000000000000000000000000000000000600052603260045260246000fd5b6020026020010151620004f3565b82828151811062000c2d577f4e487b7100000000000000000000000000000000000000000000000000000000600052603260045260246000fd5b6020026020010181815250508062000c459062004243565b905062000b5b565b508091505092915050565b62000c62620019c3565b8060046000848152602001908152602001600020908051906020019062000c8b92919062002bc5565b505050565b600073ffffffffffffffffffffffffffffffffffffffff16600660008473ffffffffffffffffffffffffffffffffffffffff1673ffffffffffffffffffffffffffffffffffffffff16815260200190815260200160002060008373ffffffffffffffffffffffffffffffffffffffff1673ffffffffffffffffffffffffffffffffffffffff16815260200190815260200160002060000160009054906101000a900473ffffffffffffffffffffffffffffffffffffffff1673ffffffffffffffffffffffffffffffffffffffff16141562000da2576040517f08c379a000000000000000000000000000000000000000000000000000000000815260040162000d999062003c3b565b60405180910390fd5b600660008373ffffffffffffffffffffffffffffffffffffffff1673ffffffffffffffffffffffffffffffffffffffff16815260200190815260200160002060008273ffffffffffffffffffffffffffffffffffffffff1673ffffffffffffffffffffffffffffffffffffffff16815260200190815260200160002060010160008473ffffffffffffffffffffffffffffffffffffffff1673ffffffffffffffffffffffffffffffffffffffff16815260200190815260200160002060009054906101000a900460ff1662000eae576040517f08c379a000000000000000000000000000000000000000000000000000000000815260040162000ea59062003bb3565b60405180910390fd5b62000ecd83600260056040518060200160405280600081525062001a48565b6000600660008473ffffffffffffffffffffffffffffffffffffffff1673ffffffffffffffffffffffffffffffffffffffff16815260200190815260200160002060008373ffffffffffffffffffffffffffffffffffffffff1673ffffffffffffffffffffffffffffffffffffffff16815260200190815260200160002060010160008573ffffffffffffffffffffffffffffffffffffffff1673ffffffffffffffffffffffffffffffffffffffff16815260200190815260200160002060006101000a81548160ff021916908315150217905550505050565b62000fb1620019c3565b62000fbd600062001f9d565b565b6006602052816000526040600020602052806000526040600020600091509150508060000160009054906101000a900473ffffffffffffffffffffffffffffffffffffffff16908060020160009054906101000a900460ff16905082565b600073ffffffffffffffffffffffffffffffffffffffff16600660008473ffffffffffffffffffffffffffffffffffffffff1673ffffffffffffffffffffffffffffffffffffffff16815260200190815260200160002060008373ffffffffffffffffffffffffffffffffffffffff1673ffffffffffffffffffffffffffffffffffffffff16815260200190815260200160002060000160009054906101000a900473ffffffffffffffffffffffffffffffffffffffff1673ffffffffffffffffffffffffffffffffffffffff1614156200112f576040517f08c379a0000000000000000000000000000000000000000000000000000000008152600401620011269062003cc3565b60405180910390fd5b600660008373ffffffffffffffffffffffffffffffffffffffff1673ffffffffffffffffffffffffffffffffffffffff16815260200190815260200160002060008273ffffffffffffffffffffffffffffffffffffffff1673ffffffffffffffffffffffffffffffffffffffff16815260200190815260200160002060000160009054906101000a900473ffffffffffffffffffffffffffffffffffffffff1673ffffffffffffffffffffffffffffffffffffffff16639107c15b6040518163ffffffff1660e01b815260040160206040518083038186803b1580156200121557600080fd5b505afa1580156200122a573d6000803e3d6000fd5b505050506040513d601f19601f820116820180604052508101906200125091906200330c565b62001292576040517f08c379a0000000000000000000000000000000000000000000000000000000008152600401620012899062003d4b565b60405180910390fd5b8173ffffffffffffffffffffffffffffffffffffffff163373ffffffffffffffffffffffffffffffffffffffff161480620013015750620012d2620014cd565b73ffffffffffffffffffffffffffffffffffffffff163373ffffffffffffffffffffffffffffffffffffffff16145b62001343576040517f08c379a00000000000000000000000000000000000000000000000000000000081526004016200133a9062003d6d565b60405180910390fd5b600660008373ffffffffffffffffffffffffffffffffffffffff1673ffffffffffffffffffffffffffffffffffffffff16815260200190815260200160002060008273ffffffffffffffffffffffffffffffffffffffff1673ffffffffffffffffffffffffffffffffffffffff16815260200190815260200160002060020160009054906101000a900460ff161562001413576040517f08c379a00000000000000000000000000000000000000000000000000000000081526004016200140a9062003ca1565b60405180910390fd5b62001431826001806040518060200160405280600081525062001a48565b6001600660008473ffffffffffffffffffffffffffffffffffffffff1673ffffffffffffffffffffffffffffffffffffffff16815260200190815260200160002060008373ffffffffffffffffffffffffffffffffffffffff1673ffffffffffffffffffffffffffffffffffffffff16815260200190815260200160002060020160006101000a81548160ff0219169083151502179055505050565b6000600360009054906101000a900473ffffffffffffffffffffffffffffffffffffffff16905090565b6200150d6200150562001c0c565b838362002063565b5050565b806200151f336002620004f3565b101562001563576040517f08c379a00000000000000000000000000000000000000000000000000000000081526004016200155a9062003bf7565b60405180910390fd5b60006103e8826200157591906200405b565b9050620015943360026103e8846200158e919062004093565b620021d5565b620015b2836001836040518060200160405280600081525062001a48565b505050565b620015c1620019c3565b60005b8151811015620016fa576001600660008673ffffffffffffffffffffffffffffffffffffffff1673ffffffffffffffffffffffffffffffffffffffff16815260200190815260200160002060008573ffffffffffffffffffffffffffffffffffffffff1673ffffffffffffffffffffffffffffffffffffffff16815260200190815260200160002060010160008484815181106200168b577f4e487b7100000000000000000000000000000000000000000000000000000000600052603260045260246000fd5b602002602001015173ffffffffffffffffffffffffffffffffffffffff1673ffffffffffffffffffffffffffffffffffffffff16815260200190815260200160002060006101000a81548160ff0219169083151502179055508080620016f19062004243565b915050620015c4565b50505050565b600281565b6200170f620019c3565b6001600560008373ffffffffffffffffffffffffffffffffffffffff1673ffffffffffffffffffffffffffffffffffffffff16815260200190815260200160002060006101000a81548160ff02191690831515021790555050565b6000600160008473ffffffffffffffffffffffffffffffffffffffff1673ffffffffffffffffffffffffffffffffffffffff16815260200190815260200160002060008373ffffffffffffffffffffffffffffffffffffffff1673ffffffffffffffffffffffffffffffffffffffff16815260200190815260200160002060009054906101000a900460ff16905092915050565b6200180862001c0c565b73ffffffffffffffffffffffffffffffffffffffff168573ffffffffffffffffffffffffffffffffffffffff16148062001853575062001852856200184c62001c0c565b6200176a565b5b62001895576040517f08c379a00000000000000000000000000000000000000000000000000000000081526004016200188c9062003b6f565b60405180910390fd5b620018a485858585856200242e565b5050505050565b620018b5620019c3565b600073ffffffffffffffffffffffffffffffffffffffff168173ffffffffffffffffffffffffffffffffffffffff16141562001928576040517f08c379a00000000000000000000000000000000000000000000000000000000081526004016200191f9062003bd5565b60405180910390fd5b620019338162001f9d565b50565b6000808273ffffffffffffffffffffffffffffffffffffffff163b119050919050565b60007f01ffc9a7000000000000000000000000000000000000000000000000000000007bffffffffffffffffffffffffffffffffffffffffffffffffffffffff1916827bffffffffffffffffffffffffffffffffffffffffffffffffffffffff1916149050919050565b620019cd62001c0c565b73ffffffffffffffffffffffffffffffffffffffff16620019ed620014cd565b73ffffffffffffffffffffffffffffffffffffffff161462001a46576040517f08c379a000000000000000000000000000000000000000000000000000000000815260040162001a3d9062003d29565b60405180910390fd5b565b600073ffffffffffffffffffffffffffffffffffffffff168473ffffffffffffffffffffffffffffffffffffffff16141562001abb576040517f08c379a000000000000000000000000000000000000000000000000000000000815260040162001ab29062003df5565b60405180910390fd5b600062001ac762001c0c565b9050600062001ad685620026e0565b9050600062001ae585620026e0565b905062001af883600089858589620027a9565b8460008088815260200190815260200160002060008973ffffffffffffffffffffffffffffffffffffffff1673ffffffffffffffffffffffffffffffffffffffff168152602001908152602001600020600082825462001b59919062003ffe565b925050819055508673ffffffffffffffffffffffffffffffffffffffff16600073ffffffffffffffffffffffffffffffffffffffff168473ffffffffffffffffffffffffffffffffffffffff167fc3d58168c5ae7397731d063d5bbf3d657854427343f4c083240f7aacaa2d0f62898960405162001bd992919062003e34565b60405180910390a462001bf283600089858589620027b1565b62001c0383600089898989620027b9565b50505050505050565b600033905090565b815183511462001c5b576040517f08c379a000000000000000000000000000000000000000000000000000000000815260040162001c529062003dd3565b60405180910390fd5b600073ffffffffffffffffffffffffffffffffffffffff168473ffffffffffffffffffffffffffffffffffffffff16141562001cce576040517f08c379a000000000000000000000000000000000000000000000000000000000815260040162001cc59062003c7f565b60405180910390fd5b600062001cda62001c0c565b905062001cec818787878787620027a9565b60005b845181101562001ef457600085828151811062001d35577f4e487b7100000000000000000000000000000000000000000000000000000000600052603260045260246000fd5b60200260200101519050600085838151811062001d7b577f4e487b7100000000000000000000000000000000000000000000000000000000600052603260045260246000fd5b60200260200101519050600080600084815260200190815260200160002060008b73ffffffffffffffffffffffffffffffffffffffff1673ffffffffffffffffffffffffffffffffffffffff1681526020019081526020016000205490508181101562001e1f576040517f08c379a000000000000000000000000000000000000000000000000000000000815260040162001e169062003d07565b60405180910390fd5b81810360008085815260200190815260200160002060008c73ffffffffffffffffffffffffffffffffffffffff1673ffffffffffffffffffffffffffffffffffffffff168152602001908152602001600020819055508160008085815260200190815260200160002060008b73ffffffffffffffffffffffffffffffffffffffff1673ffffffffffffffffffffffffffffffffffffffff168152602001908152602001600020600082825462001ed6919062003ffe565b925050819055505050508062001eec9062004243565b905062001cef565b508473ffffffffffffffffffffffffffffffffffffffff168673ffffffffffffffffffffffffffffffffffffffff168273ffffffffffffffffffffffffffffffffffffffff167f4a39dc06d4c0dbc64b70af90fd698a233a518aa5d07e595d983b8c0526c8f7fb878760405162001f6d92919062003aa4565b60405180910390a462001f85818787878787620027b1565b62001f95818787878787620029b8565b505050505050565b6000600360009054906101000a900473ffffffffffffffffffffffffffffffffffffffff16905081600360006101000a81548173ffffffffffffffffffffffffffffffffffffffff021916908373ffffffffffffffffffffffffffffffffffffffff1602179055508173ffffffffffffffffffffffffffffffffffffffff168173ffffffffffffffffffffffffffffffffffffffff167f8be0079c531659141344cd1fd0a4f28419497f9722a3daafe3b4186f6b6457e060405160405180910390a35050565b8173ffffffffffffffffffffffffffffffffffffffff168373ffffffffffffffffffffffffffffffffffffffff161415620020d5576040517f08c379a0000000000000000000000000000000000000000000000000000000008152600401620020cc9062003d8f565b60405180910390fd5b80600160008573ffffffffffffffffffffffffffffffffffffffff1673ffffffffffffffffffffffffffffffffffffffff16815260200190815260200160002060008473ffffffffffffffffffffffffffffffffffffffff1673ffffffffffffffffffffffffffffffffffffffff16815260200190815260200160002060006101000a81548160ff0219169083151502179055508173ffffffffffffffffffffffffffffffffffffffff168373ffffffffffffffffffffffffffffffffffffffff167f17307eab39ab6107e8899845ad3d59bd9653f200f220920489ca2b5937696c3183604051620021c8919062003adf565b60405180910390a3505050565b600073ffffffffffffffffffffffffffffffffffffffff168373ffffffffffffffffffffffffffffffffffffffff16141562002248576040517f08c379a00000000000000000000000000000000000000000000000000000000081526004016200223f9062003ce5565b60405180910390fd5b60006200225462001c0c565b905060006200226384620026e0565b905060006200227284620026e0565b90506200229483876000858560405180602001604052806000815250620027a9565b600080600087815260200190815260200160002060008873ffffffffffffffffffffffffffffffffffffffff1673ffffffffffffffffffffffffffffffffffffffff168152602001908152602001600020549050848110156200232e576040517f08c379a0000000000000000000000000000000000000000000000000000000008152600401620023259062003c19565b60405180910390fd5b84810360008088815260200190815260200160002060008973ffffffffffffffffffffffffffffffffffffffff1673ffffffffffffffffffffffffffffffffffffffff16815260200190815260200160002081905550600073ffffffffffffffffffffffffffffffffffffffff168773ffffffffffffffffffffffffffffffffffffffff168573ffffffffffffffffffffffffffffffffffffffff167fc3d58168c5ae7397731d063d5bbf3d657854427343f4c083240f7aacaa2d0f628989604051620023fd92919062003e34565b60405180910390a46200242584886000868660405180602001604052806000815250620027b1565b50505050505050565b600073ffffffffffffffffffffffffffffffffffffffff168473ffffffffffffffffffffffffffffffffffffffff161415620024a1576040517f08c379a0000000000000000000000000000000000000000000000000000000008152600401620024989062003c7f565b60405180910390fd5b6000620024ad62001c0c565b90506000620024bc85620026e0565b90506000620024cb85620026e0565b9050620024dd838989858589620027a9565b600080600088815260200190815260200160002060008a73ffffffffffffffffffffffffffffffffffffffff1673ffffffffffffffffffffffffffffffffffffffff1681526020019081526020016000205490508581101562002577576040517f08c379a00000000000000000000000000000000000000000000000000000000081526004016200256e9062003d07565b60405180910390fd5b85810360008089815260200190815260200160002060008b73ffffffffffffffffffffffffffffffffffffffff1673ffffffffffffffffffffffffffffffffffffffff168152602001908152602001600020819055508560008089815260200190815260200160002060008a73ffffffffffffffffffffffffffffffffffffffff1673ffffffffffffffffffffffffffffffffffffffff16815260200190815260200160002060008282546200262e919062003ffe565b925050819055508773ffffffffffffffffffffffffffffffffffffffff168973ffffffffffffffffffffffffffffffffffffffff168573ffffffffffffffffffffffffffffffffffffffff167fc3d58168c5ae7397731d063d5bbf3d657854427343f4c083240f7aacaa2d0f628a8a604051620026ad92919062003e34565b60405180910390a4620026c5848a8a86868a620027b1565b620026d5848a8a8a8a8a620027b9565b505050505050505050565b60606000600167ffffffffffffffff81111562002726577f4e487b7100000000000000000000000000000000000000000000000000000000600052604160045260246000fd5b604051908082528060200260200182016040528015620027555781602001602082028036833780820191505090505b509050828160008151811062002794577f4e487b7100000000000000000000000000000000000000000000000000000000600052603260045260246000fd5b60200260200101818152505080915050919050565b505050505050565b505050505050565b620027da8473ffffffffffffffffffffffffffffffffffffffff1662001936565b15620029b0578373ffffffffffffffffffffffffffffffffffffffff1663f23a6e6187878686866040518663ffffffff1660e01b81526004016200282395949392919062003a1c565b602060405180830381600087803b1580156200283e57600080fd5b505af19250505080156200287257506040513d601f19601f820116820180604052508101906200286f919062003364565b60015b6200292457620028816200434d565b806308c379a01415620028e557506200289962004973565b80620028a65750620028e7565b806040517f08c379a0000000000000000000000000000000000000000000000000000000008152600401620028dc919062003b29565b60405180910390fd5b505b6040517f08c379a00000000000000000000000000000000000000000000000000000000081526004016200291b9062003b4d565b60405180910390fd5b63f23a6e6160e01b7bffffffffffffffffffffffffffffffffffffffffffffffffffffffff1916817bffffffffffffffffffffffffffffffffffffffffffffffffffffffff191614620029ae576040517f08c379a0000000000000000000000000000000000000000000000000000000008152600401620029a59062003b91565b60405180910390fd5b505b505050505050565b620029d98473ffffffffffffffffffffffffffffffffffffffff1662001936565b1562002baf578373ffffffffffffffffffffffffffffffffffffffff1663bc197c8187878686866040518663ffffffff1660e01b815260040162002a22959493929190620039aa565b602060405180830381600087803b15801562002a3d57600080fd5b505af192505050801562002a7157506040513d601f19601f8201168201806040525081019062002a6e919062003364565b60015b62002b235762002a806200434d565b806308c379a0141562002ae4575062002a9862004973565b8062002aa5575062002ae6565b806040517f08c379a000000000000000000000000000000000000000000000000000000000815260040162002adb919062003b29565b60405180910390fd5b505b6040517f08c379a000000000000000000000000000000000000000000000000000000000815260040162002b1a9062003b4d565b60405180910390fd5b63bc197c8160e01b7bffffffffffffffffffffffffffffffffffffffffffffffffffffffff1916817bffffffffffffffffffffffffffffffffffffffffffffffffffffffff19161462002bad576040517f08c379a000000000000000000000000000000000000000000000000000000000815260040162002ba49062003b91565b60405180910390fd5b505b505050505050565b6114788062004a7e83390190565b82805462002bd390620041d7565b90600052602060002090601f01602090048101928262002bf7576000855562002c43565b82601f1062002c1257805160ff191683800117855562002c43565b8280016001018555821562002c43579182015b8281111562002c4257825182559160200191906001019062002c25565b5b50905062002c52919062002c56565b5090565b5b8082111562002c7157600081600090555060010162002c57565b5090565b600062002c8c62002c868462003e8a565b62003e61565b9050808382526020820190508285602086028201111562002cac57600080fd5b60005b8581101562002ce0578162002cc5888262002de9565b84526020840193506020830192505060018101905062002caf565b5050509392505050565b600062002d0162002cfb8462003eb9565b62003e61565b9050808382526020820190508285602086028201111562002d2157600080fd5b60005b8581101562002d55578162002d3a888262002f10565b84526020840193506020830192505060018101905062002d24565b5050509392505050565b600062002d7662002d708462003ee8565b62003e61565b90508281526020810184848401111562002d8f57600080fd5b62002d9c84828562004192565b509392505050565b600062002dbb62002db58462003f1e565b62003e61565b90508281526020810184848401111562002dd457600080fd5b62002de184828562004192565b509392505050565b60008135905062002dfa8162004a15565b92915050565b600082601f83011262002e1257600080fd5b813562002e2484826020860162002c75565b91505092915050565b600082601f83011262002e3f57600080fd5b813562002e5184826020860162002cea565b91505092915050565b60008135905062002e6b8162004a2f565b92915050565b60008151905062002e828162004a2f565b92915050565b60008135905062002e998162004a49565b92915050565b60008151905062002eb08162004a49565b92915050565b600082601f83011262002ec857600080fd5b813562002eda84826020860162002d5f565b91505092915050565b600082601f83011262002ef557600080fd5b813562002f0784826020860162002da4565b91505092915050565b60008135905062002f218162004a63565b92915050565b60006020828403121562002f3a57600080fd5b600062002f4a8482850162002de9565b91505092915050565b6000806040838503121562002f6757600080fd5b600062002f778582860162002de9565b925050602062002f8a8582860162002de9565b9150509250929050565b60008060006060848603121562002faa57600080fd5b600062002fba8682870162002de9565b935050602062002fcd8682870162002de9565b925050604062002fe08682870162002de9565b9150509250925092565b6000806000606084860312156200300057600080fd5b6000620030108682870162002de9565b9350506020620030238682870162002de9565b925050604084013567ffffffffffffffff8111156200304157600080fd5b6200304f8682870162002e00565b9150509250925092565b600080600080600060a086880312156200307257600080fd5b6000620030828882890162002de9565b9550506020620030958882890162002de9565b945050604086013567ffffffffffffffff811115620030b357600080fd5b620030c18882890162002e2d565b935050606086013567ffffffffffffffff811115620030df57600080fd5b620030ed8882890162002e2d565b925050608086013567ffffffffffffffff8111156200310b57600080fd5b620031198882890162002eb6565b9150509295509295909350565b600080600080600060a086880312156200313f57600080fd5b60006200314f8882890162002de9565b9550506020620031628882890162002de9565b9450506040620031758882890162002f10565b9350506060620031888882890162002f10565b925050608086013567ffffffffffffffff811115620031a657600080fd5b620031b48882890162002eb6565b9150509295509295909350565b60008060408385031215620031d557600080fd5b6000620031e58582860162002de9565b9250506020620031f88582860162002e5a565b9150509250929050565b600080604083850312156200321657600080fd5b6000620032268582860162002de9565b9250506020620032398582860162002f10565b9150509250929050565b6000806000606084860312156200325957600080fd5b6000620032698682870162002de9565b93505060206200327c8682870162002f10565b92505060406200328f8682870162002f10565b9150509250925092565b60008060408385031215620032ad57600080fd5b600083013567ffffffffffffffff811115620032c857600080fd5b620032d68582860162002e00565b925050602083013567ffffffffffffffff811115620032f457600080fd5b620033028582860162002e2d565b9150509250929050565b6000602082840312156200331f57600080fd5b60006200332f8482850162002e71565b91505092915050565b6000602082840312156200334b57600080fd5b60006200335b8482850162002e88565b91505092915050565b6000602082840312156200337757600080fd5b6000620033878482850162002e9f565b91505092915050565b600060208284031215620033a357600080fd5b6000620033b38482850162002f10565b91505092915050565b60008060408385031215620033d057600080fd5b6000620033e08582860162002f10565b925050602083013567ffffffffffffffff811115620033fe57600080fd5b6200340c8582860162002ee3565b9150509250929050565b60006200342483836200344a565b60208301905092915050565b60006200343e838362003917565b60208301905092915050565b6200345581620040f4565b82525050565b6200346681620040f4565b82525050565b6000620034798262003f74565b62003485818562003fba565b9350620034928362003f54565b8060005b83811015620034c9578151620034ad888262003416565b9750620034ba8362003fa0565b92505060018101905062003496565b5085935050505092915050565b6000620034e38262003f7f565b620034ef818562003fcb565b9350620034fc8362003f64565b8060005b838110156200353357815162003517888262003430565b9750620035248362003fad565b92505060018101905062003500565b5085935050505092915050565b6200354b8162004108565b82525050565b60006200355e8262003f8a565b6200356a818562003fdc565b93506200357c818560208601620041a1565b620035878162004372565b840191505092915050565b6200359d816200416a565b82525050565b6000620035b08262003f95565b620035bc818562003fed565b9350620035ce818560208601620041a1565b620035d98162004372565b840191505092915050565b6000620035f360348362003fed565b9150620036008262004390565b604082019050919050565b60006200361a602f8362003fed565b91506200362782620043df565b604082019050919050565b60006200364160288362003fed565b91506200364e826200442e565b604082019050919050565b600062003668602c8362003fed565b915062003675826200447d565b604082019050919050565b60006200368f60268362003fed565b91506200369c82620044cc565b604082019050919050565b6000620036b660238362003fed565b9150620036c3826200451b565b604082019050919050565b6000620036dd60248362003fed565b9150620036ea826200456a565b604082019050919050565b60006200370460118362003fed565b91506200371182620045b9565b602082019050919050565b60006200372b602a8362003fed565b91506200373882620045e2565b604082019050919050565b60006200375260258362003fed565b91506200375f8262004631565b604082019050919050565b600062003779601a8362003fed565b9150620037868262004680565b602082019050919050565b6000620037a0601d8362003fed565b9150620037ad82620046a9565b602082019050919050565b6000620037c760238362003fed565b9150620037d482620046d2565b604082019050919050565b6000620037ee602a8362003fed565b9150620037fb8262004721565b604082019050919050565b60006200381560208362003fed565b9150620038228262004770565b602082019050919050565b60006200383c60218362003fed565b9150620038498262004799565b604082019050919050565b60006200386360358362003fed565b91506200387082620047e8565b604082019050919050565b60006200388a60298362003fed565b9150620038978262004837565b604082019050919050565b6000620038b160298362003fed565b9150620038be8262004886565b604082019050919050565b6000620038d860288362003fed565b9150620038e582620048d5565b604082019050919050565b6000620038ff60218362003fed565b91506200390c8262004924565b604082019050919050565b620039228162004160565b82525050565b620039338162004160565b82525050565b60006020820190506200395060008301846200345b565b92915050565b60006080820190506200396d60008301876200345b565b6200397c60208301866200345b565b6200398b60408301856200345b565b81810360608301526200399f81846200346c565b905095945050505050565b600060a082019050620039c160008301886200345b565b620039d060208301876200345b565b8181036040830152620039e48186620034d6565b90508181036060830152620039fa8185620034d6565b9050818103608083015262003a10818462003551565b90509695505050505050565b600060a08201905062003a3360008301886200345b565b62003a4260208301876200345b565b62003a51604083018662003928565b62003a60606083018562003928565b818103608083015262003a74818462003551565b90509695505050505050565b6000602082019050818103600083015262003a9c8184620034d6565b905092915050565b6000604082019050818103600083015262003ac08185620034d6565b9050818103602083015262003ad68184620034d6565b90509392505050565b600060208201905062003af6600083018462003540565b92915050565b600060408201905062003b13600083018562003592565b62003b22602083018462003540565b9392505050565b6000602082019050818103600083015262003b458184620035a3565b905092915050565b6000602082019050818103600083015262003b6881620035e4565b9050919050565b6000602082019050818103600083015262003b8a816200360b565b9050919050565b6000602082019050818103600083015262003bac8162003632565b9050919050565b6000602082019050818103600083015262003bce8162003659565b9050919050565b6000602082019050818103600083015262003bf08162003680565b9050919050565b6000602082019050818103600083015262003c1281620036a7565b9050919050565b6000602082019050818103600083015262003c3481620036ce565b9050919050565b6000602082019050818103600083015262003c5681620036f5565b9050919050565b6000602082019050818103600083015262003c78816200371c565b9050919050565b6000602082019050818103600083015262003c9a8162003743565b9050919050565b6000602082019050818103600083015262003cbc816200376a565b9050919050565b6000602082019050818103600083015262003cde8162003791565b9050919050565b6000602082019050818103600083015262003d0081620037b8565b9050919050565b6000602082019050818103600083015262003d2281620037df565b9050919050565b6000602082019050818103600083015262003d448162003806565b9050919050565b6000602082019050818103600083015262003d66816200382d565b9050919050565b6000602082019050818103600083015262003d888162003854565b9050919050565b6000602082019050818103600083015262003daa816200387b565b9050919050565b6000602082019050818103600083015262003dcc81620038a2565b9050919050565b6000602082019050818103600083015262003dee81620038c9565b9050919050565b6000602082019050818103600083015262003e1081620038f0565b9050919050565b600060208201905062003e2e600083018462003928565b92915050565b600060408201905062003e4b600083018562003928565b62003e5a602083018462003928565b9392505050565b600062003e6d62003e80565b905062003e7b82826200420d565b919050565b6000604051905090565b600067ffffffffffffffff82111562003ea85762003ea76200431e565b5b602082029050602081019050919050565b600067ffffffffffffffff82111562003ed75762003ed66200431e565b5b602082029050602081019050919050565b600067ffffffffffffffff82111562003f065762003f056200431e565b5b62003f118262004372565b9050602081019050919050565b600067ffffffffffffffff82111562003f3c5762003f3b6200431e565b5b62003f478262004372565b9050602081019050919050565b6000819050602082019050919050565b6000819050602082019050919050565b600081519050919050565b600081519050919050565b600081519050919050565b600081519050919050565b6000602082019050919050565b6000602082019050919050565b600082825260208201905092915050565b600082825260208201905092915050565b600082825260208201905092915050565b600082825260208201905092915050565b60006200400b8262004160565b9150620040188362004160565b9250827fffffffffffffffffffffffffffffffffffffffffffffffffffffffffffffffff0382111562004050576200404f62004291565b5b828201905092915050565b6000620040688262004160565b9150620040758362004160565b925082620040885762004087620042c0565b5b828204905092915050565b6000620040a08262004160565b9150620040ad8362004160565b9250817fffffffffffffffffffffffffffffffffffffffffffffffffffffffffffffffff0483118215151615620040e957620040e862004291565b5b828202905092915050565b6000620041018262004140565b9050919050565b60008115159050919050565b60007fffffffff0000000000000000000000000000000000000000000000000000000082169050919050565b600073ffffffffffffffffffffffffffffffffffffffff82169050919050565b6000819050919050565b600062004177826200417e565b9050919050565b60006200418b8262004140565b9050919050565b82818337600083830152505050565b60005b83811015620041c1578082015181840152602081019050620041a4565b83811115620041d1576000848401525b50505050565b60006002820490506001821680620041f057607f821691505b60208210811415620042075762004206620042ef565b5b50919050565b620042188262004372565b810181811067ffffffffffffffff821117156200423a57620042396200431e565b5b80604052505050565b6000620042508262004160565b91507fffffffffffffffffffffffffffffffffffffffffffffffffffffffffffffffff82141562004286576200428562004291565b5b600182019050919050565b7f4e487b7100000000000000000000000000000000000000000000000000000000600052601160045260246000fd5b7f4e487b7100000000000000000000000000000000000000000000000000000000600052601260045260246000fd5b7f4e487b7100000000000000000000000000000000000000000000000000000000600052602260045260246000fd5b7f4e487b7100000000000000000000000000000000000000000000000000000000600052604160045260246000fd5b600060033d11156200436f5760046000803e6200436c60005162004383565b90505b90565b6000601f19601f8301169050919050565b60008160e01c9050919050565b7f455243313135353a207472616e7366657220746f206e6f6e204552433131353560008201527f526563656976657220696d706c656d656e746572000000000000000000000000602082015250565b7f455243313135353a2063616c6c6572206973206e6f7420746f6b656e206f776e60008201527f6572206e6f7220617070726f7665640000000000000000000000000000000000602082015250565b7f455243313135353a204552433131353552656365697665722072656a6563746560008201527f6420746f6b656e73000000000000000000000000000000000000000000000000602082015250565b7f526563697069656e7420697320756e61626c6520746f20636c61696d2077697460008201527f6820746869732070617065720000000000000000000000000000000000000000602082015250565b7f4f776e61626c653a206e6577206f776e657220697320746865207a65726f206160008201527f6464726573730000000000000000000000000000000000000000000000000000602082015250565b7f53656e646572206d757374206861766520656e6f7567682073616e6420616d6f60008201527f756e740000000000000000000000000000000000000000000000000000000000602082015250565b7f455243313135353a206275726e20616d6f756e7420657863656564732062616c60008201527f616e636500000000000000000000000000000000000000000000000000000000602082015250565b7f5061706572206d75737420657869737473000000000000000000000000000000600082015250565b7f455243313135353a2061646472657373207a65726f206973206e6f742061207660008201527f616c6964206f776e657200000000000000000000000000000000000000000000602082015250565b7f455243313135353a207472616e7366657220746f20746865207a65726f20616460008201527f6472657373000000000000000000000000000000000000000000000000000000602082015250565b7f5363686f6c617220627269636b2077617320636c61696d656421000000000000600082015250565b7f526563697069656e74206d757374206f776e2074686973207061706572000000600082015250565b7f455243313135353a206275726e2066726f6d20746865207a65726f206164647260008201527f6573730000000000000000000000000000000000000000000000000000000000602082015250565b7f455243313135353a20696e73756666696369656e742062616c616e636520666f60008201527f72207472616e7366657200000000000000000000000000000000000000000000602082015250565b7f4f776e61626c653a2063616c6c6572206973206e6f7420746865206f776e6572600082015250565b7f506170657220636f6e74726163742063616e6e6f7420626520636c61696d656460008201527f2100000000000000000000000000000000000000000000000000000000000000602082015250565b7f4f6e6c792074686520617574686f72206f7220746865206f776e65722063616e60008201527f20636c61696d207468697320636f6e7472616374210000000000000000000000602082015250565b7f455243313135353a2073657474696e6720617070726f76616c2073746174757360008201527f20666f722073656c660000000000000000000000000000000000000000000000602082015250565b7f455243313135353a206163636f756e747320616e6420696473206c656e67746860008201527f206d69736d617463680000000000000000000000000000000000000000000000602082015250565b7f455243313135353a2069647320616e6420616d6f756e7473206c656e6774682060008201527f6d69736d61746368000000000000000000000000000000000000000000000000602082015250565b7f455243313135353a206d696e7420746f20746865207a65726f2061646472657360008201527f7300000000000000000000000000000000000000000000000000000000000000602082015250565b600060443d1015620049855762004a12565b6200498f62003e80565b60043d036004823e80513d602482011167ffffffffffffffff82111715620049b957505062004a12565b808201805167ffffffffffffffff811115620049d9575050505062004a12565b80602083010160043d038501811115620049f857505050505062004a12565b62004a09826020018501866200420d565b82955050505050505b90565b62004a2081620040f4565b811462004a2c57600080fd5b50565b62004a3a8162004108565b811462004a4657600080fd5b50565b62004a548162004114565b811462004a6057600080fd5b50565b62004a6e8162004160565b811462004a7a57600080fd5b5056fe60806040523480156200001157600080fd5b5060405162001478380380620014788339818101604052810190620000379190620004b2565b620000576200004b620001dc60201b60201c565b620001e460201b60201c565b6200006884620002a860201b60201c565b82600160006101000a81548173ffffffffffffffffffffffffffffffffffffffff021916908373ffffffffffffffffffffffffffffffffffffffff16021790555081600260006101000a81548173ffffffffffffffffffffffffffffffffffffffff021916908373ffffffffffffffffffffffffffffffffffffffff1602179055506000600760006101000a81548160ff0219169083151502179055506000600681905550805160058190555060005b8151811015620001d15760016003600084848151811062000162577f4e487b7100000000000000000000000000000000000000000000000000000000600052603260045260246000fd5b602002602001015173ffffffffffffffffffffffffffffffffffffffff1673ffffffffffffffffffffffffffffffffffffffff16815260200190815260200160002060006101000a81548160ff0219169083151502179055508080620001c890620006a6565b91505062000118565b5050505050620007f5565b600033905090565b60008060009054906101000a900473ffffffffffffffffffffffffffffffffffffffff169050816000806101000a81548173ffffffffffffffffffffffffffffffffffffffff021916908373ffffffffffffffffffffffffffffffffffffffff1602179055508173ffffffffffffffffffffffffffffffffffffffff168173ffffffffffffffffffffffffffffffffffffffff167f8be0079c531659141344cd1fd0a4f28419497f9722a3daafe3b4186f6b6457e060405160405180910390a35050565b620002b86200033f60201b60201c565b600073ffffffffffffffffffffffffffffffffffffffff168173ffffffffffffffffffffffffffffffffffffffff1614156200032b576040517f08c379a0000000000000000000000000000000000000000000000000000000008152600401620003229062000585565b60405180910390fd5b6200033c81620001e460201b60201c565b50565b6200034f620001dc60201b60201c565b73ffffffffffffffffffffffffffffffffffffffff1662000375620003d060201b60201c565b73ffffffffffffffffffffffffffffffffffffffff1614620003ce576040517f08c379a0000000000000000000000000000000000000000000000000000000008152600401620003c590620005a7565b60405180910390fd5b565b60008060009054906101000a900473ffffffffffffffffffffffffffffffffffffffff16905090565b6000620004106200040a84620005f2565b620005c9565b905080838252602082019050828560208602820111156200043057600080fd5b60005b858110156200046457816200044988826200046e565b84526020840193506020830192505060018101905062000433565b5050509392505050565b6000815190506200047f81620007db565b92915050565b600082601f8301126200049757600080fd5b8151620004a9848260208601620003f9565b91505092915050565b60008060008060808587031215620004c957600080fd5b6000620004d9878288016200046e565b9450506020620004ec878288016200046e565b9350506040620004ff878288016200046e565b925050606085015167ffffffffffffffff8111156200051d57600080fd5b6200052b8782880162000485565b91505092959194509250565b60006200054660268362000621565b9150620005538262000763565b604082019050919050565b60006200056d60208362000621565b91506200057a82620007b2565b602082019050919050565b60006020820190508181036000830152620005a08162000537565b9050919050565b60006020820190508181036000830152620005c2816200055e565b9050919050565b6000620005d5620005e8565b9050620005e3828262000670565b919050565b6000604051905090565b600067ffffffffffffffff82111562000610576200060f62000723565b5b602082029050602081019050919050565b600082825260208201905092915050565b60006200063f8262000646565b9050919050565b600073ffffffffffffffffffffffffffffffffffffffff82169050919050565b6000819050919050565b6200067b8262000752565b810181811067ffffffffffffffff821117156200069d576200069c62000723565b5b80604052505050565b6000620006b38262000666565b91507fffffffffffffffffffffffffffffffffffffffffffffffffffffffffffffffff821415620006e957620006e8620006f4565b5b600182019050919050565b7f4e487b7100000000000000000000000000000000000000000000000000000000600052601160045260246000fd5b7f4e487b7100000000000000000000000000000000000000000000000000000000600052604160045260246000fd5b6000601f19601f8301169050919050565b7f4f776e61626c653a206e6577206f776e657220697320746865207a65726f206160008201527f6464726573730000000000000000000000000000000000000000000000000000602082015250565b7f4f776e61626c653a2063616c6c6572206973206e6f7420746865206f776e6572600082015250565b620007e68162000632565b8114620007f257600080fd5b50565b610c7380620008056000396000f3fe608060405234801561001057600080fd5b50600436106100f55760003560e01c8063715018a6116100975780639107c15b116100665780639107c15b1461022e578063a6c3e6b91461024c578063f2fde38b1461026a578063f7cbb1b214610286576100f5565b8063715018a6146101cc57806389f4bf09146101d65780638da5cb5b146101f257806390da146214610210576100f5565b806312c56989116100d357806312c569891461015457806322ab3af914610174578063610be654146101a45780636145ca02146101ae576100f5565b806302fb0632146100fa5780630c107357146101185780630d15fd7714610136575b600080fd5b6101026102b6565b60405161010f919061098f565b60405180910390f35b6101206102bc565b60405161012d91906108d9565b60405180910390f35b61013e6102e2565b60405161014b919061098f565b60405180910390f35b61015c6102e8565b60405161016b939291906109aa565b60405180910390f35b61018e600480360381019061018991906107ce565b61030e565b60405161019b91906108f4565b60405180910390f35b6101ac61032e565b005b6101b66103a3565b6040516101c391906108f4565b60405180910390f35b6101d46103b6565b005b6101f060048036038101906101eb91906107f7565b6103ca565b005b6101fa610522565b60405161020791906108d9565b60405180910390f35b61021861054b565b60405161022591906108f4565b60405180910390f35b61023661055e565b60405161024391906108f4565b60405180910390f35b610254610590565b60405161026191906108d9565b60405180910390f35b610284600480360381019061027f91906107ce565b6105b6565b005b6102a0600480360381019061029b91906107ce565b61063a565b6040516102ad91906108f4565b60405180910390f35b60065481565b600260009054906101000a900473ffffffffffffffffffffffffffffffffffffffff1681565b60055481565b6000806000600554600654600760009054906101000a900460ff16925092509250909192565b60046020528060005260406000206000915054906101000a900460ff1681565b61033661065a565b600760009054906101000a900460ff1615610386576040517f08c379a000000000000000000000000000000000000000000000000000000000815260040161037d9061094f565b60405180910390fd5b6001600760006101000a81548160ff021916908315150217905550565b600760019054906101000a900460ff1681565b6103be61065a565b6103c860006106d8565b565b600760009054906101000a900460ff161561041a576040517f08c379a00000000000000000000000000000000000000000000000000000000081526004016104119061094f565b60405180910390fd5b600360003373ffffffffffffffffffffffffffffffffffffffff1673ffffffffffffffffffffffffffffffffffffffff16815260200190815260200160002060009054906101000a900460ff166104a6576040517f08c379a000000000000000000000000000000000000000000000000000000000815260040161049d9061092f565b60405180910390fd5b6000600360003373ffffffffffffffffffffffffffffffffffffffff1673ffffffffffffffffffffffffffffffffffffffff16815260200190815260200160002060006101000a81548160ff021916908315150217905550801561051f5760016006600082825461051791906109f2565b925050819055505b50565b60008060009054906101000a900473ffffffffffffffffffffffffffffffffffffffff16905090565b600760029054906101000a900460ff1681565b6000600760009054906101000a900460ff16801561058b575060026005546105869190610a48565b600654115b905090565b600160009054906101000a900473ffffffffffffffffffffffffffffffffffffffff1681565b6105be61065a565b600073ffffffffffffffffffffffffffffffffffffffff168173ffffffffffffffffffffffffffffffffffffffff16141561062e576040517f08c379a00000000000000000000000000000000000000000000000000000000081526004016106259061090f565b60405180910390fd5b610637816106d8565b50565b60036020528060005260406000206000915054906101000a900460ff1681565b61066261079c565b73ffffffffffffffffffffffffffffffffffffffff16610680610522565b73ffffffffffffffffffffffffffffffffffffffff16146106d6576040517f08c379a00000000000000000000000000000000000000000000000000000000081526004016106cd9061096f565b60405180910390fd5b565b60008060009054906101000a900473ffffffffffffffffffffffffffffffffffffffff169050816000806101000a81548173ffffffffffffffffffffffffffffffffffffffff021916908373ffffffffffffffffffffffffffffffffffffffff1602179055508173ffffffffffffffffffffffffffffffffffffffff168173ffffffffffffffffffffffffffffffffffffffff167f8be0079c531659141344cd1fd0a4f28419497f9722a3daafe3b4186f6b6457e060405160405180910390a35050565b600033905090565b6000813590506107b381610c0f565b92915050565b6000813590506107c881610c26565b92915050565b6000602082840312156107e057600080fd5b60006107ee848285016107a4565b91505092915050565b60006020828403121561080957600080fd5b6000610817848285016107b9565b91505092915050565b61082981610a79565b82525050565b61083881610a8b565b82525050565b600061084b6026836109e1565b915061085682610b1f565b604082019050919050565b600061086e6022836109e1565b915061087982610b6e565b604082019050919050565b60006108916018836109e1565b915061089c82610bbd565b602082019050919050565b60006108b46020836109e1565b91506108bf82610be6565b602082019050919050565b6108d381610ab7565b82525050565b60006020820190506108ee6000830184610820565b92915050565b6000602082019050610909600083018461082f565b92915050565b600060208201905081810360008301526109288161083e565b9050919050565b6000602082019050818103600083015261094881610861565b9050919050565b6000602082019050818103600083015261096881610884565b9050919050565b60006020820190508181036000830152610988816108a7565b9050919050565b60006020820190506109a460008301846108ca565b92915050565b60006060820190506109bf60008301866108ca565b6109cc60208301856108ca565b6109d9604083018461082f565b949350505050565b600082825260208201905092915050565b60006109fd82610ab7565b9150610a0883610ab7565b9250827fffffffffffffffffffffffffffffffffffffffffffffffffffffffffffffffff03821115610a3d57610a3c610ac1565b5b828201905092915050565b6000610a5382610ab7565b9150610a5e83610ab7565b925082610a6e57610a6d610af0565b5b828204905092915050565b6000610a8482610a97565b9050919050565b60008115159050919050565b600073ffffffffffffffffffffffffffffffffffffffff82169050919050565b6000819050919050565b7f4e487b7100000000000000000000000000000000000000000000000000000000600052601160045260246000fd5b7f4e487b7100000000000000000000000000000000000000000000000000000000600052601260045260246000fd5b7f4f776e61626c653a206e6577206f776e657220697320746865207a65726f206160008201527f6464726573730000000000000000000000000000000000000000000000000000602082015250565b7f596f7520646f206e6f7420686176652074686520726967687420746f20766f7460008201527f6521000000000000000000000000000000000000000000000000000000000000602082015250565b7f636f6e747261637420616c726561647920636c6f736564210000000000000000600082015250565b7f4f776e61626c653a2063616c6c6572206973206e6f7420746865206f776e6572600082015250565b610c1881610a79565b8114610c2357600080fd5b50565b610c2f81610a8b565b8114610c3a57600080fd5b5056fea2646970667358221220d5a1323ed16affd956eb3dd0860a1af3ffe3dbc04502e2096339c9ce8139901d64736f6c63430008010033a2646970667358221220577d8dae09a7f359ecc0a6ac5adec0a6d9b31d0d3edecb55654aa3f8fa5b1cb764736f6c6343000801003368747470733a2f2f6261666b726569617134377876726b6f796c6f6d37623569336768373771786c727a696b6a6a776c72707678677671756f326174366337616678612e697066732e6e667473746f726167652e6c696e6b2f68747470733a2f2f6261666b72656962717634616370376566627967676477696d6a776165726a6f71667071376e7165733737736379786d73736873747163686a68792e697066732e6e667473746f726167652e6c696e6b2f68747470733a2f2f697066732e696f2f697066732f62616679626569657933777a35356232637770687078323478746d6b726e6d6e68707673356864756666616232636861636c676f6b62697a7668692f7b69647d2e6a736f6e",
  "immutableReferences": {},
  "source": "// contracts/ScholarCoin.sol\r\n// SPDX-License-Identifier: MIT\r\npragma solidity ^0.8.1;\r\n\r\nimport \"@openzeppelin/contracts/token/ERC1155/ERC1155.sol\";\r\nimport \"@openzeppelin/contracts/access/Ownable.sol\";\r\n\r\ncontract PaperApprovalContract is Ownable{\r\n    address public author;\r\n    address public paperUri;\r\n    mapping (address => bool) public reviewers;\r\n    mapping (address => bool) public reviewersVoting;\r\n    uint public totalVotes;\r\n    uint public approvalCounts;\r\n    bool private contractIsClosed;\r\n    bool public approvalStatus;\r\n    bool public claimContractBrick;\r\n\r\n    constructor(address contractOwner, address _author, address _paperUri, address[] memory _reviewers) public {\r\n        transferOwnership(contractOwner);\r\n        author = _author;\r\n        paperUri = _paperUri;\r\n        contractIsClosed = false;\r\n        approvalCounts = 0;\r\n        totalVotes = _reviewers.length;\r\n        for (uint i = 0; i < _reviewers.length; i++){\r\n            reviewers[_reviewers[i]] = true;\r\n        }\r\n\r\n    }\r\n\r\n    function commitVote(bool vote) public{\r\n        require(!contractIsClosed, \"contract already closed!\");\r\n        require(reviewers[msg.sender], \"You do not have the right to vote!\");\r\n        reviewers[msg.sender] = false;\r\n        if (vote){\r\n            approvalCounts += 1;\r\n        }\r\n    }\r\n\r\n    function closeContract() public onlyOwner{\r\n        require(!contractIsClosed, \"contract already closed!\");\r\n        contractIsClosed = true;\r\n    }\r\n\r\n    function checkVotingStatus() public view returns(uint _totalVotes, uint _approvalCounts, bool _contractIsClosed){\r\n        return(totalVotes, approvalCounts, contractIsClosed);\r\n    }\r\n\r\n    function isContractClaimable() public view returns(bool){\r\n        return contractIsClosed && (approvalCounts > (totalVotes / 2));\r\n    }\r\n\r\n}\r\n\r\ncontract ScholarDaoContract is ERC1155, Ownable {\r\n    mapping (uint256 => string) private _uris;\r\n    uint256 public constant SCHOLAR_BRICK = 1;\r\n    uint256 public constant SCHOLAR_SAND = 2;\r\n\r\n    mapping (address => bool) public scholarAddresses;\r\n\r\n    //a mapping of scholar and their papper \r\n    mapping (address => mapping(address => ScholarPaper)) public scholarPaperMap;\r\n\r\n    struct ScholarPaper {\r\n        PaperApprovalContract paperContract;\r\n        mapping(address => bool) scholarSandClaimable;\r\n        bool scholarBrickClaimed;\r\n    }\r\n\r\n    constructor() public ERC1155(\"https://ipfs.io/ipfs/bafybeiey3wz55b2cwphpx24xtmkrnmnhpvs5hduffab2chaclgokbizvhi/{id}.json\") {\r\n        // set up assets\r\n        _uris[SCHOLAR_BRICK] = \"https://bafkreibqv4acp7efbyggdwimjwaerjoqfpq7nqes77scyxmsshstqchjhy.ipfs.nftstorage.link/\";\r\n        _uris[SCHOLAR_SAND] = \"https://bafkreiaq47xvrkoylom7b5i3gh77qxlrzikjjwlrpvxgvquo2at6c7afxa.ipfs.nftstorage.link/\";\r\n        _mint(msg.sender, SCHOLAR_BRICK, 10, \"\");\r\n        _mint(msg.sender, SCHOLAR_SAND, 10000, \"\");\r\n\r\n    }\r\n\r\n    function uri(uint256 tokenId) override public view returns (string memory){\r\n        //find out tokenId represents in this contract\r\n        return(_uris[tokenId]);\r\n    }\r\n\r\n    function setTokenUri(uint256 _tokenId, string memory _uri) public onlyOwner {\r\n        _uris[_tokenId] = _uri;\r\n    }\r\n\r\n    function mint(address recipient, uint256 tokenId, uint256 amount) public onlyOwner {\r\n        _mint(recipient, tokenId, amount, \"\");\r\n    }\r\n\r\n    function approveNewScholar(address recipient) public onlyOwner {\r\n        // add new scholar to address list, but they are not yet a dao member\r\n        scholarAddresses[recipient] = true;\r\n    }\r\n\r\n    function initReviewContract(address author, address paperUri, address[] memory _reviewers) public onlyOwner returns(address contractAddress){\r\n        scholarPaperMap[author][paperUri].paperContract =  new PaperApprovalContract(msg.sender, author, paperUri, _reviewers);\r\n        scholarPaperMap[author][paperUri].scholarBrickClaimed = false;\r\n        return address(scholarPaperMap[author][paperUri].paperContract);\r\n    }\r\n\r\n    function mintScholarBrick(address recipient, address paperUri) public {\r\n        require(address(scholarPaperMap[recipient][paperUri].paperContract) != address(0x0), \"Recipient must own this paper\");\r\n        require(scholarPaperMap[recipient][paperUri].paperContract.isContractClaimable(), \"Paper contract cannot be claimed!\");\r\n        require(msg.sender == recipient || msg.sender == owner(), \"Only the author or the owner can claim this contract!\");\r\n        require(!scholarPaperMap[recipient][paperUri].scholarBrickClaimed, \"Scholar brick was claimed!\");\r\n        _mint(recipient, SCHOLAR_BRICK, 1, \"\");\r\n        scholarPaperMap[recipient][paperUri].scholarBrickClaimed = true;\r\n    }\r\n\r\n    function addPaperRefferenceAddresses(address author, address paperUri, address[] memory referenceScholarAddresses) public onlyOwner{\r\n        for(uint i = 0; i < referenceScholarAddresses.length; i ++){\r\n            scholarPaperMap[author][paperUri].scholarSandClaimable[referenceScholarAddresses[i]] = true;\r\n        }\r\n    }\r\n\r\n    function mintScholarSand(address recipient, address author, address paperUri) public{\r\n        require(address(scholarPaperMap[author][paperUri].paperContract) != address(0x0), \"Paper must exists\");\r\n        require(scholarPaperMap[author][paperUri].scholarSandClaimable[recipient], \"Recipient is unable to claim with this paper\");\r\n        _mint(recipient, SCHOLAR_SAND, 5, \"\");\r\n        scholarPaperMap[author][paperUri].scholarSandClaimable[recipient] = false;\r\n\r\n    }\r\n\r\n    function convertSandToBrick(address recipient, uint amount) public{\r\n        // convert every 1 thousand sand from msg.sender into 1 brick to recipient\r\n        require(balanceOf(msg.sender, SCHOLAR_SAND) >= amount, \"Sender must have enough sand amount\");\r\n        uint convertNum = amount / 1000;\r\n        _burn(msg.sender, SCHOLAR_SAND, convertNum * 1000);\r\n        _mint(recipient, SCHOLAR_BRICK, convertNum, \"\");\r\n    }\r\n\r\n\r\n} \r\n",
  "sourcePath": "C:/DevSpot/JueXueDAO/contract/contracts/ScholarDaoContract.sol",
  "compiler": {
    "name": "solc",
    "version": "0.8.1+commit.df193b15.Emscripten.clang"
  },
  "schemaVersion": "3.3.4",
  "updatedAt": "2022-09-14T14:24:55.118Z",
  "devdoc": {
    "kind": "dev",
    "methods": {
      "balanceOf(address,uint256)": {
        "details": "See {IERC1155-balanceOf}. Requirements: - `account` cannot be the zero address."
      },
      "balanceOfBatch(address[],uint256[])": {
        "details": "See {IERC1155-balanceOfBatch}. Requirements: - `accounts` and `ids` must have the same length."
      },
      "isApprovedForAll(address,address)": {
        "details": "See {IERC1155-isApprovedForAll}."
      },
      "owner()": {
        "details": "Returns the address of the current owner."
      },
      "renounceOwnership()": {
        "details": "Leaves the contract without owner. It will not be possible to call `onlyOwner` functions anymore. Can only be called by the current owner. NOTE: Renouncing ownership will leave the contract without an owner, thereby removing any functionality that is only available to the owner."
      },
      "safeBatchTransferFrom(address,address,uint256[],uint256[],bytes)": {
        "details": "See {IERC1155-safeBatchTransferFrom}."
      },
      "safeTransferFrom(address,address,uint256,uint256,bytes)": {
        "details": "See {IERC1155-safeTransferFrom}."
      },
      "setApprovalForAll(address,bool)": {
        "details": "See {IERC1155-setApprovalForAll}."
      },
      "supportsInterface(bytes4)": {
        "details": "See {IERC165-supportsInterface}."
      },
      "transferOwnership(address)": {
        "details": "Transfers ownership of the contract to a new account (`newOwner`). Can only be called by the current owner."
      }
    },
    "version": 1
  },
  "userdoc": {
    "kind": "user",
    "methods": {},
    "version": 1
  }
}