{
  "contractName": "ScholarDaoContract",
  "abi": [
    {
      "inputs": [],
      "stateMutability": "nonpayable",
      "type": "constructor"
    },
    {
      "anonymous": false,
      "inputs": [
        {
          "indexed": true,
          "internalType": "address",
          "name": "account",
          "type": "address"
        },
        {
          "indexed": true,
          "internalType": "address",
          "name": "operator",
          "type": "address"
        },
        {
          "indexed": false,
          "internalType": "bool",
          "name": "approved",
          "type": "bool"
        }
      ],
      "name": "ApprovalForAll",
      "type": "event"
    },
    {
      "anonymous": false,
      "inputs": [
        {
          "indexed": true,
          "internalType": "address",
          "name": "previousOwner",
          "type": "address"
        },
        {
          "indexed": true,
          "internalType": "address",
          "name": "newOwner",
          "type": "address"
        }
      ],
      "name": "OwnershipTransferred",
      "type": "event"
    },
    {
      "anonymous": false,
      "inputs": [
        {
          "indexed": true,
          "internalType": "address",
          "name": "operator",
          "type": "address"
        },
        {
          "indexed": true,
          "internalType": "address",
          "name": "from",
          "type": "address"
        },
        {
          "indexed": true,
          "internalType": "address",
          "name": "to",
          "type": "address"
        },
        {
          "indexed": false,
          "internalType": "uint256[]",
          "name": "ids",
          "type": "uint256[]"
        },
        {
          "indexed": false,
          "internalType": "uint256[]",
          "name": "values",
          "type": "uint256[]"
        }
      ],
      "name": "TransferBatch",
      "type": "event"
    },
    {
      "anonymous": false,
      "inputs": [
        {
          "indexed": true,
          "internalType": "address",
          "name": "operator",
          "type": "address"
        },
        {
          "indexed": true,
          "internalType": "address",
          "name": "from",
          "type": "address"
        },
        {
          "indexed": true,
          "internalType": "address",
          "name": "to",
          "type": "address"
        },
        {
          "indexed": false,
          "internalType": "uint256",
          "name": "id",
          "type": "uint256"
        },
        {
          "indexed": false,
          "internalType": "uint256",
          "name": "value",
          "type": "uint256"
        }
      ],
      "name": "TransferSingle",
      "type": "event"
    },
    {
      "anonymous": false,
      "inputs": [
        {
          "indexed": false,
          "internalType": "string",
          "name": "value",
          "type": "string"
        },
        {
          "indexed": true,
          "internalType": "uint256",
          "name": "id",
          "type": "uint256"
        }
      ],
      "name": "URI",
      "type": "event"
    },
    {
      "inputs": [],
      "name": "SCHOLAR_BRICK",
      "outputs": [
        {
          "internalType": "uint256",
          "name": "",
          "type": "uint256"
        }
      ],
      "stateMutability": "view",
      "type": "function"
    },
    {
      "inputs": [],
      "name": "SCHOLAR_SAND",
      "outputs": [
        {
          "internalType": "uint256",
          "name": "",
          "type": "uint256"
        }
      ],
      "stateMutability": "view",
      "type": "function"
    },
    {
      "inputs": [
        {
          "internalType": "address",
          "name": "account",
          "type": "address"
        },
        {
          "internalType": "uint256",
          "name": "id",
          "type": "uint256"
        }
      ],
      "name": "balanceOf",
      "outputs": [
        {
          "internalType": "uint256",
          "name": "",
          "type": "uint256"
        }
      ],
      "stateMutability": "view",
      "type": "function"
    },
    {
      "inputs": [
        {
          "internalType": "address[]",
          "name": "accounts",
          "type": "address[]"
        },
        {
          "internalType": "uint256[]",
          "name": "ids",
          "type": "uint256[]"
        }
      ],
      "name": "balanceOfBatch",
      "outputs": [
        {
          "internalType": "uint256[]",
          "name": "",
          "type": "uint256[]"
        }
      ],
      "stateMutability": "view",
      "type": "function"
    },
    {
      "inputs": [
        {
          "internalType": "address",
          "name": "account",
          "type": "address"
        },
        {
          "internalType": "address",
          "name": "operator",
          "type": "address"
        }
      ],
      "name": "isApprovedForAll",
      "outputs": [
        {
          "internalType": "bool",
          "name": "",
          "type": "bool"
        }
      ],
      "stateMutability": "view",
      "type": "function"
    },
    {
      "inputs": [],
      "name": "owner",
      "outputs": [
        {
          "internalType": "address",
          "name": "",
          "type": "address"
        }
      ],
      "stateMutability": "view",
      "type": "function"
    },
    {
      "inputs": [],
      "name": "renounceOwnership",
      "outputs": [],
      "stateMutability": "nonpayable",
      "type": "function"
    },
    {
      "inputs": [
        {
          "internalType": "address",
          "name": "from",
          "type": "address"
        },
        {
          "internalType": "address",
          "name": "to",
          "type": "address"
        },
        {
          "internalType": "uint256[]",
          "name": "ids",
          "type": "uint256[]"
        },
        {
          "internalType": "uint256[]",
          "name": "amounts",
          "type": "uint256[]"
        },
        {
          "internalType": "bytes",
          "name": "data",
          "type": "bytes"
        }
      ],
      "name": "safeBatchTransferFrom",
      "outputs": [],
      "stateMutability": "nonpayable",
      "type": "function"
    },
    {
      "inputs": [
        {
          "internalType": "address",
          "name": "from",
          "type": "address"
        },
        {
          "internalType": "address",
          "name": "to",
          "type": "address"
        },
        {
          "internalType": "uint256",
          "name": "id",
          "type": "uint256"
        },
        {
          "internalType": "uint256",
          "name": "amount",
          "type": "uint256"
        },
        {
          "internalType": "bytes",
          "name": "data",
          "type": "bytes"
        }
      ],
      "name": "safeTransferFrom",
      "outputs": [],
      "stateMutability": "nonpayable",
      "type": "function"
    },
    {
      "inputs": [
        {
          "internalType": "address",
          "name": "",
          "type": "address"
        }
      ],
      "name": "scholarAddresses",
      "outputs": [
        {
          "internalType": "bool",
          "name": "",
          "type": "bool"
        }
      ],
      "stateMutability": "view",
      "type": "function"
    },
    {
      "inputs": [
        {
          "internalType": "address",
          "name": "",
          "type": "address"
        },
        {
          "internalType": "address",
          "name": "",
          "type": "address"
        }
      ],
      "name": "scholarPaperMap",
      "outputs": [
        {
          "internalType": "contract PaperApprovalContract",
          "name": "paperContract",
          "type": "address"
        },
        {
          "internalType": "bool",
          "name": "scholarBrickClaimed",
          "type": "bool"
        }
      ],
      "stateMutability": "view",
      "type": "function"
    },
    {
      "inputs": [
        {
          "internalType": "address",
          "name": "operator",
          "type": "address"
        },
        {
          "internalType": "bool",
          "name": "approved",
          "type": "bool"
        }
      ],
      "name": "setApprovalForAll",
      "outputs": [],
      "stateMutability": "nonpayable",
      "type": "function"
    },
    {
      "inputs": [
        {
          "internalType": "bytes4",
          "name": "interfaceId",
          "type": "bytes4"
        }
      ],
      "name": "supportsInterface",
      "outputs": [
        {
          "internalType": "bool",
          "name": "",
          "type": "bool"
        }
      ],
      "stateMutability": "view",
      "type": "function"
    },
    {
      "inputs": [
        {
          "internalType": "address",
          "name": "newOwner",
          "type": "address"
        }
      ],
      "name": "transferOwnership",
      "outputs": [],
      "stateMutability": "nonpayable",
      "type": "function"
    },
    {
      "inputs": [
        {
          "internalType": "uint256",
          "name": "tokenId",
          "type": "uint256"
        }
      ],
      "name": "uri",
      "outputs": [
        {
          "internalType": "string",
          "name": "",
          "type": "string"
        }
      ],
      "stateMutability": "view",
      "type": "function"
    },
    {
      "inputs": [
        {
          "internalType": "uint256",
          "name": "_tokenId",
          "type": "uint256"
        },
        {
          "internalType": "string",
          "name": "_uri",
          "type": "string"
        }
      ],
      "name": "setTokenUri",
      "outputs": [],
      "stateMutability": "nonpayable",
      "type": "function"
    },
    {
      "inputs": [
        {
          "internalType": "address",
          "name": "recipient",
          "type": "address"
        },
        {
          "internalType": "uint256",
          "name": "tokenId",
          "type": "uint256"
        },
        {
          "internalType": "uint256",
          "name": "amount",
          "type": "uint256"
        }
      ],
      "name": "mint",
      "outputs": [],
      "stateMutability": "nonpayable",
      "type": "function"
    },
    {
      "inputs": [
        {
          "internalType": "address",
          "name": "recipient",
          "type": "address"
        }
      ],
      "name": "approveNewScholar",
      "outputs": [],
      "stateMutability": "nonpayable",
      "type": "function"
    },
    {
      "inputs": [
        {
          "internalType": "address",
          "name": "author",
          "type": "address"
        },
        {
          "internalType": "address",
          "name": "paperUri",
          "type": "address"
        },
        {
          "internalType": "address[]",
          "name": "_reviewers",
          "type": "address[]"
        }
      ],
      "name": "initReviewContract",
      "outputs": [
        {
          "internalType": "address",
          "name": "contractAddress",
          "type": "address"
        }
      ],
      "stateMutability": "nonpayable",
      "type": "function"
    },
    {
      "inputs": [
        {
          "internalType": "address",
          "name": "recipient",
          "type": "address"
        },
        {
          "internalType": "address",
          "name": "paperUri",
          "type": "address"
        }
      ],
      "name": "mintScholarBrick",
      "outputs": [],
      "stateMutability": "nonpayable",
      "type": "function"
    },
    {
      "inputs": [
        {
          "internalType": "address",
          "name": "author",
          "type": "address"
        },
        {
          "internalType": "address",
          "name": "paperUri",
          "type": "address"
        },
        {
          "internalType": "address[]",
          "name": "referenceScholarAddresses",
          "type": "address[]"
        }
      ],
      "name": "addPaperRefferenceAddresses",
      "outputs": [],
      "stateMutability": "nonpayable",
      "type": "function"
    },
    {
      "inputs": [
        {
          "internalType": "address",
          "name": "recipient",
          "type": "address"
        },
        {
          "internalType": "address",
          "name": "author",
          "type": "address"
        },
        {
          "internalType": "address",
          "name": "paperUri",
          "type": "address"
        }
      ],
      "name": "mintScholarSand",
      "outputs": [],
      "stateMutability": "nonpayable",
      "type": "function"
    },
    {
      "inputs": [
        {
          "internalType": "address",
          "name": "recipient",
          "type": "address"
        },
        {
          "internalType": "uint256",
          "name": "amount",
          "type": "uint256"
        }
      ],
      "name": "convertSandToBrick",
      "outputs": [],
      "stateMutability": "nonpayable",
      "type": "function"
    }
  ],
  "bytecode": "0x60806040523480156200001157600080fd5b506040518060200160405280600081525062000033816200011960201b60201c565b5062000054620000486200013560201b60201c565b6200013d60201b60201c565b6040518060400160405280600d81526020017f5343484f4c41525f425249434b00000000000000000000000000000000000000815250600460008081526020019081526020016000209080519060200190620000b292919062000203565b506040518060400160405280600c81526020017f5343484f4c41525f53414e440000000000000000000000000000000000000000815250600460006001815260200190815260200160002090805190602001906200011292919062000203565b5062000318565b80600290805190602001906200013192919062000203565b5050565b600033905090565b6000600360009054906101000a900473ffffffffffffffffffffffffffffffffffffffff16905081600360006101000a81548173ffffffffffffffffffffffffffffffffffffffff021916908373ffffffffffffffffffffffffffffffffffffffff1602179055508173ffffffffffffffffffffffffffffffffffffffff168173ffffffffffffffffffffffffffffffffffffffff167f8be0079c531659141344cd1fd0a4f28419497f9722a3daafe3b4186f6b6457e060405160405180910390a35050565b8280546200021190620002b3565b90600052602060002090601f01602090048101928262000235576000855562000281565b82601f106200025057805160ff191683800117855562000281565b8280016001018555821562000281579182015b828111156200028057825182559160200191906001019062000263565b5b50905062000290919062000294565b5090565b5b80821115620002af57600081600090555060010162000295565b5090565b60006002820490506001821680620002cc57607f821691505b60208210811415620002e357620002e2620002e9565b5b50919050565b7f4e487b7100000000000000000000000000000000000000000000000000000000600052602260045260246000fd5b615f2c80620003286000396000f3fe60806040523480156200001157600080fd5b50600436106200016b5760003560e01c8063715018a611620000d5578063c145f2421162000087578063c145f242146200041b578063c656ffbd146200043b578063d6161603146200045d578063e985e9c5146200047d578063f242432a14620004b3578063f2fde38b14620004d3576200016b565b8063715018a614620003565780637340df991462000362578063778eb14814620003995780638da5cb5b14620003b9578063a22cb46514620003db578063b9893ce314620003fb576200016b565b8063239f2fa1116200012f578063239f2fa114620002545780632eb2c2d6146200028a5780634bedeebb14620002aa5780634e1273f414620002e057806357f7789e14620003165780635f0a42d11462000336576200016b565b8062fdd58e146200017057806301ffc9a714620001a6578063025cb65014620001dc5780630e89341c14620001fe578063156e29f61462000234575b600080fd5b6200018e600480360381019062000188919062003203565b620004f3565b6040516200019d919062003e18565b60405180910390f35b620001c46004803603810190620001be919062003339565b620005bf565b604051620001d3919062003ae0565b60405180910390f35b620001e6620006a5565b604051620001f5919062003e18565b60405180910390f35b6200021c600480360381019062000216919062003391565b620006aa565b6040516200022b919062003b2a565b60405180910390f35b6200025260048036038101906200024c919062003244565b62000757565b005b6200027260048036038101906200026c919062002f28565b62000783565b60405162000281919062003ae0565b60405180910390f35b620002a86004803603810190620002a291906200305a565b620007a3565b005b620002c86004803603810190620002c2919062002feb565b62000850565b604051620002d791906200393a565b60405180910390f35b620002fe6004803603810190620002f891906200329a565b62000a99565b6040516200030d919062003a81565b60405180910390f35b6200033460048036038101906200032e9190620033bd565b62000c58565b005b6200035460048036038101906200034e919062002f95565b62000c90565b005b6200036062000fa7565b005b6200038060048036038101906200037a919062002f54565b62000fbf565b6040516200039092919062003afd565b60405180910390f35b620003b76004803603810190620003b1919062002f54565b6200101d565b005b620003c3620014ce565b604051620003d291906200393a565b60405180910390f35b620003f96004803603810190620003f39190620031c2565b620014f8565b005b62000419600480360381019062000413919062003203565b62001512565b005b62000439600480360381019062000433919062002feb565b620015b8565b005b6200044562001701565b60405162000454919062003e18565b60405180910390f35b6200047b600480360381019062000475919062002f28565b62001706565b005b6200049b600480360381019062000495919062002f54565b6200176b565b604051620004aa919062003ae0565b60405180910390f35b620004d16004803603810190620004cb919062003127565b620017ff565b005b620004f16004803603810190620004eb919062002f28565b620018ac565b005b60008073ffffffffffffffffffffffffffffffffffffffff168373ffffffffffffffffffffffffffffffffffffffff16141562000567576040517f08c379a00000000000000000000000000000000000000000000000000000000081526004016200055e9062003c5e565b60405180910390fd5b60008083815260200190815260200160002060008473ffffffffffffffffffffffffffffffffffffffff1673ffffffffffffffffffffffffffffffffffffffff16815260200190815260200160002054905092915050565b60007fd9b67a26000000000000000000000000000000000000000000000000000000007bffffffffffffffffffffffffffffffffffffffffffffffffffffffff1916827bffffffffffffffffffffffffffffffffffffffffffffffffffffffff191614806200068b57507f0e89341c000000000000000000000000000000000000000000000000000000007bffffffffffffffffffffffffffffffffffffffffffffffffffffffff1916827bffffffffffffffffffffffffffffffffffffffffffffffffffffffff1916145b806200069e57506200069d8262001937565b5b9050919050565b600081565b6060600460008381526020019081526020016000208054620006cc90620041d8565b80601f0160208091040260200160405190810160405280929190818152602001828054620006fa90620041d8565b80156200074b5780601f106200071f576101008083540402835291602001916200074b565b820191906000526020600020905b8154815290600101906020018083116200072d57829003601f168201915b50505050509050919050565b62000761620019a1565b6200077e8383836040518060200160405280600081525062001a26565b505050565b60056020528060005260406000206000915054906101000a900460ff1681565b620007ad62001bea565b73ffffffffffffffffffffffffffffffffffffffff168573ffffffffffffffffffffffffffffffffffffffff161480620007f85750620007f785620007f162001bea565b6200176b565b5b6200083a576040517f08c379a0000000000000000000000000000000000000000000000000000000008152600401620008319062003b70565b60405180910390fd5b62000849858585858562001bf2565b5050505050565b60006200085c620019a1565b338484846040516200086e9062002bb8565b6200087d949392919062003957565b604051809103906000f0801580156200089a573d6000803e3d6000fd5b50600660008673ffffffffffffffffffffffffffffffffffffffff1673ffffffffffffffffffffffffffffffffffffffff16815260200190815260200160002060008573ffffffffffffffffffffffffffffffffffffffff1673ffffffffffffffffffffffffffffffffffffffff16815260200190815260200160002060000160006101000a81548173ffffffffffffffffffffffffffffffffffffffff021916908373ffffffffffffffffffffffffffffffffffffffff1602179055506000600660008673ffffffffffffffffffffffffffffffffffffffff1673ffffffffffffffffffffffffffffffffffffffff16815260200190815260200160002060008573ffffffffffffffffffffffffffffffffffffffff1673ffffffffffffffffffffffffffffffffffffffff16815260200190815260200160002060020160006101000a81548160ff021916908315150217905550600660008573ffffffffffffffffffffffffffffffffffffffff1673ffffffffffffffffffffffffffffffffffffffff16815260200190815260200160002060008473ffffffffffffffffffffffffffffffffffffffff1673ffffffffffffffffffffffffffffffffffffffff16815260200190815260200160002060000160009054906101000a900473ffffffffffffffffffffffffffffffffffffffff1690509392505050565b6060815183511462000ae2576040517f08c379a000000000000000000000000000000000000000000000000000000000815260040162000ad99062003db2565b60405180910390fd5b6000835167ffffffffffffffff81111562000b26577f4e487b7100000000000000000000000000000000000000000000000000000000600052604160045260246000fd5b60405190808252806020026020018201604052801562000b555781602001602082028036833780820191505090505b50905060005b845181101562000c4d5762000bf385828151811062000ba3577f4e487b7100000000000000000000000000000000000000000000000000000000600052603260045260246000fd5b602002602001015185838151811062000be5577f4e487b7100000000000000000000000000000000000000000000000000000000600052603260045260246000fd5b6020026020010151620004f3565b82828151811062000c2d577f4e487b7100000000000000000000000000000000000000000000000000000000600052603260045260246000fd5b6020026020010181815250508062000c459062004244565b905062000b5b565b508091505092915050565b62000c62620019a1565b8060046000848152602001908152602001600020908051906020019062000c8b92919062002bc6565b505050565b600073ffffffffffffffffffffffffffffffffffffffff16600660008473ffffffffffffffffffffffffffffffffffffffff1673ffffffffffffffffffffffffffffffffffffffff16815260200190815260200160002060008373ffffffffffffffffffffffffffffffffffffffff1673ffffffffffffffffffffffffffffffffffffffff16815260200190815260200160002060000160009054906101000a900473ffffffffffffffffffffffffffffffffffffffff1673ffffffffffffffffffffffffffffffffffffffff16141562000da2576040517f08c379a000000000000000000000000000000000000000000000000000000000815260040162000d999062003c3c565b60405180910390fd5b600660008373ffffffffffffffffffffffffffffffffffffffff1673ffffffffffffffffffffffffffffffffffffffff16815260200190815260200160002060008273ffffffffffffffffffffffffffffffffffffffff1673ffffffffffffffffffffffffffffffffffffffff16815260200190815260200160002060010160008473ffffffffffffffffffffffffffffffffffffffff1673ffffffffffffffffffffffffffffffffffffffff16815260200190815260200160002060009054906101000a900460ff1662000eae576040517f08c379a000000000000000000000000000000000000000000000000000000000815260040162000ea59062003bb4565b60405180910390fd5b62000ecd83600160056040518060200160405280600081525062001a26565b6000600660008473ffffffffffffffffffffffffffffffffffffffff1673ffffffffffffffffffffffffffffffffffffffff16815260200190815260200160002060008373ffffffffffffffffffffffffffffffffffffffff1673ffffffffffffffffffffffffffffffffffffffff16815260200190815260200160002060010160008573ffffffffffffffffffffffffffffffffffffffff1673ffffffffffffffffffffffffffffffffffffffff16815260200190815260200160002060006101000a81548160ff021916908315150217905550505050565b62000fb1620019a1565b62000fbd600062001f7b565b565b6006602052816000526040600020602052806000526040600020600091509150508060000160009054906101000a900473ffffffffffffffffffffffffffffffffffffffff16908060020160009054906101000a900460ff16905082565b600073ffffffffffffffffffffffffffffffffffffffff16600660008473ffffffffffffffffffffffffffffffffffffffff1673ffffffffffffffffffffffffffffffffffffffff16815260200190815260200160002060008373ffffffffffffffffffffffffffffffffffffffff1673ffffffffffffffffffffffffffffffffffffffff16815260200190815260200160002060000160009054906101000a900473ffffffffffffffffffffffffffffffffffffffff1673ffffffffffffffffffffffffffffffffffffffff1614156200112f576040517f08c379a0000000000000000000000000000000000000000000000000000000008152600401620011269062003cc4565b60405180910390fd5b600660008373ffffffffffffffffffffffffffffffffffffffff1673ffffffffffffffffffffffffffffffffffffffff16815260200190815260200160002060008273ffffffffffffffffffffffffffffffffffffffff1673ffffffffffffffffffffffffffffffffffffffff16815260200190815260200160002060000160009054906101000a900473ffffffffffffffffffffffffffffffffffffffff1673ffffffffffffffffffffffffffffffffffffffff16639107c15b6040518163ffffffff1660e01b815260040160206040518083038186803b1580156200121557600080fd5b505afa1580156200122a573d6000803e3d6000fd5b505050506040513d601f19601f820116820180604052508101906200125091906200330d565b62001292576040517f08c379a0000000000000000000000000000000000000000000000000000000008152600401620012899062003d4c565b60405180910390fd5b8173ffffffffffffffffffffffffffffffffffffffff163373ffffffffffffffffffffffffffffffffffffffff161480620013015750620012d2620014ce565b73ffffffffffffffffffffffffffffffffffffffff163373ffffffffffffffffffffffffffffffffffffffff16145b62001343576040517f08c379a00000000000000000000000000000000000000000000000000000000081526004016200133a9062003d6e565b60405180910390fd5b600660008373ffffffffffffffffffffffffffffffffffffffff1673ffffffffffffffffffffffffffffffffffffffff16815260200190815260200160002060008273ffffffffffffffffffffffffffffffffffffffff1673ffffffffffffffffffffffffffffffffffffffff16815260200190815260200160002060020160009054906101000a900460ff161562001413576040517f08c379a00000000000000000000000000000000000000000000000000000000081526004016200140a9062003ca2565b60405180910390fd5b6200143282600060016040518060200160405280600081525062001a26565b6001600660008473ffffffffffffffffffffffffffffffffffffffff1673ffffffffffffffffffffffffffffffffffffffff16815260200190815260200160002060008373ffffffffffffffffffffffffffffffffffffffff1673ffffffffffffffffffffffffffffffffffffffff16815260200190815260200160002060020160006101000a81548160ff0219169083151502179055505050565b6000600360009054906101000a900473ffffffffffffffffffffffffffffffffffffffff16905090565b6200150e6200150662001bea565b838362002041565b5050565b8062001520336001620004f3565b101562001564576040517f08c379a00000000000000000000000000000000000000000000000000000000081526004016200155b9062003bf8565b60405180910390fd5b60006103e8826200157691906200405c565b9050620015953360016103e8846200158f919062004094565b620021b3565b620015b3836000836040518060200160405280600081525062001a26565b505050565b620015c2620019a1565b60005b8151811015620016fb576001600660008673ffffffffffffffffffffffffffffffffffffffff1673ffffffffffffffffffffffffffffffffffffffff16815260200190815260200160002060008573ffffffffffffffffffffffffffffffffffffffff1673ffffffffffffffffffffffffffffffffffffffff16815260200190815260200160002060010160008484815181106200168c577f4e487b7100000000000000000000000000000000000000000000000000000000600052603260045260246000fd5b602002602001015173ffffffffffffffffffffffffffffffffffffffff1673ffffffffffffffffffffffffffffffffffffffff16815260200190815260200160002060006101000a81548160ff0219169083151502179055508080620016f29062004244565b915050620015c5565b50505050565b600181565b62001710620019a1565b6001600560008373ffffffffffffffffffffffffffffffffffffffff1673ffffffffffffffffffffffffffffffffffffffff16815260200190815260200160002060006101000a81548160ff02191690831515021790555050565b6000600160008473ffffffffffffffffffffffffffffffffffffffff1673ffffffffffffffffffffffffffffffffffffffff16815260200190815260200160002060008373ffffffffffffffffffffffffffffffffffffffff1673ffffffffffffffffffffffffffffffffffffffff16815260200190815260200160002060009054906101000a900460ff16905092915050565b6200180962001bea565b73ffffffffffffffffffffffffffffffffffffffff168573ffffffffffffffffffffffffffffffffffffffff16148062001854575062001853856200184d62001bea565b6200176b565b5b62001896576040517f08c379a00000000000000000000000000000000000000000000000000000000081526004016200188d9062003b70565b60405180910390fd5b620018a585858585856200240c565b5050505050565b620018b6620019a1565b600073ffffffffffffffffffffffffffffffffffffffff168173ffffffffffffffffffffffffffffffffffffffff16141562001929576040517f08c379a0000000000000000000000000000000000000000000000000000000008152600401620019209062003bd6565b60405180910390fd5b620019348162001f7b565b50565b60007f01ffc9a7000000000000000000000000000000000000000000000000000000007bffffffffffffffffffffffffffffffffffffffffffffffffffffffff1916827bffffffffffffffffffffffffffffffffffffffffffffffffffffffff1916149050919050565b620019ab62001bea565b73ffffffffffffffffffffffffffffffffffffffff16620019cb620014ce565b73ffffffffffffffffffffffffffffffffffffffff161462001a24576040517f08c379a000000000000000000000000000000000000000000000000000000000815260040162001a1b9062003d2a565b60405180910390fd5b565b600073ffffffffffffffffffffffffffffffffffffffff168473ffffffffffffffffffffffffffffffffffffffff16141562001a99576040517f08c379a000000000000000000000000000000000000000000000000000000000815260040162001a909062003df6565b60405180910390fd5b600062001aa562001bea565b9050600062001ab485620026be565b9050600062001ac385620026be565b905062001ad68360008985858962002787565b8460008088815260200190815260200160002060008973ffffffffffffffffffffffffffffffffffffffff1673ffffffffffffffffffffffffffffffffffffffff168152602001908152602001600020600082825462001b37919062003fff565b925050819055508673ffffffffffffffffffffffffffffffffffffffff16600073ffffffffffffffffffffffffffffffffffffffff168473ffffffffffffffffffffffffffffffffffffffff167fc3d58168c5ae7397731d063d5bbf3d657854427343f4c083240f7aacaa2d0f62898960405162001bb792919062003e35565b60405180910390a462001bd0836000898585896200278f565b62001be18360008989898962002797565b50505050505050565b600033905090565b815183511462001c39576040517f08c379a000000000000000000000000000000000000000000000000000000000815260040162001c309062003dd4565b60405180910390fd5b600073ffffffffffffffffffffffffffffffffffffffff168473ffffffffffffffffffffffffffffffffffffffff16141562001cac576040517f08c379a000000000000000000000000000000000000000000000000000000000815260040162001ca39062003c80565b60405180910390fd5b600062001cb862001bea565b905062001cca81878787878762002787565b60005b845181101562001ed257600085828151811062001d13577f4e487b7100000000000000000000000000000000000000000000000000000000600052603260045260246000fd5b60200260200101519050600085838151811062001d59577f4e487b7100000000000000000000000000000000000000000000000000000000600052603260045260246000fd5b60200260200101519050600080600084815260200190815260200160002060008b73ffffffffffffffffffffffffffffffffffffffff1673ffffffffffffffffffffffffffffffffffffffff1681526020019081526020016000205490508181101562001dfd576040517f08c379a000000000000000000000000000000000000000000000000000000000815260040162001df49062003d08565b60405180910390fd5b81810360008085815260200190815260200160002060008c73ffffffffffffffffffffffffffffffffffffffff1673ffffffffffffffffffffffffffffffffffffffff168152602001908152602001600020819055508160008085815260200190815260200160002060008b73ffffffffffffffffffffffffffffffffffffffff1673ffffffffffffffffffffffffffffffffffffffff168152602001908152602001600020600082825462001eb4919062003fff565b925050819055505050508062001eca9062004244565b905062001ccd565b508473ffffffffffffffffffffffffffffffffffffffff168673ffffffffffffffffffffffffffffffffffffffff168273ffffffffffffffffffffffffffffffffffffffff167f4a39dc06d4c0dbc64b70af90fd698a233a518aa5d07e595d983b8c0526c8f7fb878760405162001f4b92919062003aa5565b60405180910390a462001f638187878787876200278f565b62001f7381878787878762002996565b505050505050565b6000600360009054906101000a900473ffffffffffffffffffffffffffffffffffffffff16905081600360006101000a81548173ffffffffffffffffffffffffffffffffffffffff021916908373ffffffffffffffffffffffffffffffffffffffff1602179055508173ffffffffffffffffffffffffffffffffffffffff168173ffffffffffffffffffffffffffffffffffffffff167f8be0079c531659141344cd1fd0a4f28419497f9722a3daafe3b4186f6b6457e060405160405180910390a35050565b8173ffffffffffffffffffffffffffffffffffffffff168373ffffffffffffffffffffffffffffffffffffffff161415620020b3576040517f08c379a0000000000000000000000000000000000000000000000000000000008152600401620020aa9062003d90565b60405180910390fd5b80600160008573ffffffffffffffffffffffffffffffffffffffff1673ffffffffffffffffffffffffffffffffffffffff16815260200190815260200160002060008473ffffffffffffffffffffffffffffffffffffffff1673ffffffffffffffffffffffffffffffffffffffff16815260200190815260200160002060006101000a81548160ff0219169083151502179055508173ffffffffffffffffffffffffffffffffffffffff168373ffffffffffffffffffffffffffffffffffffffff167f17307eab39ab6107e8899845ad3d59bd9653f200f220920489ca2b5937696c3183604051620021a6919062003ae0565b60405180910390a3505050565b600073ffffffffffffffffffffffffffffffffffffffff168373ffffffffffffffffffffffffffffffffffffffff16141562002226576040517f08c379a00000000000000000000000000000000000000000000000000000000081526004016200221d9062003ce6565b60405180910390fd5b60006200223262001bea565b905060006200224184620026be565b905060006200225084620026be565b9050620022728387600085856040518060200160405280600081525062002787565b600080600087815260200190815260200160002060008873ffffffffffffffffffffffffffffffffffffffff1673ffffffffffffffffffffffffffffffffffffffff168152602001908152602001600020549050848110156200230c576040517f08c379a0000000000000000000000000000000000000000000000000000000008152600401620023039062003c1a565b60405180910390fd5b84810360008088815260200190815260200160002060008973ffffffffffffffffffffffffffffffffffffffff1673ffffffffffffffffffffffffffffffffffffffff16815260200190815260200160002081905550600073ffffffffffffffffffffffffffffffffffffffff168773ffffffffffffffffffffffffffffffffffffffff168573ffffffffffffffffffffffffffffffffffffffff167fc3d58168c5ae7397731d063d5bbf3d657854427343f4c083240f7aacaa2d0f628989604051620023db92919062003e35565b60405180910390a462002403848860008686604051806020016040528060008152506200278f565b50505050505050565b600073ffffffffffffffffffffffffffffffffffffffff168473ffffffffffffffffffffffffffffffffffffffff1614156200247f576040517f08c379a0000000000000000000000000000000000000000000000000000000008152600401620024769062003c80565b60405180910390fd5b60006200248b62001bea565b905060006200249a85620026be565b90506000620024a985620026be565b9050620024bb83898985858962002787565b600080600088815260200190815260200160002060008a73ffffffffffffffffffffffffffffffffffffffff1673ffffffffffffffffffffffffffffffffffffffff1681526020019081526020016000205490508581101562002555576040517f08c379a00000000000000000000000000000000000000000000000000000000081526004016200254c9062003d08565b60405180910390fd5b85810360008089815260200190815260200160002060008b73ffffffffffffffffffffffffffffffffffffffff1673ffffffffffffffffffffffffffffffffffffffff168152602001908152602001600020819055508560008089815260200190815260200160002060008a73ffffffffffffffffffffffffffffffffffffffff1673ffffffffffffffffffffffffffffffffffffffff16815260200190815260200160002060008282546200260c919062003fff565b925050819055508773ffffffffffffffffffffffffffffffffffffffff168973ffffffffffffffffffffffffffffffffffffffff168573ffffffffffffffffffffffffffffffffffffffff167fc3d58168c5ae7397731d063d5bbf3d657854427343f4c083240f7aacaa2d0f628a8a6040516200268b92919062003e35565b60405180910390a4620026a3848a8a86868a6200278f565b620026b3848a8a8a8a8a62002797565b505050505050505050565b60606000600167ffffffffffffffff81111562002704577f4e487b7100000000000000000000000000000000000000000000000000000000600052604160045260246000fd5b604051908082528060200260200182016040528015620027335781602001602082028036833780820191505090505b509050828160008151811062002772577f4e487b7100000000000000000000000000000000000000000000000000000000600052603260045260246000fd5b60200260200101818152505080915050919050565b505050505050565b505050505050565b620027b88473ffffffffffffffffffffffffffffffffffffffff1662002b95565b156200298e578373ffffffffffffffffffffffffffffffffffffffff1663f23a6e6187878686866040518663ffffffff1660e01b81526004016200280195949392919062003a1d565b602060405180830381600087803b1580156200281c57600080fd5b505af19250505080156200285057506040513d601f19601f820116820180604052508101906200284d919062003365565b60015b62002902576200285f6200434e565b806308c379a01415620028c357506200287762004974565b80620028845750620028c5565b806040517f08c379a0000000000000000000000000000000000000000000000000000000008152600401620028ba919062003b2a565b60405180910390fd5b505b6040517f08c379a0000000000000000000000000000000000000000000000000000000008152600401620028f99062003b4e565b60405180910390fd5b63f23a6e6160e01b7bffffffffffffffffffffffffffffffffffffffffffffffffffffffff1916817bffffffffffffffffffffffffffffffffffffffffffffffffffffffff1916146200298c576040517f08c379a0000000000000000000000000000000000000000000000000000000008152600401620029839062003b92565b60405180910390fd5b505b505050505050565b620029b78473ffffffffffffffffffffffffffffffffffffffff1662002b95565b1562002b8d578373ffffffffffffffffffffffffffffffffffffffff1663bc197c8187878686866040518663ffffffff1660e01b815260040162002a00959493929190620039ab565b602060405180830381600087803b15801562002a1b57600080fd5b505af192505050801562002a4f57506040513d601f19601f8201168201806040525081019062002a4c919062003365565b60015b62002b015762002a5e6200434e565b806308c379a0141562002ac2575062002a7662004974565b8062002a83575062002ac4565b806040517f08c379a000000000000000000000000000000000000000000000000000000000815260040162002ab9919062003b2a565b60405180910390fd5b505b6040517f08c379a000000000000000000000000000000000000000000000000000000000815260040162002af89062003b4e565b60405180910390fd5b63bc197c8160e01b7bffffffffffffffffffffffffffffffffffffffffffffffffffffffff1916817bffffffffffffffffffffffffffffffffffffffffffffffffffffffff19161462002b8b576040517f08c379a000000000000000000000000000000000000000000000000000000000815260040162002b829062003b92565b60405180910390fd5b505b505050505050565b6000808273ffffffffffffffffffffffffffffffffffffffff163b119050919050565b6114788062004a7f83390190565b82805462002bd490620041d8565b90600052602060002090601f01602090048101928262002bf8576000855562002c44565b82601f1062002c1357805160ff191683800117855562002c44565b8280016001018555821562002c44579182015b8281111562002c4357825182559160200191906001019062002c26565b5b50905062002c53919062002c57565b5090565b5b8082111562002c7257600081600090555060010162002c58565b5090565b600062002c8d62002c878462003e8b565b62003e62565b9050808382526020820190508285602086028201111562002cad57600080fd5b60005b8581101562002ce1578162002cc6888262002dea565b84526020840193506020830192505060018101905062002cb0565b5050509392505050565b600062002d0262002cfc8462003eba565b62003e62565b9050808382526020820190508285602086028201111562002d2257600080fd5b60005b8581101562002d56578162002d3b888262002f11565b84526020840193506020830192505060018101905062002d25565b5050509392505050565b600062002d7762002d718462003ee9565b62003e62565b90508281526020810184848401111562002d9057600080fd5b62002d9d84828562004193565b509392505050565b600062002dbc62002db68462003f1f565b62003e62565b90508281526020810184848401111562002dd557600080fd5b62002de284828562004193565b509392505050565b60008135905062002dfb8162004a16565b92915050565b600082601f83011262002e1357600080fd5b813562002e2584826020860162002c76565b91505092915050565b600082601f83011262002e4057600080fd5b813562002e5284826020860162002ceb565b91505092915050565b60008135905062002e6c8162004a30565b92915050565b60008151905062002e838162004a30565b92915050565b60008135905062002e9a8162004a4a565b92915050565b60008151905062002eb18162004a4a565b92915050565b600082601f83011262002ec957600080fd5b813562002edb84826020860162002d60565b91505092915050565b600082601f83011262002ef657600080fd5b813562002f0884826020860162002da5565b91505092915050565b60008135905062002f228162004a64565b92915050565b60006020828403121562002f3b57600080fd5b600062002f4b8482850162002dea565b91505092915050565b6000806040838503121562002f6857600080fd5b600062002f788582860162002dea565b925050602062002f8b8582860162002dea565b9150509250929050565b60008060006060848603121562002fab57600080fd5b600062002fbb8682870162002dea565b935050602062002fce8682870162002dea565b925050604062002fe18682870162002dea565b9150509250925092565b6000806000606084860312156200300157600080fd5b6000620030118682870162002dea565b9350506020620030248682870162002dea565b925050604084013567ffffffffffffffff8111156200304257600080fd5b620030508682870162002e01565b9150509250925092565b600080600080600060a086880312156200307357600080fd5b6000620030838882890162002dea565b9550506020620030968882890162002dea565b945050604086013567ffffffffffffffff811115620030b457600080fd5b620030c28882890162002e2e565b935050606086013567ffffffffffffffff811115620030e057600080fd5b620030ee8882890162002e2e565b925050608086013567ffffffffffffffff8111156200310c57600080fd5b6200311a8882890162002eb7565b9150509295509295909350565b600080600080600060a086880312156200314057600080fd5b6000620031508882890162002dea565b9550506020620031638882890162002dea565b9450506040620031768882890162002f11565b9350506060620031898882890162002f11565b925050608086013567ffffffffffffffff811115620031a757600080fd5b620031b58882890162002eb7565b9150509295509295909350565b60008060408385031215620031d657600080fd5b6000620031e68582860162002dea565b9250506020620031f98582860162002e5b565b9150509250929050565b600080604083850312156200321757600080fd5b6000620032278582860162002dea565b92505060206200323a8582860162002f11565b9150509250929050565b6000806000606084860312156200325a57600080fd5b60006200326a8682870162002dea565b93505060206200327d8682870162002f11565b9250506040620032908682870162002f11565b9150509250925092565b60008060408385031215620032ae57600080fd5b600083013567ffffffffffffffff811115620032c957600080fd5b620032d78582860162002e01565b925050602083013567ffffffffffffffff811115620032f557600080fd5b620033038582860162002e2e565b9150509250929050565b6000602082840312156200332057600080fd5b6000620033308482850162002e72565b91505092915050565b6000602082840312156200334c57600080fd5b60006200335c8482850162002e89565b91505092915050565b6000602082840312156200337857600080fd5b6000620033888482850162002ea0565b91505092915050565b600060208284031215620033a457600080fd5b6000620033b48482850162002f11565b91505092915050565b60008060408385031215620033d157600080fd5b6000620033e18582860162002f11565b925050602083013567ffffffffffffffff811115620033ff57600080fd5b6200340d8582860162002ee4565b9150509250929050565b60006200342583836200344b565b60208301905092915050565b60006200343f838362003918565b60208301905092915050565b6200345681620040f5565b82525050565b6200346781620040f5565b82525050565b60006200347a8262003f75565b62003486818562003fbb565b9350620034938362003f55565b8060005b83811015620034ca578151620034ae888262003417565b9750620034bb8362003fa1565b92505060018101905062003497565b5085935050505092915050565b6000620034e48262003f80565b620034f0818562003fcc565b9350620034fd8362003f65565b8060005b838110156200353457815162003518888262003431565b9750620035258362003fae565b92505060018101905062003501565b5085935050505092915050565b6200354c8162004109565b82525050565b60006200355f8262003f8b565b6200356b818562003fdd565b93506200357d818560208601620041a2565b620035888162004373565b840191505092915050565b6200359e816200416b565b82525050565b6000620035b18262003f96565b620035bd818562003fee565b9350620035cf818560208601620041a2565b620035da8162004373565b840191505092915050565b6000620035f460348362003fee565b9150620036018262004391565b604082019050919050565b60006200361b602f8362003fee565b91506200362882620043e0565b604082019050919050565b60006200364260288362003fee565b91506200364f826200442f565b604082019050919050565b600062003669602c8362003fee565b915062003676826200447e565b604082019050919050565b60006200369060268362003fee565b91506200369d82620044cd565b604082019050919050565b6000620036b760238362003fee565b9150620036c4826200451c565b604082019050919050565b6000620036de60248362003fee565b9150620036eb826200456b565b604082019050919050565b60006200370560118362003fee565b91506200371282620045ba565b602082019050919050565b60006200372c602a8362003fee565b91506200373982620045e3565b604082019050919050565b60006200375360258362003fee565b9150620037608262004632565b604082019050919050565b60006200377a601a8362003fee565b9150620037878262004681565b602082019050919050565b6000620037a1601d8362003fee565b9150620037ae82620046aa565b602082019050919050565b6000620037c860238362003fee565b9150620037d582620046d3565b604082019050919050565b6000620037ef602a8362003fee565b9150620037fc8262004722565b604082019050919050565b60006200381660208362003fee565b9150620038238262004771565b602082019050919050565b60006200383d60218362003fee565b91506200384a826200479a565b604082019050919050565b60006200386460358362003fee565b91506200387182620047e9565b604082019050919050565b60006200388b60298362003fee565b9150620038988262004838565b604082019050919050565b6000620038b260298362003fee565b9150620038bf8262004887565b604082019050919050565b6000620038d960288362003fee565b9150620038e682620048d6565b604082019050919050565b60006200390060218362003fee565b91506200390d8262004925565b604082019050919050565b620039238162004161565b82525050565b620039348162004161565b82525050565b60006020820190506200395160008301846200345c565b92915050565b60006080820190506200396e60008301876200345c565b6200397d60208301866200345c565b6200398c60408301856200345c565b8181036060830152620039a081846200346d565b905095945050505050565b600060a082019050620039c260008301886200345c565b620039d160208301876200345c565b8181036040830152620039e58186620034d7565b90508181036060830152620039fb8185620034d7565b9050818103608083015262003a11818462003552565b90509695505050505050565b600060a08201905062003a3460008301886200345c565b62003a4360208301876200345c565b62003a52604083018662003929565b62003a61606083018562003929565b818103608083015262003a75818462003552565b90509695505050505050565b6000602082019050818103600083015262003a9d8184620034d7565b905092915050565b6000604082019050818103600083015262003ac18185620034d7565b9050818103602083015262003ad78184620034d7565b90509392505050565b600060208201905062003af7600083018462003541565b92915050565b600060408201905062003b14600083018562003593565b62003b23602083018462003541565b9392505050565b6000602082019050818103600083015262003b468184620035a4565b905092915050565b6000602082019050818103600083015262003b6981620035e5565b9050919050565b6000602082019050818103600083015262003b8b816200360c565b9050919050565b6000602082019050818103600083015262003bad8162003633565b9050919050565b6000602082019050818103600083015262003bcf816200365a565b9050919050565b6000602082019050818103600083015262003bf18162003681565b9050919050565b6000602082019050818103600083015262003c1381620036a8565b9050919050565b6000602082019050818103600083015262003c3581620036cf565b9050919050565b6000602082019050818103600083015262003c5781620036f6565b9050919050565b6000602082019050818103600083015262003c79816200371d565b9050919050565b6000602082019050818103600083015262003c9b8162003744565b9050919050565b6000602082019050818103600083015262003cbd816200376b565b9050919050565b6000602082019050818103600083015262003cdf8162003792565b9050919050565b6000602082019050818103600083015262003d0181620037b9565b9050919050565b6000602082019050818103600083015262003d2381620037e0565b9050919050565b6000602082019050818103600083015262003d458162003807565b9050919050565b6000602082019050818103600083015262003d67816200382e565b9050919050565b6000602082019050818103600083015262003d898162003855565b9050919050565b6000602082019050818103600083015262003dab816200387c565b9050919050565b6000602082019050818103600083015262003dcd81620038a3565b9050919050565b6000602082019050818103600083015262003def81620038ca565b9050919050565b6000602082019050818103600083015262003e1181620038f1565b9050919050565b600060208201905062003e2f600083018462003929565b92915050565b600060408201905062003e4c600083018562003929565b62003e5b602083018462003929565b9392505050565b600062003e6e62003e81565b905062003e7c82826200420e565b919050565b6000604051905090565b600067ffffffffffffffff82111562003ea95762003ea86200431f565b5b602082029050602081019050919050565b600067ffffffffffffffff82111562003ed85762003ed76200431f565b5b602082029050602081019050919050565b600067ffffffffffffffff82111562003f075762003f066200431f565b5b62003f128262004373565b9050602081019050919050565b600067ffffffffffffffff82111562003f3d5762003f3c6200431f565b5b62003f488262004373565b9050602081019050919050565b6000819050602082019050919050565b6000819050602082019050919050565b600081519050919050565b600081519050919050565b600081519050919050565b600081519050919050565b6000602082019050919050565b6000602082019050919050565b600082825260208201905092915050565b600082825260208201905092915050565b600082825260208201905092915050565b600082825260208201905092915050565b60006200400c8262004161565b9150620040198362004161565b9250827fffffffffffffffffffffffffffffffffffffffffffffffffffffffffffffffff0382111562004051576200405062004292565b5b828201905092915050565b6000620040698262004161565b9150620040768362004161565b925082620040895762004088620042c1565b5b828204905092915050565b6000620040a18262004161565b9150620040ae8362004161565b9250817fffffffffffffffffffffffffffffffffffffffffffffffffffffffffffffffff0483118215151615620040ea57620040e962004292565b5b828202905092915050565b6000620041028262004141565b9050919050565b60008115159050919050565b60007fffffffff0000000000000000000000000000000000000000000000000000000082169050919050565b600073ffffffffffffffffffffffffffffffffffffffff82169050919050565b6000819050919050565b600062004178826200417f565b9050919050565b60006200418c8262004141565b9050919050565b82818337600083830152505050565b60005b83811015620041c2578082015181840152602081019050620041a5565b83811115620041d2576000848401525b50505050565b60006002820490506001821680620041f157607f821691505b60208210811415620042085762004207620042f0565b5b50919050565b620042198262004373565b810181811067ffffffffffffffff821117156200423b576200423a6200431f565b5b80604052505050565b6000620042518262004161565b91507fffffffffffffffffffffffffffffffffffffffffffffffffffffffffffffffff82141562004287576200428662004292565b5b600182019050919050565b7f4e487b7100000000000000000000000000000000000000000000000000000000600052601160045260246000fd5b7f4e487b7100000000000000000000000000000000000000000000000000000000600052601260045260246000fd5b7f4e487b7100000000000000000000000000000000000000000000000000000000600052602260045260246000fd5b7f4e487b7100000000000000000000000000000000000000000000000000000000600052604160045260246000fd5b600060033d1115620043705760046000803e6200436d60005162004384565b90505b90565b6000601f19601f8301169050919050565b60008160e01c9050919050565b7f455243313135353a207472616e7366657220746f206e6f6e204552433131353560008201527f526563656976657220696d706c656d656e746572000000000000000000000000602082015250565b7f455243313135353a2063616c6c6572206973206e6f7420746f6b656e206f776e60008201527f6572206e6f7220617070726f7665640000000000000000000000000000000000602082015250565b7f455243313135353a204552433131353552656365697665722072656a6563746560008201527f6420746f6b656e73000000000000000000000000000000000000000000000000602082015250565b7f526563697069656e7420697320756e61626c6520746f20636c61696d2077697460008201527f6820746869732070617065720000000000000000000000000000000000000000602082015250565b7f4f776e61626c653a206e6577206f776e657220697320746865207a65726f206160008201527f6464726573730000000000000000000000000000000000000000000000000000602082015250565b7f53656e646572206d757374206861766520656e6f7567682073616e6420616d6f60008201527f756e740000000000000000000000000000000000000000000000000000000000602082015250565b7f455243313135353a206275726e20616d6f756e7420657863656564732062616c60008201527f616e636500000000000000000000000000000000000000000000000000000000602082015250565b7f5061706572206d75737420657869737473000000000000000000000000000000600082015250565b7f455243313135353a2061646472657373207a65726f206973206e6f742061207660008201527f616c6964206f776e657200000000000000000000000000000000000000000000602082015250565b7f455243313135353a207472616e7366657220746f20746865207a65726f20616460008201527f6472657373000000000000000000000000000000000000000000000000000000602082015250565b7f5363686f6c617220627269636b2077617320636c61696d656421000000000000600082015250565b7f526563697069656e74206d757374206f776e2074686973207061706572000000600082015250565b7f455243313135353a206275726e2066726f6d20746865207a65726f206164647260008201527f6573730000000000000000000000000000000000000000000000000000000000602082015250565b7f455243313135353a20696e73756666696369656e742062616c616e636520666f60008201527f72207472616e7366657200000000000000000000000000000000000000000000602082015250565b7f4f776e61626c653a2063616c6c6572206973206e6f7420746865206f776e6572600082015250565b7f506170657220636f6e74726163742063616e6e6f7420626520636c61696d656460008201527f2100000000000000000000000000000000000000000000000000000000000000602082015250565b7f4f6e6c792074686520617574686f72206f7220746865206f776e65722063616e60008201527f20636c61696d207468697320636f6e7472616374210000000000000000000000602082015250565b7f455243313135353a2073657474696e6720617070726f76616c2073746174757360008201527f20666f722073656c660000000000000000000000000000000000000000000000602082015250565b7f455243313135353a206163636f756e747320616e6420696473206c656e67746860008201527f206d69736d617463680000000000000000000000000000000000000000000000602082015250565b7f455243313135353a2069647320616e6420616d6f756e7473206c656e6774682060008201527f6d69736d61746368000000000000000000000000000000000000000000000000602082015250565b7f455243313135353a206d696e7420746f20746865207a65726f2061646472657360008201527f7300000000000000000000000000000000000000000000000000000000000000602082015250565b600060443d1015620049865762004a13565b6200499062003e81565b60043d036004823e80513d602482011167ffffffffffffffff82111715620049ba57505062004a13565b808201805167ffffffffffffffff811115620049da575050505062004a13565b80602083010160043d038501811115620049f957505050505062004a13565b62004a0a826020018501866200420e565b82955050505050505b90565b62004a2181620040f5565b811462004a2d57600080fd5b50565b62004a3b8162004109565b811462004a4757600080fd5b50565b62004a558162004115565b811462004a6157600080fd5b50565b62004a6f8162004161565b811462004a7b57600080fd5b5056fe60806040523480156200001157600080fd5b5060405162001478380380620014788339818101604052810190620000379190620004b2565b620000576200004b620001dc60201b60201c565b620001e460201b60201c565b6200006884620002a860201b60201c565b82600160006101000a81548173ffffffffffffffffffffffffffffffffffffffff021916908373ffffffffffffffffffffffffffffffffffffffff16021790555081600260006101000a81548173ffffffffffffffffffffffffffffffffffffffff021916908373ffffffffffffffffffffffffffffffffffffffff1602179055506000600760006101000a81548160ff0219169083151502179055506000600681905550805160058190555060005b8151811015620001d15760016003600084848151811062000162577f4e487b7100000000000000000000000000000000000000000000000000000000600052603260045260246000fd5b602002602001015173ffffffffffffffffffffffffffffffffffffffff1673ffffffffffffffffffffffffffffffffffffffff16815260200190815260200160002060006101000a81548160ff0219169083151502179055508080620001c890620006a6565b91505062000118565b5050505050620007f5565b600033905090565b60008060009054906101000a900473ffffffffffffffffffffffffffffffffffffffff169050816000806101000a81548173ffffffffffffffffffffffffffffffffffffffff021916908373ffffffffffffffffffffffffffffffffffffffff1602179055508173ffffffffffffffffffffffffffffffffffffffff168173ffffffffffffffffffffffffffffffffffffffff167f8be0079c531659141344cd1fd0a4f28419497f9722a3daafe3b4186f6b6457e060405160405180910390a35050565b620002b86200033f60201b60201c565b600073ffffffffffffffffffffffffffffffffffffffff168173ffffffffffffffffffffffffffffffffffffffff1614156200032b576040517f08c379a0000000000000000000000000000000000000000000000000000000008152600401620003229062000585565b60405180910390fd5b6200033c81620001e460201b60201c565b50565b6200034f620001dc60201b60201c565b73ffffffffffffffffffffffffffffffffffffffff1662000375620003d060201b60201c565b73ffffffffffffffffffffffffffffffffffffffff1614620003ce576040517f08c379a0000000000000000000000000000000000000000000000000000000008152600401620003c590620005a7565b60405180910390fd5b565b60008060009054906101000a900473ffffffffffffffffffffffffffffffffffffffff16905090565b6000620004106200040a84620005f2565b620005c9565b905080838252602082019050828560208602820111156200043057600080fd5b60005b858110156200046457816200044988826200046e565b84526020840193506020830192505060018101905062000433565b5050509392505050565b6000815190506200047f81620007db565b92915050565b600082601f8301126200049757600080fd5b8151620004a9848260208601620003f9565b91505092915050565b60008060008060808587031215620004c957600080fd5b6000620004d9878288016200046e565b9450506020620004ec878288016200046e565b9350506040620004ff878288016200046e565b925050606085015167ffffffffffffffff8111156200051d57600080fd5b6200052b8782880162000485565b91505092959194509250565b60006200054660268362000621565b9150620005538262000763565b604082019050919050565b60006200056d60208362000621565b91506200057a82620007b2565b602082019050919050565b60006020820190508181036000830152620005a08162000537565b9050919050565b60006020820190508181036000830152620005c2816200055e565b9050919050565b6000620005d5620005e8565b9050620005e3828262000670565b919050565b6000604051905090565b600067ffffffffffffffff82111562000610576200060f62000723565b5b602082029050602081019050919050565b600082825260208201905092915050565b60006200063f8262000646565b9050919050565b600073ffffffffffffffffffffffffffffffffffffffff82169050919050565b6000819050919050565b6200067b8262000752565b810181811067ffffffffffffffff821117156200069d576200069c62000723565b5b80604052505050565b6000620006b38262000666565b91507fffffffffffffffffffffffffffffffffffffffffffffffffffffffffffffffff821415620006e957620006e8620006f4565b5b600182019050919050565b7f4e487b7100000000000000000000000000000000000000000000000000000000600052601160045260246000fd5b7f4e487b7100000000000000000000000000000000000000000000000000000000600052604160045260246000fd5b6000601f19601f8301169050919050565b7f4f776e61626c653a206e6577206f776e657220697320746865207a65726f206160008201527f6464726573730000000000000000000000000000000000000000000000000000602082015250565b7f4f776e61626c653a2063616c6c6572206973206e6f7420746865206f776e6572600082015250565b620007e68162000632565b8114620007f257600080fd5b50565b610c7380620008056000396000f3fe608060405234801561001057600080fd5b50600436106100f55760003560e01c8063715018a6116100975780639107c15b116100665780639107c15b1461022e578063a6c3e6b91461024c578063f2fde38b1461026a578063f7cbb1b214610286576100f5565b8063715018a6146101cc57806389f4bf09146101d65780638da5cb5b146101f257806390da146214610210576100f5565b806312c56989116100d357806312c569891461015457806322ab3af914610174578063610be654146101a45780636145ca02146101ae576100f5565b806302fb0632146100fa5780630c107357146101185780630d15fd7714610136575b600080fd5b6101026102b6565b60405161010f919061098f565b60405180910390f35b6101206102bc565b60405161012d91906108d9565b60405180910390f35b61013e6102e2565b60405161014b919061098f565b60405180910390f35b61015c6102e8565b60405161016b939291906109aa565b60405180910390f35b61018e600480360381019061018991906107ce565b61030e565b60405161019b91906108f4565b60405180910390f35b6101ac61032e565b005b6101b66103a3565b6040516101c391906108f4565b60405180910390f35b6101d46103b6565b005b6101f060048036038101906101eb91906107f7565b6103ca565b005b6101fa610522565b60405161020791906108d9565b60405180910390f35b61021861054b565b60405161022591906108f4565b60405180910390f35b61023661055e565b60405161024391906108f4565b60405180910390f35b610254610590565b60405161026191906108d9565b60405180910390f35b610284600480360381019061027f91906107ce565b6105b6565b005b6102a0600480360381019061029b91906107ce565b61063a565b6040516102ad91906108f4565b60405180910390f35b60065481565b600260009054906101000a900473ffffffffffffffffffffffffffffffffffffffff1681565b60055481565b6000806000600554600654600760009054906101000a900460ff16925092509250909192565b60046020528060005260406000206000915054906101000a900460ff1681565b61033661065a565b600760009054906101000a900460ff1615610386576040517f08c379a000000000000000000000000000000000000000000000000000000000815260040161037d9061094f565b60405180910390fd5b6001600760006101000a81548160ff021916908315150217905550565b600760019054906101000a900460ff1681565b6103be61065a565b6103c860006106d8565b565b600760009054906101000a900460ff161561041a576040517f08c379a00000000000000000000000000000000000000000000000000000000081526004016104119061094f565b60405180910390fd5b600360003373ffffffffffffffffffffffffffffffffffffffff1673ffffffffffffffffffffffffffffffffffffffff16815260200190815260200160002060009054906101000a900460ff166104a6576040517f08c379a000000000000000000000000000000000000000000000000000000000815260040161049d9061092f565b60405180910390fd5b6000600360003373ffffffffffffffffffffffffffffffffffffffff1673ffffffffffffffffffffffffffffffffffffffff16815260200190815260200160002060006101000a81548160ff021916908315150217905550801561051f5760016006600082825461051791906109f2565b925050819055505b50565b60008060009054906101000a900473ffffffffffffffffffffffffffffffffffffffff16905090565b600760029054906101000a900460ff1681565b6000600760009054906101000a900460ff16801561058b575060026005546105869190610a48565b600654115b905090565b600160009054906101000a900473ffffffffffffffffffffffffffffffffffffffff1681565b6105be61065a565b600073ffffffffffffffffffffffffffffffffffffffff168173ffffffffffffffffffffffffffffffffffffffff16141561062e576040517f08c379a00000000000000000000000000000000000000000000000000000000081526004016106259061090f565b60405180910390fd5b610637816106d8565b50565b60036020528060005260406000206000915054906101000a900460ff1681565b61066261079c565b73ffffffffffffffffffffffffffffffffffffffff16610680610522565b73ffffffffffffffffffffffffffffffffffffffff16146106d6576040517f08c379a00000000000000000000000000000000000000000000000000000000081526004016106cd9061096f565b60405180910390fd5b565b60008060009054906101000a900473ffffffffffffffffffffffffffffffffffffffff169050816000806101000a81548173ffffffffffffffffffffffffffffffffffffffff021916908373ffffffffffffffffffffffffffffffffffffffff1602179055508173ffffffffffffffffffffffffffffffffffffffff168173ffffffffffffffffffffffffffffffffffffffff167f8be0079c531659141344cd1fd0a4f28419497f9722a3daafe3b4186f6b6457e060405160405180910390a35050565b600033905090565b6000813590506107b381610c0f565b92915050565b6000813590506107c881610c26565b92915050565b6000602082840312156107e057600080fd5b60006107ee848285016107a4565b91505092915050565b60006020828403121561080957600080fd5b6000610817848285016107b9565b91505092915050565b61082981610a79565b82525050565b61083881610a8b565b82525050565b600061084b6026836109e1565b915061085682610b1f565b604082019050919050565b600061086e6022836109e1565b915061087982610b6e565b604082019050919050565b60006108916018836109e1565b915061089c82610bbd565b602082019050919050565b60006108b46020836109e1565b91506108bf82610be6565b602082019050919050565b6108d381610ab7565b82525050565b60006020820190506108ee6000830184610820565b92915050565b6000602082019050610909600083018461082f565b92915050565b600060208201905081810360008301526109288161083e565b9050919050565b6000602082019050818103600083015261094881610861565b9050919050565b6000602082019050818103600083015261096881610884565b9050919050565b60006020820190508181036000830152610988816108a7565b9050919050565b60006020820190506109a460008301846108ca565b92915050565b60006060820190506109bf60008301866108ca565b6109cc60208301856108ca565b6109d9604083018461082f565b949350505050565b600082825260208201905092915050565b60006109fd82610ab7565b9150610a0883610ab7565b9250827fffffffffffffffffffffffffffffffffffffffffffffffffffffffffffffffff03821115610a3d57610a3c610ac1565b5b828201905092915050565b6000610a5382610ab7565b9150610a5e83610ab7565b925082610a6e57610a6d610af0565b5b828204905092915050565b6000610a8482610a97565b9050919050565b60008115159050919050565b600073ffffffffffffffffffffffffffffffffffffffff82169050919050565b6000819050919050565b7f4e487b7100000000000000000000000000000000000000000000000000000000600052601160045260246000fd5b7f4e487b7100000000000000000000000000000000000000000000000000000000600052601260045260246000fd5b7f4f776e61626c653a206e6577206f776e657220697320746865207a65726f206160008201527f6464726573730000000000000000000000000000000000000000000000000000602082015250565b7f596f7520646f206e6f7420686176652074686520726967687420746f20766f7460008201527f6521000000000000000000000000000000000000000000000000000000000000602082015250565b7f636f6e747261637420616c726561647920636c6f736564210000000000000000600082015250565b7f4f776e61626c653a2063616c6c6572206973206e6f7420746865206f776e6572600082015250565b610c1881610a79565b8114610c2357600080fd5b50565b610c2f81610a8b565b8114610c3a57600080fd5b5056fea264697066735822122096ec20de05223fb021004894b01588fab4043ab7a16fb2c7400bc0fb00dc078a64736f6c63430008010033a264697066735822122048b598f64d165f5237981e71faf346faa0de816490a593ce143f534aa3baa4c864736f6c63430008010033",
  "immutableReferences": {},
  "source": "// contracts/ScholarCoin.sol\r\n// SPDX-License-Identifier: MIT\r\npragma solidity ^0.8.1;\r\n\r\nimport \"@openzeppelin/contracts/token/ERC1155/ERC1155.sol\";\r\nimport \"@openzeppelin/contracts/access/Ownable.sol\";\r\n\r\ncontract PaperApprovalContract is Ownable{\r\n    address public author;\r\n    address public paperUri;\r\n    mapping (address => bool) public reviewers;\r\n    mapping (address => bool) public reviewersVoting;\r\n    uint public totalVotes;\r\n    uint public approvalCounts;\r\n    bool private contractIsClosed;\r\n    bool public approvalStatus;\r\n    bool public claimContractBrick;\r\n\r\n    constructor(address contractOwner, address _author, address _paperUri, address[] memory _reviewers) public {\r\n        transferOwnership(contractOwner);\r\n        author = _author;\r\n        paperUri = _paperUri;\r\n        contractIsClosed = false;\r\n        approvalCounts = 0;\r\n        totalVotes = _reviewers.length;\r\n        for (uint i = 0; i < _reviewers.length; i++){\r\n            reviewers[_reviewers[i]] = true;\r\n        }\r\n\r\n    }\r\n\r\n    function commitVote(bool vote) public{\r\n        require(!contractIsClosed, \"contract already closed!\");\r\n        require(reviewers[msg.sender], \"You do not have the right to vote!\");\r\n        reviewers[msg.sender] = false;\r\n        if (vote){\r\n            approvalCounts += 1;\r\n        }\r\n    }\r\n\r\n    function closeContract() public onlyOwner{\r\n        require(!contractIsClosed, \"contract already closed!\");\r\n        contractIsClosed = true;\r\n    }\r\n\r\n    function checkVotingStatus() public view returns(uint _totalVotes, uint _approvalCounts, bool _contractIsClosed){\r\n        return(totalVotes, approvalCounts, contractIsClosed);\r\n    }\r\n\r\n    function isContractClaimable() public view returns(bool){\r\n        return contractIsClosed && (approvalCounts > (totalVotes / 2));\r\n    }\r\n\r\n}\r\n\r\ncontract ScholarDaoContract is ERC1155, Ownable {\r\n    mapping (uint256 => string) private _uris;\r\n    uint256 public constant SCHOLAR_BRICK = 0;\r\n    uint256 public constant SCHOLAR_SAND = 1;\r\n\r\n    mapping (address => bool) public scholarAddresses;\r\n\r\n    //a mapping of scholar and their papper \r\n    mapping (address => mapping(address => ScholarPaper)) public scholarPaperMap;\r\n\r\n    struct ScholarPaper {\r\n        PaperApprovalContract paperContract;\r\n        mapping(address => bool) scholarSandClaimable;\r\n        bool scholarBrickClaimed;\r\n    }\r\n\r\n    constructor() public ERC1155(\"\") {\r\n        // set up assets\r\n        _uris[SCHOLAR_BRICK] = \"SCHOLAR_BRICK\";\r\n        _uris[SCHOLAR_SAND] = \"SCHOLAR_SAND\";\r\n\r\n    }\r\n\r\n    function uri(uint256 tokenId) override public view returns (string memory){\r\n        //find out tokenId represents in this contract\r\n        return(_uris[tokenId]);\r\n    }\r\n\r\n    function setTokenUri(uint256 _tokenId, string memory _uri) public onlyOwner {\r\n        _uris[_tokenId] = _uri;\r\n    }\r\n\r\n    function mint(address recipient, uint256 tokenId, uint256 amount) public onlyOwner {\r\n        _mint(recipient, tokenId, amount, \"\");\r\n    }\r\n\r\n    function approveNewScholar(address recipient) public onlyOwner {\r\n        // add new scholar to address list, but they are not yet a dao member\r\n        scholarAddresses[recipient] = true;\r\n    }\r\n\r\n    function initReviewContract(address author, address paperUri, address[] memory _reviewers) public onlyOwner returns(address contractAddress){\r\n        scholarPaperMap[author][paperUri].paperContract =  new PaperApprovalContract(msg.sender, author, paperUri, _reviewers);\r\n        scholarPaperMap[author][paperUri].scholarBrickClaimed = false;\r\n        return address(scholarPaperMap[author][paperUri].paperContract);\r\n    }\r\n\r\n    function mintScholarBrick(address recipient, address paperUri) public {\r\n        require(address(scholarPaperMap[recipient][paperUri].paperContract) != address(0x0), \"Recipient must own this paper\");\r\n        require(scholarPaperMap[recipient][paperUri].paperContract.isContractClaimable(), \"Paper contract cannot be claimed!\");\r\n        require(msg.sender == recipient || msg.sender == owner(), \"Only the author or the owner can claim this contract!\");\r\n        require(!scholarPaperMap[recipient][paperUri].scholarBrickClaimed, \"Scholar brick was claimed!\");\r\n        _mint(recipient, SCHOLAR_BRICK, 1, \"\");\r\n        scholarPaperMap[recipient][paperUri].scholarBrickClaimed = true;\r\n    }\r\n\r\n    function addPaperRefferenceAddresses(address author, address paperUri, address[] memory referenceScholarAddresses) public onlyOwner{\r\n        for(uint i = 0; i < referenceScholarAddresses.length; i ++){\r\n            scholarPaperMap[author][paperUri].scholarSandClaimable[referenceScholarAddresses[i]] = true;\r\n        }\r\n    }\r\n\r\n    function mintScholarSand(address recipient, address author, address paperUri) public{\r\n        require(address(scholarPaperMap[author][paperUri].paperContract) != address(0x0), \"Paper must exists\");\r\n        require(scholarPaperMap[author][paperUri].scholarSandClaimable[recipient], \"Recipient is unable to claim with this paper\");\r\n        _mint(recipient, SCHOLAR_SAND, 5, \"\");\r\n        scholarPaperMap[author][paperUri].scholarSandClaimable[recipient] = false;\r\n\r\n    }\r\n\r\n    function convertSandToBrick(address recipient, uint amount) public{\r\n        // convert every 1 thousand sand from msg.sender into 1 brick to recipient\r\n        require(balanceOf(msg.sender, SCHOLAR_SAND) >= amount, \"Sender must have enough sand amount\");\r\n        uint convertNum = amount / 1000;\r\n        _burn(msg.sender, SCHOLAR_SAND, convertNum * 1000);\r\n        _mint(recipient, SCHOLAR_BRICK, convertNum, \"\");\r\n    }\r\n\r\n\r\n} \r\n",
  "sourcePath": "C:/DevSpot/JueXueDAO/contract/contracts/ScholarDaoContract.sol",
  "compiler": {
    "name": "solc",
    "version": "0.8.1+commit.df193b15.Emscripten.clang"
  },
  "schemaVersion": "3.3.4",
  "updatedAt": "2022-09-14T03:13:47.951Z",
  "devdoc": {
    "kind": "dev",
    "methods": {
      "balanceOf(address,uint256)": {
        "details": "See {IERC1155-balanceOf}. Requirements: - `account` cannot be the zero address."
      },
      "balanceOfBatch(address[],uint256[])": {
        "details": "See {IERC1155-balanceOfBatch}. Requirements: - `accounts` and `ids` must have the same length."
      },
      "isApprovedForAll(address,address)": {
        "details": "See {IERC1155-isApprovedForAll}."
      },
      "owner()": {
        "details": "Returns the address of the current owner."
      },
      "renounceOwnership()": {
        "details": "Leaves the contract without owner. It will not be possible to call `onlyOwner` functions anymore. Can only be called by the current owner. NOTE: Renouncing ownership will leave the contract without an owner, thereby removing any functionality that is only available to the owner."
      },
      "safeBatchTransferFrom(address,address,uint256[],uint256[],bytes)": {
        "details": "See {IERC1155-safeBatchTransferFrom}."
      },
      "safeTransferFrom(address,address,uint256,uint256,bytes)": {
        "details": "See {IERC1155-safeTransferFrom}."
      },
      "setApprovalForAll(address,bool)": {
        "details": "See {IERC1155-setApprovalForAll}."
      },
      "supportsInterface(bytes4)": {
        "details": "See {IERC165-supportsInterface}."
      },
      "transferOwnership(address)": {
        "details": "Transfers ownership of the contract to a new account (`newOwner`). Can only be called by the current owner."
      }
    },
    "version": 1
  },
  "userdoc": {
    "kind": "user",
    "methods": {},
    "version": 1
  }
}